{
  "abi": [
    {
      "inputs": [
        {
          "internalType": "contract IERC721",
          "name": "_nftCollection",
          "type": "address"
        },
        {
          "internalType": "contract IERC20",
          "name": "_rewardsToken",
          "type": "address"
        }
      ],
      "stateMutability": "nonpayable",
      "type": "constructor"
    },
    {
      "inputs": [
        {
          "internalType": "string",
          "name": "proposalText",
          "type": "string"
        }
      ],
      "name": "addProposal",
      "outputs": [],
      "stateMutability": "nonpayable",
      "type": "function"
    },
    {
      "inputs": [
        {
          "internalType": "uint256",
          "name": "proposalIndex",
          "type": "uint256"
        },
        {
          "internalType": "address",
          "name": "requester",
          "type": "address"
        }
      ],
      "name": "canVote",
      "outputs": [
        {
          "internalType": "bool",
          "name": "",
          "type": "bool"
        }
      ],
      "stateMutability": "view",
      "type": "function"
    },
    {
      "inputs": [
        {
          "internalType": "bool",
          "name": "vote",
          "type": "bool"
        },
        {
          "internalType": "uint256",
          "name": "proposalIndex",
          "type": "uint256"
        }
      ],
      "name": "castVote",
      "outputs": [],
      "stateMutability": "nonpayable",
      "type": "function"
    },
    {
      "inputs": [],
      "name": "getAllProposals",
      "outputs": [
        {
          "components": [
            {
              "internalType": "string",
              "name": "proposalText",
              "type": "string"
            },
            {
              "internalType": "uint256",
              "name": "yesVotes",
              "type": "uint256"
            },
            {
              "internalType": "uint256",
              "name": "noVotes",
              "type": "uint256"
            },
            {
              "internalType": "address",
              "name": "proposalCreator",
              "type": "address"
            }
          ],
          "internalType": "struct FriendsLandVoting.Proposal[]",
          "name": "",
          "type": "tuple[]"
        }
      ],
      "stateMutability": "view",
      "type": "function"
    },
    {
      "inputs": [
        {
          "internalType": "address",
          "name": "requester",
          "type": "address"
        }
      ],
      "name": "getVotingPower",
      "outputs": [
        {
          "internalType": "uint256",
          "name": "",
          "type": "uint256"
        }
      ],
      "stateMutability": "view",
      "type": "function"
    },
    {
      "inputs": [
        {
          "internalType": "address",
          "name": "",
          "type": "address"
        },
        {
          "internalType": "uint256",
          "name": "",
          "type": "uint256"
        }
      ],
      "name": "hasVoted",
      "outputs": [
        {
          "internalType": "uint256",
          "name": "",
          "type": "uint256"
        }
      ],
      "stateMutability": "view",
      "type": "function"
    },
    {
      "inputs": [],
      "name": "nftCollection",
      "outputs": [
        {
          "internalType": "contract IERC721",
          "name": "",
          "type": "address"
        }
      ],
      "stateMutability": "view",
      "type": "function"
    },
    {
      "inputs": [],
      "name": "rewardsToken",
      "outputs": [
        {
          "internalType": "contract IERC20",
          "name": "",
          "type": "address"
        }
      ],
      "stateMutability": "view",
      "type": "function"
    }
  ],
  "devdoc": {
    "kind": "dev",
    "methods": {},
    "version": 1
  },
  "evm": {
    "assembly": "    /* \"NftVoting.sol\":311:2507  contract FriendsLandVoting is ReentrancyGuard{... */\n  mstore(0x40, 0xc0)\n    /* \"NftVoting.sol\":553:556  100 */\n  0x64\n    /* \"NftVoting.sol\":528:556  uint votingPowerPerNFT = 100 */\n  0x01\n  sstore\n    /* \"NftVoting.sol\":589:591  10 */\n  0x0a\n    /* \"NftVoting.sol\":563:591  uint votingPowerPerCoin = 10 */\n  0x02\n  sstore\n    /* \"NftVoting.sol\":687:833  constructor(IERC721 _nftCollection, IERC20 _rewardsToken) {... */\n  callvalue\n  dup1\n  iszero\n  tag_1\n  jumpi\n  0x00\n  dup1\n  revert\ntag_1:\n  pop\n  mload(0x40)\n  sub(codesize, bytecodeSize)\n  dup1\n  bytecodeSize\n  dup4\n  codecopy\n  dup2\n  add\n  0x40\n  dup2\n  swap1\n  mstore\n  tag_2\n  swap2\n  tag_3\n  jump\t// in\ntag_2:\n    /* \"@openzeppelin/contracts/security/ReentrancyGuard.sol\":1701:1702   */\n  0x01\n    /* \"@openzeppelin/contracts/security/ReentrancyGuard.sol\":1806:1813   */\n  0x00\n    /* \"@openzeppelin/contracts/security/ReentrancyGuard.sol\":1806:1828   */\n  sstore\n  sub(shl(0xa0, 0x01), 0x01)\n    /* \"NftVoting.sol\":756:786  nftCollection = _nftCollection */\n  swap2\n  dup3\n  and\n  0xa0\n  mstore\n    /* \"NftVoting.sol\":797:825  rewardsToken = _rewardsToken */\n  and\n  0x80\n  mstore\n    /* \"NftVoting.sol\":311:2507  contract FriendsLandVoting is ReentrancyGuard{... */\n  jump(tag_10)\n    /* \"#utility.yul\":14:154   */\ntag_9:\n  sub(shl(0xa0, 0x01), 0x01)\n    /* \"#utility.yul\":98:129   */\n  dup2\n  and\n    /* \"#utility.yul\":88:130   */\n  dup2\n  eq\n    /* \"#utility.yul\":78:148   */\n  tag_12\n  jumpi\n    /* \"#utility.yul\":144:145   */\n  0x00\n    /* \"#utility.yul\":141:142   */\n  dup1\n    /* \"#utility.yul\":134:146   */\n  revert\n    /* \"#utility.yul\":78:148   */\ntag_12:\n    /* \"#utility.yul\":14:154   */\n  pop\n  jump\t// out\n    /* \"#utility.yul\":159:592   */\ntag_3:\n    /* \"#utility.yul\":268:274   */\n  0x00\n    /* \"#utility.yul\":276:282   */\n  dup1\n    /* \"#utility.yul\":329:331   */\n  0x40\n    /* \"#utility.yul\":317:326   */\n  dup4\n    /* \"#utility.yul\":308:315   */\n  dup6\n    /* \"#utility.yul\":304:327   */\n  sub\n    /* \"#utility.yul\":300:332   */\n  slt\n    /* \"#utility.yul\":297:349   */\n  iszero\n  tag_14\n  jumpi\n    /* \"#utility.yul\":345:346   */\n  0x00\n    /* \"#utility.yul\":342:343   */\n  dup1\n    /* \"#utility.yul\":335:347   */\n  revert\n    /* \"#utility.yul\":297:349   */\ntag_14:\n    /* \"#utility.yul\":377:386   */\n  dup3\n    /* \"#utility.yul\":371:387   */\n  mload\n    /* \"#utility.yul\":396:436   */\n  tag_15\n    /* \"#utility.yul\":430:435   */\n  dup2\n    /* \"#utility.yul\":396:436   */\n  tag_9\n  jump\t// in\ntag_15:\n    /* \"#utility.yul\":505:507   */\n  0x20\n    /* \"#utility.yul\":490:508   */\n  dup5\n  add\n    /* \"#utility.yul\":484:509   */\n  mload\n    /* \"#utility.yul\":455:460   */\n  swap1\n  swap3\n  pop\n    /* \"#utility.yul\":518:560   */\n  tag_16\n    /* \"#utility.yul\":484:509   */\n  dup2\n    /* \"#utility.yul\":518:560   */\n  tag_9\n  jump\t// in\ntag_16:\n    /* \"#utility.yul\":579:586   */\n  dup1\n    /* \"#utility.yul\":569:586   */\n  swap2\n  pop\n  pop\n    /* \"#utility.yul\":159:592   */\n  swap3\n  pop\n  swap3\n  swap1\n  pop\n  jump\t// out\ntag_10:\n    /* \"NftVoting.sol\":311:2507  contract FriendsLandVoting is ReentrancyGuard{... */\n  mload(0x80)\n  mload(0xa0)\n  codecopy(0x00, dataOffset(sub_0), dataSize(sub_0))\n  0x00\n  assignImmutable(\"0x3b48f2d0209eb4dd60e62c1f7e596ae31bd20069addd815217072f5e9590f121\")\n  0x00\n  assignImmutable(\"0x10257b4b78eb1cc8f3bf37ee4ac776bf13f9a94a6698f944882b60d3d834a8aa\")\n  return(0x00, dataSize(sub_0))\nstop\n\nsub_0: assembly {\n        /* \"NftVoting.sol\":311:2507  contract FriendsLandVoting is ReentrancyGuard{... */\n      mstore(0x40, 0x80)\n      callvalue\n      dup1\n      iszero\n      tag_1\n      jumpi\n      0x00\n      dup1\n      revert\n    tag_1:\n      pop\n      jumpi(tag_2, lt(calldatasize, 0x04))\n      shr(0xe0, calldataload(0x00))\n      dup1\n      0xbb4d4436\n      gt\n      tag_11\n      jumpi\n      dup1\n      0xbb4d4436\n      eq\n      tag_7\n      jumpi\n      dup1\n      0xcceb68f5\n      eq\n      tag_8\n      jumpi\n      dup1\n      0xcdb2867b\n      eq\n      tag_9\n      jumpi\n      dup1\n      0xd1af0c7d\n      eq\n      tag_10\n      jumpi\n      0x00\n      dup1\n      revert\n    tag_11:\n      dup1\n      0x2fdae3c5\n      eq\n      tag_3\n      jumpi\n      dup1\n      0x3f2fa030\n      eq\n      tag_4\n      jumpi\n      dup1\n      0x42545825\n      eq\n      tag_5\n      jumpi\n      dup1\n      0x6588103b\n      eq\n      tag_6\n      jumpi\n    tag_2:\n      0x00\n      dup1\n      revert\n        /* \"NftVoting.sol\":1064:1247  function addProposal(string memory proposalText) public{... */\n    tag_3:\n      tag_12\n      tag_13\n      calldatasize\n      0x04\n      tag_14\n      jump\t// in\n    tag_13:\n      tag_15\n      jump\t// in\n    tag_12:\n      stop\n        /* \"NftVoting.sol\":1770:2116  function castVote(bool vote, uint proposalIndex) public{... */\n    tag_4:\n      tag_12\n      tag_17\n      calldatasize\n      0x04\n      tag_18\n      jump\t// in\n    tag_17:\n      tag_19\n      jump\t// in\n        /* \"NftVoting.sol\":1015:1057  mapping(address => uint[]) public hasVoted */\n    tag_5:\n      tag_20\n      tag_21\n      calldatasize\n      0x04\n      tag_22\n      jump\t// in\n    tag_21:\n      tag_23\n      jump\t// in\n    tag_20:\n      mload(0x40)\n        /* \"#utility.yul\":2025:2050   */\n      swap1\n      dup2\n      mstore\n        /* \"#utility.yul\":2013:2015   */\n      0x20\n        /* \"#utility.yul\":1998:2016   */\n      add\n        /* \"NftVoting.sol\":1015:1057  mapping(address => uint[]) public hasVoted */\n    tag_24:\n      mload(0x40)\n      dup1\n      swap2\n      sub\n      swap1\n      return\n        /* \"NftVoting.sol\":481:519  IERC721 public immutable nftCollection */\n    tag_6:\n      tag_26\n      immutable(\"0x3b48f2d0209eb4dd60e62c1f7e596ae31bd20069addd815217072f5e9590f121\")\n      dup2\n      jump\n    tag_26:\n      mload(0x40)\n      sub(shl(0xa0, 0x01), 0x01)\n        /* \"#utility.yul\":2241:2296   */\n      swap1\n      swap2\n      and\n        /* \"#utility.yul\":2223:2297   */\n      dup2\n      mstore\n        /* \"#utility.yul\":2211:2213   */\n      0x20\n        /* \"#utility.yul\":2196:2214   */\n      add\n        /* \"NftVoting.sol\":481:519  IERC721 public immutable nftCollection */\n      tag_24\n        /* \"#utility.yul\":2061:2303   */\n      jump\n        /* \"NftVoting.sol\":1253:1469  function getVotingPower(address requester) public view returns(uint){... */\n    tag_7:\n      tag_20\n      tag_31\n      calldatasize\n      0x04\n      tag_32\n      jump\t// in\n    tag_31:\n      tag_33\n      jump\t// in\n        /* \"NftVoting.sol\":2122:2504  function getAllProposals() external view returns(Proposal[] memory){... */\n    tag_8:\n      tag_35\n      tag_36\n      jump\t// in\n    tag_35:\n      mload(0x40)\n      tag_24\n      swap2\n      swap1\n      tag_38\n      jump\t// in\n        /* \"NftVoting.sol\":1475:1764  function canVote(uint proposalIndex, address requester) public view returns(bool){... */\n    tag_9:\n      tag_39\n      tag_40\n      calldatasize\n      0x04\n      tag_41\n      jump\t// in\n    tag_40:\n      tag_42\n      jump\t// in\n    tag_39:\n      mload(0x40)\n        /* \"#utility.yul\":4767:4781   */\n      swap1\n      iszero\n        /* \"#utility.yul\":4760:4782   */\n      iszero\n        /* \"#utility.yul\":4742:4783   */\n      dup2\n      mstore\n        /* \"#utility.yul\":4730:4732   */\n      0x20\n        /* \"#utility.yul\":4715:4733   */\n      add\n        /* \"NftVoting.sol\":1475:1764  function canVote(uint proposalIndex, address requester) public view returns(bool){... */\n      tag_24\n        /* \"#utility.yul\":4602:4789   */\n      jump\n        /* \"NftVoting.sol\":438:474  IERC20 public immutable rewardsToken */\n    tag_10:\n      tag_26\n      immutable(\"0x10257b4b78eb1cc8f3bf37ee4ac776bf13f9a94a6698f944882b60d3d834a8aa\")\n      dup2\n      jump\n        /* \"NftVoting.sol\":1064:1247  function addProposal(string memory proposalText) public{... */\n    tag_15:\n        /* \"NftVoting.sol\":1167:1168  0 */\n      0x00\n        /* \"NftVoting.sol\":1138:1164  getVotingPower(msg.sender) */\n      tag_50\n        /* \"NftVoting.sol\":1153:1163  msg.sender */\n      caller\n        /* \"NftVoting.sol\":1138:1152  getVotingPower */\n      tag_33\n        /* \"NftVoting.sol\":1138:1164  getVotingPower(msg.sender) */\n      jump\t// in\n    tag_50:\n        /* \"NftVoting.sol\":1138:1168  getVotingPower(msg.sender) > 0 */\n      gt\n        /* \"NftVoting.sol\":1130:1169  require(getVotingPower(msg.sender) > 0) */\n      tag_51\n      jumpi\n      0x00\n      dup1\n      revert\n    tag_51:\n        /* \"NftVoting.sol\":1198:1238  Proposal(proposalText, 0, 0, msg.sender) */\n      0x40\n      dup1\n      mload\n      0x80\n      dup2\n      add\n      dup3\n      mstore\n      dup3\n      dup2\n      mstore\n      0x00\n      0x20\n      dup1\n      dup4\n      add\n      dup3\n      swap1\n      mstore\n      swap3\n      dup3\n      add\n      dup2\n      swap1\n      mstore\n        /* \"NftVoting.sol\":1227:1237  msg.sender */\n      caller\n        /* \"NftVoting.sol\":1198:1238  Proposal(proposalText, 0, 0, msg.sender) */\n      0x60\n      dup4\n      add\n      mstore\n        /* \"NftVoting.sol\":1180:1192  allProposals */\n      0x03\n        /* \"NftVoting.sol\":1180:1239  allProposals.push(Proposal(proposalText, 0, 0, msg.sender)) */\n      dup1\n      sload\n      0x01\n      dup2\n      add\n      dup3\n      sstore\n      swap2\n      mstore\n      dup2\n      mload\n      dup1\n      mload\n        /* \"NftVoting.sol\":1198:1238  Proposal(proposalText, 0, 0, msg.sender) */\n      swap3\n      swap4\n        /* \"NftVoting.sol\":1180:1239  allProposals.push(Proposal(proposalText, 0, 0, msg.sender)) */\n      0x04\n      swap1\n      swap3\n      mul\n      0xc2575a0e9e593c00f959f8c92f12db2869c3395a3b0502d05e2516446f71f85b\n      add\n      swap3\n      tag_53\n      swap3\n      dup5\n      swap3\n      add\n      swap1\n      tag_54\n      jump\t// in\n    tag_53:\n      pop\n      0x20\n      dup3\n      add\n      mload\n      0x01\n      dup3\n      add\n      sstore\n      0x40\n      dup3\n      add\n      mload\n      0x02\n      dup3\n      add\n      sstore\n      0x60\n      swap1\n      swap2\n      add\n      mload\n      0x03\n      swap1\n      swap2\n      add\n      dup1\n      sload\n      0xffffffffffffffffffffffff0000000000000000000000000000000000000000\n      and\n      sub(shl(0xa0, 0x01), 0x01)\n      swap1\n      swap3\n      and\n      swap2\n      swap1\n      swap2\n      or\n      swap1\n      sstore\n      pop\n        /* \"NftVoting.sol\":1064:1247  function addProposal(string memory proposalText) public{... */\n      jump\t// out\n        /* \"NftVoting.sol\":1770:2116  function castVote(bool vote, uint proposalIndex) public{... */\n    tag_19:\n        /* \"NftVoting.sol\":1844:1878  canVote(proposalIndex, msg.sender) */\n      tag_56\n        /* \"NftVoting.sol\":1852:1865  proposalIndex */\n      dup2\n        /* \"NftVoting.sol\":1867:1877  msg.sender */\n      caller\n        /* \"NftVoting.sol\":1844:1851  canVote */\n      tag_42\n        /* \"NftVoting.sol\":1844:1878  canVote(proposalIndex, msg.sender) */\n      jump\t// in\n    tag_56:\n        /* \"NftVoting.sol\":1836:1879  require(canVote(proposalIndex, msg.sender)) */\n      tag_57\n      jumpi\n      0x00\n      dup1\n      revert\n    tag_57:\n        /* \"NftVoting.sol\":1890:1906  uint votingPower */\n      0x00\n        /* \"NftVoting.sol\":1909:1935  getVotingPower(msg.sender) */\n      tag_58\n        /* \"NftVoting.sol\":1924:1934  msg.sender */\n      caller\n        /* \"NftVoting.sol\":1909:1923  getVotingPower */\n      tag_33\n        /* \"NftVoting.sol\":1909:1935  getVotingPower(msg.sender) */\n      jump\t// in\n    tag_58:\n        /* \"NftVoting.sol\":1890:1935  uint votingPower = getVotingPower(msg.sender) */\n      swap1\n      pop\n        /* \"NftVoting.sol\":1946:1950  vote */\n      dup3\n        /* \"NftVoting.sol\":1946:2057  vote ? allProposals[proposalIndex].yesVotes += votingPower : allProposals[proposalIndex].noVotes += votingPower */\n      tag_59\n      jumpi\n        /* \"NftVoting.sol\":2046:2057  votingPower */\n      dup1\n        /* \"NftVoting.sol\":2007:2019  allProposals */\n      0x03\n        /* \"NftVoting.sol\":2020:2033  proposalIndex */\n      dup4\n        /* \"NftVoting.sol\":2007:2034  allProposals[proposalIndex] */\n      dup2\n      sload\n      dup2\n      lt\n      tag_61\n      jumpi\n      tag_61\n      tag_62\n      jump\t// in\n    tag_61:\n      swap1\n      0x00\n      mstore\n      keccak256(0x00, 0x20)\n      swap1\n      0x04\n      mul\n      add\n        /* \"NftVoting.sol\":2007:2042  allProposals[proposalIndex].noVotes */\n      0x02\n      add\n      0x00\n        /* \"NftVoting.sol\":2007:2057  allProposals[proposalIndex].noVotes += votingPower */\n      dup3\n      dup3\n      sload\n      tag_64\n      swap2\n      swap1\n      tag_65\n      jump\t// in\n    tag_64:\n      swap3\n      pop\n      pop\n      dup2\n      swap1\n      sstore\n        /* \"NftVoting.sol\":1946:2057  vote ? allProposals[proposalIndex].yesVotes += votingPower : allProposals[proposalIndex].noVotes += votingPower */\n      jump(tag_66)\n    tag_59:\n        /* \"NftVoting.sol\":1993:2004  votingPower */\n      dup1\n        /* \"NftVoting.sol\":1953:1965  allProposals */\n      0x03\n        /* \"NftVoting.sol\":1966:1979  proposalIndex */\n      dup4\n        /* \"NftVoting.sol\":1953:1980  allProposals[proposalIndex] */\n      dup2\n      sload\n      dup2\n      lt\n      tag_68\n      jumpi\n      tag_68\n      tag_62\n      jump\t// in\n    tag_68:\n      swap1\n      0x00\n      mstore\n      keccak256(0x00, 0x20)\n      swap1\n      0x04\n      mul\n      add\n        /* \"NftVoting.sol\":1953:1989  allProposals[proposalIndex].yesVotes */\n      0x01\n      add\n      0x00\n        /* \"NftVoting.sol\":1953:2004  allProposals[proposalIndex].yesVotes += votingPower */\n      dup3\n      dup3\n      sload\n      tag_70\n      swap2\n      swap1\n      tag_65\n      jump\t// in\n    tag_70:\n      swap3\n      pop\n      pop\n      dup2\n      swap1\n      sstore\n        /* \"NftVoting.sol\":1946:2057  vote ? allProposals[proposalIndex].yesVotes += votingPower : allProposals[proposalIndex].noVotes += votingPower */\n    tag_66:\n      pop\n      pop\n        /* \"NftVoting.sol\":2077:2087  msg.sender */\n      caller\n        /* \"NftVoting.sol\":2068:2088  hasVoted[msg.sender] */\n      0x00\n      swap1\n      dup2\n      mstore\n        /* \"NftVoting.sol\":2068:2076  hasVoted */\n      0x04\n        /* \"NftVoting.sol\":2068:2088  hasVoted[msg.sender] */\n      0x20\n      swap1\n      dup2\n      mstore\n      0x40\n      dup3\n      keccak256\n        /* \"NftVoting.sol\":2068:2108  hasVoted[msg.sender].push(proposalIndex) */\n      dup1\n      sload\n      0x01\n      dup2\n      add\n      dup3\n      sstore\n      swap1\n      dup4\n      mstore\n      swap2\n      keccak256\n      add\n      sstore\n      pop\n        /* \"NftVoting.sol\":1770:2116  function castVote(bool vote, uint proposalIndex) public{... */\n      jump\t// out\n        /* \"NftVoting.sol\":1015:1057  mapping(address => uint[]) public hasVoted */\n    tag_23:\n      mstore(0x20, 0x04)\n      dup2\n      0x00\n      mstore\n      keccak256(0x00, 0x40)\n      dup2\n      dup2\n      sload\n      dup2\n      lt\n      tag_72\n      jumpi\n      0x00\n      dup1\n      revert\n    tag_72:\n      swap1\n      0x00\n      mstore\n      keccak256(0x00, 0x20)\n      add\n      0x00\n      swap2\n      pop\n      swap2\n      pop\n      pop\n      sload\n      dup2\n      jump\t// out\n        /* \"NftVoting.sol\":1253:1469  function getVotingPower(address requester) public view returns(uint){... */\n    tag_33:\n        /* \"NftVoting.sol\":1444:1461  votingPowerPerNFT */\n      sload(0x01)\n        /* \"NftVoting.sol\":1407:1441  nftCollection.balanceOf(requester) */\n      mload(0x40)\n      shl(0xe0, 0x70a08231)\n      dup2\n      mstore\n      sub(shl(0xa0, 0x01), 0x01)\n        /* \"#utility.yul\":2241:2296   */\n      dup4\n      dup2\n      and\n        /* \"NftVoting.sol\":1407:1441  nftCollection.balanceOf(requester) */\n      0x04\n      dup4\n      add\n        /* \"#utility.yul\":2223:2297   */\n      mstore\n      0x00\n      swap3\n        /* \"NftVoting.sol\":1444:1461  votingPowerPerNFT */\n      swap2\n        /* \"NftVoting.sol\":1407:1420  nftCollection */\n      immutable(\"0x3b48f2d0209eb4dd60e62c1f7e596ae31bd20069addd815217072f5e9590f121\")\n        /* \"NftVoting.sol\":1407:1430  nftCollection.balanceOf */\n      swap1\n      swap2\n      and\n      swap1\n      0x70a08231\n      swap1\n        /* \"#utility.yul\":2196:2214   */\n      0x24\n      add\n        /* \"NftVoting.sol\":1407:1441  nftCollection.balanceOf(requester) */\n      0x20\n      mload(0x40)\n      dup1\n      dup4\n      sub\n      dup2\n      dup7\n      gas\n      staticcall\n      iszero\n      dup1\n      iszero\n      tag_78\n      jumpi\n      returndatasize\n      0x00\n      dup1\n      returndatacopy\n      revert(0x00, returndatasize)\n    tag_78:\n      pop\n      pop\n      pop\n      pop\n      mload(0x40)\n      returndatasize\n      not(0x1f)\n      0x1f\n      dup3\n      add\n      and\n      dup3\n      add\n      dup1\n      0x40\n      mstore\n      pop\n      dup2\n      add\n      swap1\n      tag_79\n      swap2\n      swap1\n      tag_80\n      jump\t// in\n    tag_79:\n        /* \"NftVoting.sol\":1407:1461  nftCollection.balanceOf(requester) * votingPowerPerNFT */\n      tag_81\n      swap2\n      swap1\n      tag_82\n      jump\t// in\n    tag_81:\n        /* \"NftVoting.sol\":1377:1395  votingPowerPerCoin */\n      sload(0x02)\n        /* \"NftVoting.sol\":1341:1374  rewardsToken.balanceOf(requester) */\n      mload(0x40)\n      shl(0xe0, 0x70a08231)\n      dup2\n      mstore\n      sub(shl(0xa0, 0x01), 0x01)\n        /* \"#utility.yul\":2241:2296   */\n      dup6\n      dup2\n      and\n        /* \"NftVoting.sol\":1341:1374  rewardsToken.balanceOf(requester) */\n      0x04\n      dup4\n      add\n        /* \"#utility.yul\":2223:2297   */\n      mstore\n        /* \"NftVoting.sol\":1397:1403  10**18 */\n      0x0de0b6b3a7640000\n      swap3\n        /* \"NftVoting.sol\":1377:1395  votingPowerPerCoin */\n      swap2\n        /* \"NftVoting.sol\":1341:1353  rewardsToken */\n      immutable(\"0x10257b4b78eb1cc8f3bf37ee4ac776bf13f9a94a6698f944882b60d3d834a8aa\")\n        /* \"NftVoting.sol\":1341:1363  rewardsToken.balanceOf */\n      swap1\n      swap2\n      and\n      swap1\n      0x70a08231\n      swap1\n        /* \"#utility.yul\":2196:2214   */\n      0x24\n      add\n        /* \"NftVoting.sol\":1341:1374  rewardsToken.balanceOf(requester) */\n      0x20\n      mload(0x40)\n      dup1\n      dup4\n      sub\n      dup2\n      dup7\n      gas\n      staticcall\n      iszero\n      dup1\n      iszero\n      tag_85\n      jumpi\n      returndatasize\n      0x00\n      dup1\n      returndatacopy\n      revert(0x00, returndatasize)\n    tag_85:\n      pop\n      pop\n      pop\n      pop\n      mload(0x40)\n      returndatasize\n      not(0x1f)\n      0x1f\n      dup3\n      add\n      and\n      dup3\n      add\n      dup1\n      0x40\n      mstore\n      pop\n      dup2\n      add\n      swap1\n      tag_86\n      swap2\n      swap1\n      tag_80\n      jump\t// in\n    tag_86:\n        /* \"NftVoting.sol\":1341:1395  rewardsToken.balanceOf(requester) * votingPowerPerCoin */\n      tag_87\n      swap2\n      swap1\n      tag_82\n      jump\t// in\n    tag_87:\n        /* \"NftVoting.sol\":1340:1403  (rewardsToken.balanceOf(requester) * votingPowerPerCoin)/10**18 */\n      tag_88\n      swap2\n      swap1\n      tag_89\n      jump\t// in\n    tag_88:\n        /* \"NftVoting.sol\":1339:1461  ((rewardsToken.balanceOf(requester) * votingPowerPerCoin)/10**18) + nftCollection.balanceOf(requester) * votingPowerPerNFT */\n      tag_90\n      swap2\n      swap1\n      tag_65\n      jump\t// in\n    tag_90:\n        /* \"NftVoting.sol\":1332:1461  return ((rewardsToken.balanceOf(requester) * votingPowerPerCoin)/10**18) + nftCollection.balanceOf(requester) * votingPowerPerNFT */\n      swap3\n        /* \"NftVoting.sol\":1253:1469  function getVotingPower(address requester) public view returns(uint){... */\n      swap2\n      pop\n      pop\n      jump\t// out\n        /* \"NftVoting.sol\":2122:2504  function getAllProposals() external view returns(Proposal[] memory){... */\n    tag_36:\n        /* \"NftVoting.sol\":2246:2258  allProposals */\n      0x03\n        /* \"NftVoting.sol\":2246:2265  allProposals.length */\n      sload\n        /* \"NftVoting.sol\":2171:2188  Proposal[] memory */\n      0x60\n      swap1\n        /* \"NftVoting.sol\":2200:2228  Proposal[] memory _proposals */\n      0x00\n      swap1\n        /* \"NftVoting.sol\":2231:2266  new Proposal[](allProposals.length) */\n      0xffffffffffffffff\n      dup2\n      gt\n      iszero\n      tag_93\n      jumpi\n      tag_93\n      tag_94\n      jump\t// in\n    tag_93:\n      mload(0x40)\n      swap1\n      dup1\n      dup3\n      mstore\n      dup1\n      0x20\n      mul\n      0x20\n      add\n      dup3\n      add\n      0x40\n      mstore\n      dup1\n      iszero\n      tag_95\n      jumpi\n      dup2\n      0x20\n      add\n    tag_96:\n      tag_97\n      mload(0x40)\n      dup1\n      0x80\n      add\n      0x40\n      mstore\n      dup1\n      0x60\n      dup2\n      mstore\n      0x20\n      add\n      0x00\n      dup2\n      mstore\n      0x20\n      add\n      0x00\n      dup2\n      mstore\n      0x20\n      add\n      and(sub(shl(0xa0, 0x01), 0x01), 0x00)\n      dup2\n      mstore\n      pop\n      swap1\n      jump\n    tag_97:\n      dup2\n      mstore\n      0x20\n      add\n      swap1\n      0x01\n      swap1\n      sub\n      swap1\n      dup2\n      tag_96\n      jumpi\n      swap1\n      pop\n    tag_95:\n      pop\n        /* \"NftVoting.sol\":2280:2292  allProposals */\n      0x03\n        /* \"NftVoting.sol\":2280:2299  allProposals.length */\n      sload\n        /* \"NftVoting.sol\":2200:2266  Proposal[] memory _proposals = new Proposal[](allProposals.length) */\n      swap1\n      swap2\n      pop\n        /* \"NftVoting.sol\":2303:2304  0 */\n      0x00\n        /* \"NftVoting.sol\":2280:2304  allProposals.length == 0 */\n      sub\n        /* \"NftVoting.sol\":2277:2356  if(allProposals.length == 0){... */\n      tag_99\n      jumpi\n        /* \"NftVoting.sol\":2327:2344  new Proposal[](0) */\n      0x40\n      dup1\n      mload\n        /* \"NftVoting.sol\":2342:2343  0 */\n      0x00\n        /* \"NftVoting.sol\":2327:2344  new Proposal[](0) */\n      dup1\n      dup3\n      mstore\n      0x20\n      dup3\n      add\n      swap1\n      swap3\n      mstore\n      swap1\n      jump(tag_102)\n    tag_103:\n      tag_104\n      mload(0x40)\n      dup1\n      0x80\n      add\n      0x40\n      mstore\n      dup1\n      0x60\n      dup2\n      mstore\n      0x20\n      add\n      0x00\n      dup2\n      mstore\n      0x20\n      add\n      0x00\n      dup2\n      mstore\n      0x20\n      add\n      and(sub(shl(0xa0, 0x01), 0x01), 0x00)\n      dup2\n      mstore\n      pop\n      swap1\n      jump\n    tag_104:\n      dup2\n      mstore\n      0x20\n      add\n      swap1\n      0x01\n      swap1\n      sub\n      swap1\n      dup2\n      tag_103\n      jumpi\n      swap1\n      pop\n    tag_102:\n      pop\n        /* \"NftVoting.sol\":2320:2344  return new Proposal[](0) */\n      swap2\n      pop\n      pop\n        /* \"NftVoting.sol\":2122:2504  function getAllProposals() external view returns(Proposal[] memory){... */\n      swap1\n      jump\t// out\n        /* \"NftVoting.sol\":2277:2356  if(allProposals.length == 0){... */\n    tag_99:\n        /* \"NftVoting.sol\":2370:2376  uint i */\n      0x00\n        /* \"NftVoting.sol\":2366:2469  for(uint i = 0; i < allProposals.length; i++){... */\n    tag_105:\n        /* \"NftVoting.sol\":2386:2398  allProposals */\n      0x03\n        /* \"NftVoting.sol\":2386:2405  allProposals.length */\n      sload\n        /* \"NftVoting.sol\":2382:2405  i < allProposals.length */\n      dup2\n      lt\n        /* \"NftVoting.sol\":2366:2469  for(uint i = 0; i < allProposals.length; i++){... */\n      iszero\n      tag_106\n      jumpi\n        /* \"NftVoting.sol\":2442:2454  allProposals */\n      0x03\n        /* \"NftVoting.sol\":2455:2456  i */\n      dup2\n        /* \"NftVoting.sol\":2442:2457  allProposals[i] */\n      dup2\n      sload\n      dup2\n      lt\n      tag_109\n      jumpi\n      tag_109\n      tag_62\n      jump\t// in\n    tag_109:\n      swap1\n      0x00\n      mstore\n      keccak256(0x00, 0x20)\n      swap1\n      0x04\n      mul\n      add\n        /* \"NftVoting.sol\":2426:2457  _proposals[i] = allProposals[i] */\n      mload(0x40)\n      dup1\n      0x80\n      add\n      0x40\n      mstore\n      swap1\n      dup2\n      0x00\n      dup3\n      add\n      dup1\n      sload\n      tag_111\n      swap1\n      tag_112\n      jump\t// in\n    tag_111:\n      dup1\n      0x1f\n      add\n      0x20\n      dup1\n      swap2\n      div\n      mul\n      0x20\n      add\n      mload(0x40)\n      swap1\n      dup2\n      add\n      0x40\n      mstore\n      dup1\n      swap3\n      swap2\n      swap1\n      dup2\n      dup2\n      mstore\n      0x20\n      add\n      dup3\n      dup1\n      sload\n      tag_113\n      swap1\n      tag_112\n      jump\t// in\n    tag_113:\n      dup1\n      iszero\n      tag_114\n      jumpi\n      dup1\n      0x1f\n      lt\n      tag_115\n      jumpi\n      0x0100\n      dup1\n      dup4\n      sload\n      div\n      mul\n      dup4\n      mstore\n      swap2\n      0x20\n      add\n      swap2\n      jump(tag_114)\n    tag_115:\n      dup3\n      add\n      swap2\n      swap1\n      0x00\n      mstore\n      keccak256(0x00, 0x20)\n      swap1\n    tag_116:\n      dup2\n      sload\n      dup2\n      mstore\n      swap1\n      0x01\n      add\n      swap1\n      0x20\n      add\n      dup1\n      dup4\n      gt\n      tag_116\n      jumpi\n      dup3\n      swap1\n      sub\n      0x1f\n      and\n      dup3\n      add\n      swap2\n    tag_114:\n      pop\n      pop\n      pop\n      swap2\n      dup4\n      mstore\n      pop\n      pop\n      0x01\n      dup3\n      add\n      sload\n      0x20\n      dup3\n      add\n      mstore\n      0x02\n      dup3\n      add\n      sload\n      0x40\n      dup3\n      add\n      mstore\n      0x03\n      swap1\n      swap2\n      add\n      sload\n      sub(shl(0xa0, 0x01), 0x01)\n      and\n      0x60\n      swap1\n      swap2\n      add\n      mstore\n        /* \"NftVoting.sol\":2426:2439  _proposals[i] */\n      dup3\n      mload\n        /* \"NftVoting.sol\":2426:2436  _proposals */\n      dup4\n      swap1\n        /* \"NftVoting.sol\":2437:2438  i */\n      dup4\n      swap1\n        /* \"NftVoting.sol\":2426:2439  _proposals[i] */\n      dup2\n      lt\n      tag_118\n      jumpi\n      tag_118\n      tag_62\n      jump\t// in\n    tag_118:\n      0x20\n      mul\n      0x20\n      add\n      add\n        /* \"NftVoting.sol\":2426:2457  _proposals[i] = allProposals[i] */\n      dup2\n      swap1\n      mstore\n      pop\n        /* \"NftVoting.sol\":2407:2410  i++ */\n      dup1\n      dup1\n      tag_119\n      swap1\n      tag_120\n      jump\t// in\n    tag_119:\n      swap2\n      pop\n      pop\n        /* \"NftVoting.sol\":2366:2469  for(uint i = 0; i < allProposals.length; i++){... */\n      jump(tag_105)\n    tag_106:\n      pop\n        /* \"NftVoting.sol\":2486:2496  _proposals */\n      swap2\n        /* \"NftVoting.sol\":2122:2504  function getAllProposals() external view returns(Proposal[] memory){... */\n      swap1\n      pop\n      jump\t// out\n        /* \"NftVoting.sol\":1475:1764  function canVote(uint proposalIndex, address requester) public view returns(bool){... */\n    tag_42:\n        /* \"NftVoting.sol\":1551:1555  bool */\n      0x00\n      dup1\n        /* \"NftVoting.sol\":1567:1735  for(uint i = 0; i < hasVoted[requester].length; i++){... */\n    tag_122:\n      sub(shl(0xa0, 0x01), 0x01)\n        /* \"NftVoting.sol\":1587:1606  hasVoted[requester] */\n      dup4\n      and\n      0x00\n      swap1\n      dup2\n      mstore\n        /* \"NftVoting.sol\":1587:1595  hasVoted */\n      0x04\n        /* \"NftVoting.sol\":1587:1606  hasVoted[requester] */\n      0x20\n      mstore\n      0x40\n      swap1\n      keccak256\n        /* \"NftVoting.sol\":1587:1613  hasVoted[requester].length */\n      sload\n        /* \"NftVoting.sol\":1583:1613  i < hasVoted[requester].length */\n      dup2\n      lt\n        /* \"NftVoting.sol\":1567:1735  for(uint i = 0; i < hasVoted[requester].length; i++){... */\n      iszero\n      tag_123\n      jumpi\n      sub(shl(0xa0, 0x01), 0x01)\n        /* \"NftVoting.sol\":1637:1656  hasVoted[requester] */\n      dup4\n      and\n      0x00\n      swap1\n      dup2\n      mstore\n        /* \"NftVoting.sol\":1637:1645  hasVoted */\n      0x04\n        /* \"NftVoting.sol\":1637:1656  hasVoted[requester] */\n      0x20\n      mstore\n      0x40\n      swap1\n      keccak256\n        /* \"NftVoting.sol\":1637:1659  hasVoted[requester][i] */\n      dup1\n      sload\n        /* \"NftVoting.sol\":1663:1676  proposalIndex */\n      dup6\n      swap2\n        /* \"NftVoting.sol\":1637:1656  hasVoted[requester] */\n      swap1\n        /* \"NftVoting.sol\":1657:1658  i */\n      dup4\n      swap1\n        /* \"NftVoting.sol\":1637:1659  hasVoted[requester][i] */\n      dup2\n      lt\n      tag_126\n      jumpi\n      tag_126\n      tag_62\n      jump\t// in\n    tag_126:\n      swap1\n      0x00\n      mstore\n      keccak256(0x00, 0x20)\n      add\n      sload\n        /* \"NftVoting.sol\":1637:1676  hasVoted[requester][i] == proposalIndex */\n      sub\n        /* \"NftVoting.sol\":1634:1724  if(hasVoted[requester][i] == proposalIndex){... */\n      tag_128\n      jumpi\n        /* \"NftVoting.sol\":1703:1708  false */\n      0x00\n        /* \"NftVoting.sol\":1696:1708  return false */\n      swap2\n      pop\n      pop\n      jump(tag_90)\n        /* \"NftVoting.sol\":1634:1724  if(hasVoted[requester][i] == proposalIndex){... */\n    tag_128:\n        /* \"NftVoting.sol\":1615:1618  i++ */\n      dup1\n      tag_129\n      dup2\n      tag_120\n      jump\t// in\n    tag_129:\n      swap2\n      pop\n      pop\n        /* \"NftVoting.sol\":1567:1735  for(uint i = 0; i < hasVoted[requester].length; i++){... */\n      jump(tag_122)\n    tag_123:\n      pop\n        /* \"NftVoting.sol\":1752:1756  true */\n      0x01\n      swap4\n        /* \"NftVoting.sol\":1475:1764  function canVote(uint proposalIndex, address requester) public view returns(bool){... */\n      swap3\n      pop\n      pop\n      pop\n      jump\t// out\n    tag_54:\n      dup3\n      dup1\n      sload\n      tag_130\n      swap1\n      tag_112\n      jump\t// in\n    tag_130:\n      swap1\n      0x00\n      mstore\n      keccak256(0x00, 0x20)\n      swap1\n      0x1f\n      add\n      0x20\n      swap1\n      div\n      dup2\n      add\n      swap3\n      dup3\n      tag_132\n      jumpi\n      0x00\n      dup6\n      sstore\n      jump(tag_135)\n    tag_132:\n      dup3\n      0x1f\n      lt\n      tag_133\n      jumpi\n      dup1\n      mload\n      not(0xff)\n      and\n      dup4\n      dup1\n      add\n      or\n      dup6\n      sstore\n      jump(tag_135)\n    tag_133:\n      dup3\n      dup1\n      add\n      0x01\n      add\n      dup6\n      sstore\n      dup3\n      iszero\n      tag_135\n      jumpi\n      swap2\n      dup3\n      add\n    tag_134:\n      dup3\n      dup2\n      gt\n      iszero\n      tag_135\n      jumpi\n      dup3\n      mload\n      dup3\n      sstore\n      swap2\n      0x20\n      add\n      swap2\n      swap1\n      0x01\n      add\n      swap1\n      jump(tag_134)\n    tag_135:\n      pop\n      tag_136\n      swap3\n      swap2\n      pop\n      tag_137\n      jump\t// in\n    tag_136:\n      pop\n      swap1\n      jump\t// out\n    tag_137:\n    tag_138:\n      dup1\n      dup3\n      gt\n      iszero\n      tag_136\n      jumpi\n      0x00\n      dup2\n      sstore\n      0x01\n      add\n      jump(tag_138)\n        /* \"#utility.yul\":14:141   */\n    tag_94:\n        /* \"#utility.yul\":75:85   */\n      0x4e487b71\n        /* \"#utility.yul\":70:73   */\n      0xe0\n        /* \"#utility.yul\":66:86   */\n      shl\n        /* \"#utility.yul\":63:64   */\n      0x00\n        /* \"#utility.yul\":56:87   */\n      mstore\n        /* \"#utility.yul\":106:110   */\n      0x41\n        /* \"#utility.yul\":103:104   */\n      0x04\n        /* \"#utility.yul\":96:111   */\n      mstore\n        /* \"#utility.yul\":130:134   */\n      0x24\n        /* \"#utility.yul\":127:128   */\n      0x00\n        /* \"#utility.yul\":120:135   */\n      revert\n        /* \"#utility.yul\":146:1068   */\n    tag_14:\n        /* \"#utility.yul\":215:221   */\n      0x00\n        /* \"#utility.yul\":268:270   */\n      0x20\n        /* \"#utility.yul\":256:265   */\n      dup3\n        /* \"#utility.yul\":247:254   */\n      dup5\n        /* \"#utility.yul\":243:266   */\n      sub\n        /* \"#utility.yul\":239:271   */\n      slt\n        /* \"#utility.yul\":236:288   */\n      iszero\n      tag_146\n      jumpi\n        /* \"#utility.yul\":284:285   */\n      0x00\n        /* \"#utility.yul\":281:282   */\n      dup1\n        /* \"#utility.yul\":274:286   */\n      revert\n        /* \"#utility.yul\":236:288   */\n    tag_146:\n        /* \"#utility.yul\":324:333   */\n      dup2\n        /* \"#utility.yul\":311:334   */\n      calldataload\n        /* \"#utility.yul\":353:371   */\n      0xffffffffffffffff\n        /* \"#utility.yul\":394:396   */\n      dup1\n        /* \"#utility.yul\":386:392   */\n      dup3\n        /* \"#utility.yul\":383:397   */\n      gt\n        /* \"#utility.yul\":380:414   */\n      iszero\n      tag_147\n      jumpi\n        /* \"#utility.yul\":410:411   */\n      0x00\n        /* \"#utility.yul\":407:408   */\n      dup1\n        /* \"#utility.yul\":400:412   */\n      revert\n        /* \"#utility.yul\":380:414   */\n    tag_147:\n        /* \"#utility.yul\":448:454   */\n      dup2\n        /* \"#utility.yul\":437:446   */\n      dup5\n        /* \"#utility.yul\":433:455   */\n      add\n        /* \"#utility.yul\":423:455   */\n      swap2\n      pop\n        /* \"#utility.yul\":493:500   */\n      dup5\n        /* \"#utility.yul\":486:490   */\n      0x1f\n        /* \"#utility.yul\":482:484   */\n      dup4\n        /* \"#utility.yul\":478:491   */\n      add\n        /* \"#utility.yul\":474:501   */\n      slt\n        /* \"#utility.yul\":464:519   */\n      tag_148\n      jumpi\n        /* \"#utility.yul\":515:516   */\n      0x00\n        /* \"#utility.yul\":512:513   */\n      dup1\n        /* \"#utility.yul\":505:517   */\n      revert\n        /* \"#utility.yul\":464:519   */\n    tag_148:\n        /* \"#utility.yul\":551:553   */\n      dup2\n        /* \"#utility.yul\":538:554   */\n      calldataload\n        /* \"#utility.yul\":573:575   */\n      dup2\n        /* \"#utility.yul\":569:571   */\n      dup2\n        /* \"#utility.yul\":566:576   */\n      gt\n        /* \"#utility.yul\":563:599   */\n      iszero\n      tag_150\n      jumpi\n        /* \"#utility.yul\":579:597   */\n      tag_150\n      tag_94\n      jump\t// in\n    tag_150:\n        /* \"#utility.yul\":654:656   */\n      0x40\n        /* \"#utility.yul\":648:657   */\n      mload\n        /* \"#utility.yul\":622:624   */\n      0x1f\n        /* \"#utility.yul\":708:721   */\n      dup3\n      add\n      not(0x1f)\n        /* \"#utility.yul\":704:726   */\n      swap1\n      dup2\n      and\n        /* \"#utility.yul\":728:730   */\n      0x3f\n        /* \"#utility.yul\":700:731   */\n      add\n        /* \"#utility.yul\":696:736   */\n      and\n        /* \"#utility.yul\":684:737   */\n      dup2\n      add\n      swap1\n        /* \"#utility.yul\":752:770   */\n      dup4\n      dup3\n      gt\n        /* \"#utility.yul\":772:794   */\n      dup2\n      dup4\n      lt\n        /* \"#utility.yul\":749:795   */\n      or\n        /* \"#utility.yul\":746:818   */\n      iszero\n      tag_152\n      jumpi\n        /* \"#utility.yul\":798:816   */\n      tag_152\n      tag_94\n      jump\t// in\n    tag_152:\n        /* \"#utility.yul\":838:848   */\n      dup2\n        /* \"#utility.yul\":834:836   */\n      0x40\n        /* \"#utility.yul\":827:849   */\n      mstore\n        /* \"#utility.yul\":873:875   */\n      dup3\n        /* \"#utility.yul\":865:871   */\n      dup2\n        /* \"#utility.yul\":858:876   */\n      mstore\n        /* \"#utility.yul\":913:920   */\n      dup8\n        /* \"#utility.yul\":908:910   */\n      0x20\n        /* \"#utility.yul\":903:905   */\n      dup5\n        /* \"#utility.yul\":899:901   */\n      dup8\n        /* \"#utility.yul\":895:906   */\n      add\n        /* \"#utility.yul\":891:911   */\n      add\n        /* \"#utility.yul\":888:921   */\n      gt\n        /* \"#utility.yul\":885:938   */\n      iszero\n      tag_153\n      jumpi\n        /* \"#utility.yul\":934:935   */\n      0x00\n        /* \"#utility.yul\":931:932   */\n      dup1\n        /* \"#utility.yul\":924:936   */\n      revert\n        /* \"#utility.yul\":885:938   */\n    tag_153:\n        /* \"#utility.yul\":990:992   */\n      dup3\n        /* \"#utility.yul\":985:987   */\n      0x20\n        /* \"#utility.yul\":981:983   */\n      dup7\n        /* \"#utility.yul\":977:988   */\n      add\n        /* \"#utility.yul\":972:974   */\n      0x20\n        /* \"#utility.yul\":964:970   */\n      dup4\n        /* \"#utility.yul\":960:975   */\n      add\n        /* \"#utility.yul\":947:993   */\n      calldatacopy\n        /* \"#utility.yul\":1035:1036   */\n      0x00\n        /* \"#utility.yul\":1013:1028   */\n      swap3\n      dup2\n      add\n        /* \"#utility.yul\":1030:1032   */\n      0x20\n        /* \"#utility.yul\":1009:1033   */\n      add\n        /* \"#utility.yul\":1002:1037   */\n      swap3\n      swap1\n      swap3\n      mstore\n      pop\n        /* \"#utility.yul\":1017:1023   */\n      swap6\n        /* \"#utility.yul\":146:1068   */\n      swap5\n      pop\n      pop\n      pop\n      pop\n      pop\n      jump\t// out\n        /* \"#utility.yul\":1073:1414   */\n    tag_18:\n        /* \"#utility.yul\":1138:1144   */\n      0x00\n        /* \"#utility.yul\":1146:1152   */\n      dup1\n        /* \"#utility.yul\":1199:1201   */\n      0x40\n        /* \"#utility.yul\":1187:1196   */\n      dup4\n        /* \"#utility.yul\":1178:1185   */\n      dup6\n        /* \"#utility.yul\":1174:1197   */\n      sub\n        /* \"#utility.yul\":1170:1202   */\n      slt\n        /* \"#utility.yul\":1167:1219   */\n      iszero\n      tag_155\n      jumpi\n        /* \"#utility.yul\":1215:1216   */\n      0x00\n        /* \"#utility.yul\":1212:1213   */\n      dup1\n        /* \"#utility.yul\":1205:1217   */\n      revert\n        /* \"#utility.yul\":1167:1219   */\n    tag_155:\n        /* \"#utility.yul\":1254:1263   */\n      dup3\n        /* \"#utility.yul\":1241:1264   */\n      calldataload\n        /* \"#utility.yul\":1307:1312   */\n      dup1\n        /* \"#utility.yul\":1300:1313   */\n      iszero\n        /* \"#utility.yul\":1293:1314   */\n      iszero\n        /* \"#utility.yul\":1286:1291   */\n      dup2\n        /* \"#utility.yul\":1283:1315   */\n      eq\n        /* \"#utility.yul\":1273:1333   */\n      tag_156\n      jumpi\n        /* \"#utility.yul\":1329:1330   */\n      0x00\n        /* \"#utility.yul\":1326:1327   */\n      dup1\n        /* \"#utility.yul\":1319:1331   */\n      revert\n        /* \"#utility.yul\":1273:1333   */\n    tag_156:\n        /* \"#utility.yul\":1352:1357   */\n      swap5\n        /* \"#utility.yul\":1404:1406   */\n      0x20\n        /* \"#utility.yul\":1389:1407   */\n      swap4\n      swap1\n      swap4\n      add\n        /* \"#utility.yul\":1376:1408   */\n      calldataload\n      swap4\n      pop\n      pop\n      pop\n        /* \"#utility.yul\":1073:1414   */\n      jump\t// out\n        /* \"#utility.yul\":1419:1615   */\n    tag_140:\n        /* \"#utility.yul\":1487:1507   */\n      dup1\n      calldataload\n      sub(shl(0xa0, 0x01), 0x01)\n        /* \"#utility.yul\":1536:1590   */\n      dup2\n      and\n        /* \"#utility.yul\":1526:1591   */\n      dup2\n      eq\n        /* \"#utility.yul\":1516:1609   */\n      tag_158\n      jumpi\n        /* \"#utility.yul\":1605:1606   */\n      0x00\n        /* \"#utility.yul\":1602:1603   */\n      dup1\n        /* \"#utility.yul\":1595:1607   */\n      revert\n        /* \"#utility.yul\":1516:1609   */\n    tag_158:\n        /* \"#utility.yul\":1419:1615   */\n      swap2\n      swap1\n      pop\n      jump\t// out\n        /* \"#utility.yul\":1620:1874   */\n    tag_22:\n        /* \"#utility.yul\":1688:1694   */\n      0x00\n        /* \"#utility.yul\":1696:1702   */\n      dup1\n        /* \"#utility.yul\":1749:1751   */\n      0x40\n        /* \"#utility.yul\":1737:1746   */\n      dup4\n        /* \"#utility.yul\":1728:1735   */\n      dup6\n        /* \"#utility.yul\":1724:1747   */\n      sub\n        /* \"#utility.yul\":1720:1752   */\n      slt\n        /* \"#utility.yul\":1717:1769   */\n      iszero\n      tag_160\n      jumpi\n        /* \"#utility.yul\":1765:1766   */\n      0x00\n        /* \"#utility.yul\":1762:1763   */\n      dup1\n        /* \"#utility.yul\":1755:1767   */\n      revert\n        /* \"#utility.yul\":1717:1769   */\n    tag_160:\n        /* \"#utility.yul\":1788:1817   */\n      tag_156\n        /* \"#utility.yul\":1807:1816   */\n      dup4\n        /* \"#utility.yul\":1788:1817   */\n      tag_140\n      jump\t// in\n        /* \"#utility.yul\":2308:2494   */\n    tag_32:\n        /* \"#utility.yul\":2367:2373   */\n      0x00\n        /* \"#utility.yul\":2420:2422   */\n      0x20\n        /* \"#utility.yul\":2408:2417   */\n      dup3\n        /* \"#utility.yul\":2399:2406   */\n      dup5\n        /* \"#utility.yul\":2395:2418   */\n      sub\n        /* \"#utility.yul\":2391:2423   */\n      slt\n        /* \"#utility.yul\":2388:2440   */\n      iszero\n      tag_165\n      jumpi\n        /* \"#utility.yul\":2436:2437   */\n      0x00\n        /* \"#utility.yul\":2433:2434   */\n      dup1\n        /* \"#utility.yul\":2426:2438   */\n      revert\n        /* \"#utility.yul\":2388:2440   */\n    tag_165:\n        /* \"#utility.yul\":2459:2488   */\n      tag_166\n        /* \"#utility.yul\":2478:2487   */\n      dup3\n        /* \"#utility.yul\":2459:2488   */\n      tag_140\n      jump\t// in\n    tag_166:\n        /* \"#utility.yul\":2449:2488   */\n      swap4\n        /* \"#utility.yul\":2308:2494   */\n      swap3\n      pop\n      pop\n      pop\n      jump\t// out\n        /* \"#utility.yul\":2631:4338   */\n    tag_38:\n        /* \"#utility.yul\":2823:2827   */\n      0x00\n        /* \"#utility.yul\":2852:2854   */\n      0x20\n        /* \"#utility.yul\":2892:2894   */\n      dup1\n        /* \"#utility.yul\":2881:2890   */\n      dup4\n        /* \"#utility.yul\":2877:2895   */\n      add\n        /* \"#utility.yul\":2922:2924   */\n      dup2\n        /* \"#utility.yul\":2911:2920   */\n      dup5\n        /* \"#utility.yul\":2904:2925   */\n      mstore\n        /* \"#utility.yul\":2945:2951   */\n      dup1\n        /* \"#utility.yul\":2980:2986   */\n      dup6\n        /* \"#utility.yul\":2974:2987   */\n      mload\n        /* \"#utility.yul\":3011:3017   */\n      dup1\n        /* \"#utility.yul\":3003:3009   */\n      dup4\n        /* \"#utility.yul\":2996:3018   */\n      mstore\n        /* \"#utility.yul\":3037:3039   */\n      0x40\n        /* \"#utility.yul\":3027:3039   */\n      swap3\n      pop\n        /* \"#utility.yul\":3070:3072   */\n      dup3\n        /* \"#utility.yul\":3059:3068   */\n      dup7\n        /* \"#utility.yul\":3055:3073   */\n      add\n        /* \"#utility.yul\":3048:3073   */\n      swap2\n      pop\n        /* \"#utility.yul\":3132:3134   */\n      dup3\n        /* \"#utility.yul\":3122:3128   */\n      dup2\n        /* \"#utility.yul\":3119:3120   */\n      0x05\n        /* \"#utility.yul\":3115:3129   */\n      shl\n        /* \"#utility.yul\":3104:3113   */\n      dup8\n        /* \"#utility.yul\":3100:3130   */\n      add\n        /* \"#utility.yul\":3096:3135   */\n      add\n        /* \"#utility.yul\":3170:3172   */\n      dup5\n        /* \"#utility.yul\":3162:3168   */\n      dup9\n        /* \"#utility.yul\":3158:3173   */\n      add\n        /* \"#utility.yul\":3191:3192   */\n      0x00\n        /* \"#utility.yul\":3212:3213   */\n      dup1\n        /* \"#utility.yul\":3222:4309   */\n    tag_169:\n        /* \"#utility.yul\":3238:3244   */\n      dup5\n        /* \"#utility.yul\":3233:3236   */\n      dup2\n        /* \"#utility.yul\":3230:3245   */\n      lt\n        /* \"#utility.yul\":3222:4309   */\n      iszero\n      tag_171\n      jumpi\n        /* \"#utility.yul\":3335:3337   */\n      0x3f\n        /* \"#utility.yul\":3331:3338   */\n      not\n        /* \"#utility.yul\":3319:3328   */\n      dup11\n        /* \"#utility.yul\":3311:3317   */\n      dup6\n        /* \"#utility.yul\":3307:3329   */\n      sub\n        /* \"#utility.yul\":3303:3339   */\n      add\n        /* \"#utility.yul\":3298:3301   */\n      dup7\n        /* \"#utility.yul\":3291:3340   */\n      mstore\n        /* \"#utility.yul\":3369:3375   */\n      dup3\n        /* \"#utility.yul\":3363:3376   */\n      mload\n        /* \"#utility.yul\":3399:3403   */\n      0x80\n        /* \"#utility.yul\":3442:3444   */\n      dup2\n        /* \"#utility.yul\":3436:3445   */\n      mload\n        /* \"#utility.yul\":3473:3475   */\n      dup2\n        /* \"#utility.yul\":3465:3471   */\n      dup8\n        /* \"#utility.yul\":3458:3476   */\n      mstore\n        /* \"#utility.yul\":3511:3523   */\n      dup1\n        /* \"#utility.yul\":3505:3524   */\n      mload\n        /* \"#utility.yul\":3561:3569   */\n      dup1\n        /* \"#utility.yul\":3556:3558   */\n      dup4\n        /* \"#utility.yul\":3548:3554   */\n      dup10\n        /* \"#utility.yul\":3544:3559   */\n      add\n        /* \"#utility.yul\":3537:3570   */\n      mstore\n        /* \"#utility.yul\":3594:3595   */\n      dup6\n        /* \"#utility.yul\":3583:3595   */\n      swap3\n      pop\n        /* \"#utility.yul\":3608:3776   */\n    tag_172:\n        /* \"#utility.yul\":3624:3632   */\n      dup1\n        /* \"#utility.yul\":3619:3622   */\n      dup4\n        /* \"#utility.yul\":3616:3633   */\n      lt\n        /* \"#utility.yul\":3608:3776   */\n      iszero\n      tag_174\n      jumpi\n        /* \"#utility.yul\":3733:3755   */\n      dup2\n      dup4\n      add\n        /* \"#utility.yul\":3729:3760   */\n      dup13\n      add\n        /* \"#utility.yul\":3723:3761   */\n      mload\n        /* \"#utility.yul\":3699:3715   */\n      dup9\n      dup5\n      add\n        /* \"#utility.yul\":3717:3720   */\n      0xa0\n        /* \"#utility.yul\":3695:3721   */\n      add\n        /* \"#utility.yul\":3688:3762   */\n      mstore\n        /* \"#utility.yul\":3643:3655   */\n      swap2\n      dup12\n      add\n      swap2\n        /* \"#utility.yul\":3608:3776   */\n      jump(tag_172)\n    tag_174:\n        /* \"#utility.yul\":3800:3808   */\n      dup1\n        /* \"#utility.yul\":3795:3798   */\n      dup4\n        /* \"#utility.yul\":3792:3809   */\n      gt\n        /* \"#utility.yul\":3789:3896   */\n      iszero\n      tag_175\n      jumpi\n        /* \"#utility.yul\":3880:3881   */\n      dup6\n        /* \"#utility.yul\":3874:3877   */\n      0xa0\n        /* \"#utility.yul\":3863:3871   */\n      dup3\n        /* \"#utility.yul\":3855:3861   */\n      dup11\n        /* \"#utility.yul\":3851:3872   */\n      add\n        /* \"#utility.yul\":3847:3878   */\n      add\n        /* \"#utility.yul\":3840:3882   */\n      mstore\n        /* \"#utility.yul\":3789:3896   */\n    tag_175:\n        /* \"#utility.yul\":3939:3950   */\n      dup12\n      dup5\n      add\n        /* \"#utility.yul\":3933:3951   */\n      mload\n        /* \"#utility.yul\":3916:3931   */\n      dup9\n      dup14\n      add\n        /* \"#utility.yul\":3909:3952   */\n      mstore\n        /* \"#utility.yul\":3995:4006   */\n      dup11\n      dup5\n      add\n        /* \"#utility.yul\":3989:4007   */\n      mload\n        /* \"#utility.yul\":3972:3987   */\n      dup12\n      dup10\n      add\n        /* \"#utility.yul\":3965:4008   */\n      mstore\n        /* \"#utility.yul\":4031:4035   */\n      0x60\n        /* \"#utility.yul\":4076:4087   */\n      swap4\n      dup5\n      add\n        /* \"#utility.yul\":4070:4088   */\n      mload\n      sub(shl(0xa0, 0x01), 0x01)\n        /* \"#utility.yul\":2565:2619   */\n      dup2\n      and\n        /* \"#utility.yul\":4136:4151   */\n      dup6\n      dup11\n      add\n        /* \"#utility.yul\":2553:2620   */\n      mstore\n        /* \"#utility.yul\":4070:4088   */\n      swap4\n        /* \"#utility.yul\":4031:4035   */\n      swap3\n      pop\n        /* \"#utility.yul\":4287:4299   */\n      swap9\n      dup12\n      add\n      swap9\n        /* \"#utility.yul\":4218:4220   */\n      0x1f\n        /* \"#utility.yul\":4195:4212   */\n      add\n      not(0x1f)\n        /* \"#utility.yul\":4191:4222   */\n      and\n        /* \"#utility.yul\":4179:4223   */\n      swap7\n      swap1\n      swap7\n      add\n        /* \"#utility.yul\":4225:4228   */\n      0xa0\n        /* \"#utility.yul\":4175:4229   */\n      add\n      swap6\n      pop\n      pop\n      pop\n        /* \"#utility.yul\":4252:4267   */\n      swap2\n      dup8\n      add\n      swap2\n        /* \"#utility.yul\":3264:3265   */\n      0x01\n        /* \"#utility.yul\":3255:3266   */\n      add\n        /* \"#utility.yul\":3222:4309   */\n      jump(tag_169)\n    tag_171:\n      pop\n        /* \"#utility.yul\":4326:4332   */\n      swap2\n      swap10\n        /* \"#utility.yul\":2631:4338   */\n      swap9\n      pop\n      pop\n      pop\n      pop\n      pop\n      pop\n      pop\n      pop\n      pop\n      jump\t// out\n        /* \"#utility.yul\":4343:4597   */\n    tag_41:\n        /* \"#utility.yul\":4411:4417   */\n      0x00\n        /* \"#utility.yul\":4419:4425   */\n      dup1\n        /* \"#utility.yul\":4472:4474   */\n      0x40\n        /* \"#utility.yul\":4460:4469   */\n      dup4\n        /* \"#utility.yul\":4451:4458   */\n      dup6\n        /* \"#utility.yul\":4447:4470   */\n      sub\n        /* \"#utility.yul\":4443:4475   */\n      slt\n        /* \"#utility.yul\":4440:4492   */\n      iszero\n      tag_178\n      jumpi\n        /* \"#utility.yul\":4488:4489   */\n      0x00\n        /* \"#utility.yul\":4485:4486   */\n      dup1\n        /* \"#utility.yul\":4478:4490   */\n      revert\n        /* \"#utility.yul\":4440:4492   */\n    tag_178:\n        /* \"#utility.yul\":4524:4533   */\n      dup3\n        /* \"#utility.yul\":4511:4534   */\n      calldataload\n        /* \"#utility.yul\":4501:4534   */\n      swap2\n      pop\n        /* \"#utility.yul\":4553:4591   */\n      tag_179\n        /* \"#utility.yul\":4587:4589   */\n      0x20\n        /* \"#utility.yul\":4576:4585   */\n      dup5\n        /* \"#utility.yul\":4572:4590   */\n      add\n        /* \"#utility.yul\":4553:4591   */\n      tag_140\n      jump\t// in\n    tag_179:\n        /* \"#utility.yul\":4543:4591   */\n      swap1\n      pop\n        /* \"#utility.yul\":4343:4597   */\n      swap3\n      pop\n      swap3\n      swap1\n      pop\n      jump\t// out\n        /* \"#utility.yul\":5039:5166   */\n    tag_62:\n        /* \"#utility.yul\":5100:5110   */\n      0x4e487b71\n        /* \"#utility.yul\":5095:5098   */\n      0xe0\n        /* \"#utility.yul\":5091:5111   */\n      shl\n        /* \"#utility.yul\":5088:5089   */\n      0x00\n        /* \"#utility.yul\":5081:5112   */\n      mstore\n        /* \"#utility.yul\":5131:5135   */\n      0x32\n        /* \"#utility.yul\":5128:5129   */\n      0x04\n        /* \"#utility.yul\":5121:5136   */\n      mstore\n        /* \"#utility.yul\":5155:5159   */\n      0x24\n        /* \"#utility.yul\":5152:5153   */\n      0x00\n        /* \"#utility.yul\":5145:5160   */\n      revert\n        /* \"#utility.yul\":5171:5298   */\n    tag_142:\n        /* \"#utility.yul\":5232:5242   */\n      0x4e487b71\n        /* \"#utility.yul\":5227:5230   */\n      0xe0\n        /* \"#utility.yul\":5223:5243   */\n      shl\n        /* \"#utility.yul\":5220:5221   */\n      0x00\n        /* \"#utility.yul\":5213:5244   */\n      mstore\n        /* \"#utility.yul\":5263:5267   */\n      0x11\n        /* \"#utility.yul\":5260:5261   */\n      0x04\n        /* \"#utility.yul\":5253:5268   */\n      mstore\n        /* \"#utility.yul\":5287:5291   */\n      0x24\n        /* \"#utility.yul\":5284:5285   */\n      0x00\n        /* \"#utility.yul\":5277:5292   */\n      revert\n        /* \"#utility.yul\":5303:5431   */\n    tag_65:\n        /* \"#utility.yul\":5343:5346   */\n      0x00\n        /* \"#utility.yul\":5374:5375   */\n      dup3\n        /* \"#utility.yul\":5370:5376   */\n      not\n        /* \"#utility.yul\":5367:5368   */\n      dup3\n        /* \"#utility.yul\":5364:5377   */\n      gt\n        /* \"#utility.yul\":5361:5400   */\n      iszero\n      tag_186\n      jumpi\n        /* \"#utility.yul\":5380:5398   */\n      tag_186\n      tag_142\n      jump\t// in\n    tag_186:\n      pop\n        /* \"#utility.yul\":5416:5425   */\n      add\n      swap1\n        /* \"#utility.yul\":5303:5431   */\n      jump\t// out\n        /* \"#utility.yul\":5667:5851   */\n    tag_80:\n        /* \"#utility.yul\":5737:5743   */\n      0x00\n        /* \"#utility.yul\":5790:5792   */\n      0x20\n        /* \"#utility.yul\":5778:5787   */\n      dup3\n        /* \"#utility.yul\":5769:5776   */\n      dup5\n        /* \"#utility.yul\":5765:5788   */\n      sub\n        /* \"#utility.yul\":5761:5793   */\n      slt\n        /* \"#utility.yul\":5758:5810   */\n      iszero\n      tag_189\n      jumpi\n        /* \"#utility.yul\":5806:5807   */\n      0x00\n        /* \"#utility.yul\":5803:5804   */\n      dup1\n        /* \"#utility.yul\":5796:5808   */\n      revert\n        /* \"#utility.yul\":5758:5810   */\n    tag_189:\n      pop\n        /* \"#utility.yul\":5829:5845   */\n      mload\n      swap2\n        /* \"#utility.yul\":5667:5851   */\n      swap1\n      pop\n      jump\t// out\n        /* \"#utility.yul\":5856:6024   */\n    tag_82:\n        /* \"#utility.yul\":5896:5903   */\n      0x00\n        /* \"#utility.yul\":5962:5963   */\n      dup2\n        /* \"#utility.yul\":5958:5959   */\n      0x00\n        /* \"#utility.yul\":5954:5960   */\n      not\n        /* \"#utility.yul\":5950:5964   */\n      div\n        /* \"#utility.yul\":5947:5948   */\n      dup4\n        /* \"#utility.yul\":5944:5965   */\n      gt\n        /* \"#utility.yul\":5939:5940   */\n      dup3\n        /* \"#utility.yul\":5932:5941   */\n      iszero\n        /* \"#utility.yul\":5925:5942   */\n      iszero\n        /* \"#utility.yul\":5921:5966   */\n      and\n        /* \"#utility.yul\":5918:5989   */\n      iszero\n      tag_192\n      jumpi\n        /* \"#utility.yul\":5969:5987   */\n      tag_192\n      tag_142\n      jump\t// in\n    tag_192:\n      pop\n        /* \"#utility.yul\":6009:6018   */\n      mul\n      swap1\n        /* \"#utility.yul\":5856:6024   */\n      jump\t// out\n        /* \"#utility.yul\":6029:6246   */\n    tag_89:\n        /* \"#utility.yul\":6069:6070   */\n      0x00\n        /* \"#utility.yul\":6095:6096   */\n      dup3\n        /* \"#utility.yul\":6085:6217   */\n      tag_194\n      jumpi\n        /* \"#utility.yul\":6139:6149   */\n      0x4e487b71\n        /* \"#utility.yul\":6134:6137   */\n      0xe0\n        /* \"#utility.yul\":6130:6150   */\n      shl\n        /* \"#utility.yul\":6127:6128   */\n      0x00\n        /* \"#utility.yul\":6120:6151   */\n      mstore\n        /* \"#utility.yul\":6174:6178   */\n      0x12\n        /* \"#utility.yul\":6171:6172   */\n      0x04\n        /* \"#utility.yul\":6164:6179   */\n      mstore\n        /* \"#utility.yul\":6202:6206   */\n      0x24\n        /* \"#utility.yul\":6199:6200   */\n      0x00\n        /* \"#utility.yul\":6192:6207   */\n      revert\n        /* \"#utility.yul\":6085:6217   */\n    tag_194:\n      pop\n        /* \"#utility.yul\":6231:6240   */\n      div\n      swap1\n        /* \"#utility.yul\":6029:6246   */\n      jump\t// out\n        /* \"#utility.yul\":6251:6631   */\n    tag_112:\n        /* \"#utility.yul\":6330:6331   */\n      0x01\n        /* \"#utility.yul\":6326:6338   */\n      dup2\n      dup2\n      shr\n      swap1\n        /* \"#utility.yul\":6373:6385   */\n      dup3\n      and\n      dup1\n        /* \"#utility.yul\":6394:6455   */\n      tag_196\n      jumpi\n        /* \"#utility.yul\":6448:6452   */\n      0x7f\n        /* \"#utility.yul\":6440:6446   */\n      dup3\n        /* \"#utility.yul\":6436:6453   */\n      and\n        /* \"#utility.yul\":6426:6453   */\n      swap2\n      pop\n        /* \"#utility.yul\":6394:6455   */\n    tag_196:\n        /* \"#utility.yul\":6501:6503   */\n      0x20\n        /* \"#utility.yul\":6493:6499   */\n      dup3\n        /* \"#utility.yul\":6490:6504   */\n      lt\n        /* \"#utility.yul\":6470:6488   */\n      dup2\n        /* \"#utility.yul\":6467:6505   */\n      sub\n        /* \"#utility.yul\":6464:6625   */\n      tag_106\n      jumpi\n        /* \"#utility.yul\":6547:6557   */\n      0x4e487b71\n        /* \"#utility.yul\":6542:6545   */\n      0xe0\n        /* \"#utility.yul\":6538:6558   */\n      shl\n        /* \"#utility.yul\":6535:6536   */\n      0x00\n        /* \"#utility.yul\":6528:6559   */\n      mstore\n        /* \"#utility.yul\":6582:6586   */\n      0x22\n        /* \"#utility.yul\":6579:6580   */\n      0x04\n        /* \"#utility.yul\":6572:6587   */\n      mstore\n        /* \"#utility.yul\":6610:6614   */\n      0x24\n        /* \"#utility.yul\":6607:6608   */\n      0x00\n        /* \"#utility.yul\":6600:6615   */\n      revert\n        /* \"#utility.yul\":6636:6771   */\n    tag_120:\n        /* \"#utility.yul\":6675:6678   */\n      0x00\n        /* \"#utility.yul\":6696:6713   */\n      0x01\n      dup3\n      add\n        /* \"#utility.yul\":6693:6736   */\n      tag_200\n      jumpi\n        /* \"#utility.yul\":6716:6734   */\n      tag_200\n      tag_142\n      jump\t// in\n    tag_200:\n      pop\n        /* \"#utility.yul\":6763:6764   */\n      0x01\n        /* \"#utility.yul\":6752:6765   */\n      add\n      swap1\n        /* \"#utility.yul\":6636:6771   */\n      jump\t// out\n\n    auxdata: 0xa2646970667358221220148f09540380220e860ea95b917e9314bd5cc12e944d230d7f475a23ede59acf64736f6c634300080d0033\n}\n",
    "bytecode": {
      "linkReferences": {},
      "object": "60c06040526064600155600a60025534801561001a57600080fd5b50604051610c42380380610c428339810160408190526100399161006d565b60016000556001600160a01b0391821660a052166080526100a7565b6001600160a01b038116811461006a57600080fd5b50565b6000806040838503121561008057600080fd5b825161008b81610055565b602084015190925061009c81610055565b809150509250929050565b60805160a051610b696100d96000396000818160e0015261037e01526000818161016a01526104220152610b696000f3fe608060405234801561001057600080fd5b50600436106100885760003560e01c8063bb4d44361161005b578063bb4d44361461011a578063cceb68f51461012d578063cdb2867b14610142578063d1af0c7d1461016557600080fd5b80632fdae3c51461008d5780633f2fa030146100a257806342545825146100b55780636588103b146100db575b600080fd5b6100a061009b36600461080c565b61018c565b005b6100a06100b03660046108bd565b610263565b6100c86100c336600461090a565b610327565b6040519081526020015b60405180910390f35b6101027f000000000000000000000000000000000000000000000000000000000000000081565b6040516001600160a01b0390911681526020016100d2565b6100c8610128366004610926565b610358565b6101356104b3565b6040516100d29190610948565b610155610150366004610a1c565b6106d6565b60405190151581526020016100d2565b6101027f000000000000000000000000000000000000000000000000000000000000000081565b600061019733610358565b116101a157600080fd5b604080516080810182528281526000602080830182905292820181905233606083015260038054600181018255915281518051929360049092027fc2575a0e9e593c00f959f8c92f12db2869c3395a3b0502d05e2516446f71f85b019261020b928492019061075d565b506020820151600182015560408201516002820155606090910151600390910180547fffffffffffffffffffffffff0000000000000000000000000000000000000000166001600160a01b0390921691909117905550565b61026d81336106d6565b61027657600080fd5b600061028133610358565b9050826102c757806003838154811061029c5761029c610a48565b906000526020600020906004020160020160008282546102bc9190610a74565b925050819055610302565b80600383815481106102db576102db610a48565b906000526020600020906004020160010160008282546102fb9190610a74565b9250508190555b5050336000908152600460209081526040822080546001810182559083529120015550565b6004602052816000526040600020818154811061034357600080fd5b90600052602060002001600091509150505481565b6001546040516370a0823160e01b81526001600160a01b038381166004830152600092917f0000000000000000000000000000000000000000000000000000000000000000909116906370a0823190602401602060405180830381865afa1580156103c7573d6000803e3d6000fd5b505050506040513d601f19601f820116820180604052508101906103eb9190610a8c565b6103f59190610aa5565b6002546040516370a0823160e01b81526001600160a01b038581166004830152670de0b6b3a764000092917f0000000000000000000000000000000000000000000000000000000000000000909116906370a0823190602401602060405180830381865afa15801561046b573d6000803e3d6000fd5b505050506040513d601f19601f8201168201806040525081019061048f9190610a8c565b6104999190610aa5565b6104a39190610ac4565b6104ad9190610a74565b92915050565b60035460609060009067ffffffffffffffff8111156104d4576104d46107f6565b60405190808252806020026020018201604052801561053957816020015b610526604051806080016040528060608152602001600081526020016000815260200160006001600160a01b031681525090565b8152602001906001900390816104f25790505b506003549091506000036105ab5760408051600080825260208201909252906105a4565b610591604051806080016040528060608152602001600081526020016000815260200160006001600160a01b031681525090565b81526020019060019003908161055d5790505b5091505090565b60005b6003548110156106d057600381815481106105cb576105cb610a48565b90600052602060002090600402016040518060800160405290816000820180546105f490610ae6565b80601f016020809104026020016040519081016040528092919081815260200182805461062090610ae6565b801561066d5780601f106106425761010080835404028352916020019161066d565b820191906000526020600020905b81548152906001019060200180831161065057829003601f168201915b505050918352505060018201546020820152600282015460408201526003909101546001600160a01b031660609091015282518390839081106106b2576106b2610a48565b602002602001018190525080806106c890610b1a565b9150506105ae565b50919050565b6000805b6001600160a01b038316600090815260046020526040902054811015610753576001600160a01b038316600090815260046020526040902080548591908390811061072757610727610a48565b9060005260206000200154036107415760009150506104ad565b8061074b81610b1a565b9150506106da565b5060019392505050565b82805461076990610ae6565b90600052602060002090601f01602090048101928261078b57600085556107d1565b82601f106107a457805160ff19168380011785556107d1565b828001600101855582156107d1579182015b828111156107d15782518255916020019190600101906107b6565b506107dd9291506107e1565b5090565b5b808211156107dd57600081556001016107e2565b634e487b7160e01b600052604160045260246000fd5b60006020828403121561081e57600080fd5b813567ffffffffffffffff8082111561083657600080fd5b818401915084601f83011261084a57600080fd5b81358181111561085c5761085c6107f6565b604051601f8201601f19908116603f01168101908382118183101715610884576108846107f6565b8160405282815287602084870101111561089d57600080fd5b826020860160208301376000928101602001929092525095945050505050565b600080604083850312156108d057600080fd5b823580151581146108e057600080fd5b946020939093013593505050565b80356001600160a01b038116811461090557600080fd5b919050565b6000806040838503121561091d57600080fd5b6108e0836108ee565b60006020828403121561093857600080fd5b610941826108ee565b9392505050565b60006020808301818452808551808352604092508286019150828160051b8701018488016000805b84811015610a0d57603f198a8503018652825160808151818752805180838901528592505b808310156109b3578183018c015188840160a00152918b0191610995565b808311156109c4578560a0828a0101525b8b840151888d01528a8401518b8901526060938401516001600160a01b038116858a0152939250988b0198601f01601f19169690960160a0019550505091870191600101610970565b50919998505050505050505050565b60008060408385031215610a2f57600080fd5b82359150610a3f602084016108ee565b90509250929050565b634e487b7160e01b600052603260045260246000fd5b634e487b7160e01b600052601160045260246000fd5b60008219821115610a8757610a87610a5e565b500190565b600060208284031215610a9e57600080fd5b5051919050565b6000816000190483118215151615610abf57610abf610a5e565b500290565b600082610ae157634e487b7160e01b600052601260045260246000fd5b500490565b600181811c90821680610afa57607f821691505b6020821081036106d057634e487b7160e01b600052602260045260246000fd5b600060018201610b2c57610b2c610a5e565b506001019056fea2646970667358221220148f09540380220e860ea95b917e9314bd5cc12e944d230d7f475a23ede59acf64736f6c634300080d0033",
      "opcodes": "PUSH1 0xC0 PUSH1 0x40 MSTORE PUSH1 0x64 PUSH1 0x1 SSTORE PUSH1 0xA PUSH1 0x2 SSTORE CALLVALUE DUP1 ISZERO PUSH2 0x1A JUMPI PUSH1 0x0 DUP1 REVERT JUMPDEST POP PUSH1 0x40 MLOAD PUSH2 0xC42 CODESIZE SUB DUP1 PUSH2 0xC42 DUP4 CODECOPY DUP2 ADD PUSH1 0x40 DUP2 SWAP1 MSTORE PUSH2 0x39 SWAP2 PUSH2 0x6D JUMP JUMPDEST PUSH1 0x1 PUSH1 0x0 SSTORE PUSH1 0x1 PUSH1 0x1 PUSH1 0xA0 SHL SUB SWAP2 DUP3 AND PUSH1 0xA0 MSTORE AND PUSH1 0x80 MSTORE PUSH2 0xA7 JUMP JUMPDEST PUSH1 0x1 PUSH1 0x1 PUSH1 0xA0 SHL SUB DUP2 AND DUP2 EQ PUSH2 0x6A JUMPI PUSH1 0x0 DUP1 REVERT JUMPDEST POP JUMP JUMPDEST PUSH1 0x0 DUP1 PUSH1 0x40 DUP4 DUP6 SUB SLT ISZERO PUSH2 0x80 JUMPI PUSH1 0x0 DUP1 REVERT JUMPDEST DUP3 MLOAD PUSH2 0x8B DUP2 PUSH2 0x55 JUMP JUMPDEST PUSH1 0x20 DUP5 ADD MLOAD SWAP1 SWAP3 POP PUSH2 0x9C DUP2 PUSH2 0x55 JUMP JUMPDEST DUP1 SWAP2 POP POP SWAP3 POP SWAP3 SWAP1 POP JUMP JUMPDEST PUSH1 0x80 MLOAD PUSH1 0xA0 MLOAD PUSH2 0xB69 PUSH2 0xD9 PUSH1 0x0 CODECOPY PUSH1 0x0 DUP2 DUP2 PUSH1 0xE0 ADD MSTORE PUSH2 0x37E ADD MSTORE PUSH1 0x0 DUP2 DUP2 PUSH2 0x16A ADD MSTORE PUSH2 0x422 ADD MSTORE PUSH2 0xB69 PUSH1 0x0 RETURN INVALID PUSH1 0x80 PUSH1 0x40 MSTORE CALLVALUE DUP1 ISZERO PUSH2 0x10 JUMPI PUSH1 0x0 DUP1 REVERT JUMPDEST POP PUSH1 0x4 CALLDATASIZE LT PUSH2 0x88 JUMPI PUSH1 0x0 CALLDATALOAD PUSH1 0xE0 SHR DUP1 PUSH4 0xBB4D4436 GT PUSH2 0x5B JUMPI DUP1 PUSH4 0xBB4D4436 EQ PUSH2 0x11A JUMPI DUP1 PUSH4 0xCCEB68F5 EQ PUSH2 0x12D JUMPI DUP1 PUSH4 0xCDB2867B EQ PUSH2 0x142 JUMPI DUP1 PUSH4 0xD1AF0C7D EQ PUSH2 0x165 JUMPI PUSH1 0x0 DUP1 REVERT JUMPDEST DUP1 PUSH4 0x2FDAE3C5 EQ PUSH2 0x8D JUMPI DUP1 PUSH4 0x3F2FA030 EQ PUSH2 0xA2 JUMPI DUP1 PUSH4 0x42545825 EQ PUSH2 0xB5 JUMPI DUP1 PUSH4 0x6588103B EQ PUSH2 0xDB JUMPI JUMPDEST PUSH1 0x0 DUP1 REVERT JUMPDEST PUSH2 0xA0 PUSH2 0x9B CALLDATASIZE PUSH1 0x4 PUSH2 0x80C JUMP JUMPDEST PUSH2 0x18C JUMP JUMPDEST STOP JUMPDEST PUSH2 0xA0 PUSH2 0xB0 CALLDATASIZE PUSH1 0x4 PUSH2 0x8BD JUMP JUMPDEST PUSH2 0x263 JUMP JUMPDEST PUSH2 0xC8 PUSH2 0xC3 CALLDATASIZE PUSH1 0x4 PUSH2 0x90A JUMP JUMPDEST PUSH2 0x327 JUMP JUMPDEST PUSH1 0x40 MLOAD SWAP1 DUP2 MSTORE PUSH1 0x20 ADD JUMPDEST PUSH1 0x40 MLOAD DUP1 SWAP2 SUB SWAP1 RETURN JUMPDEST PUSH2 0x102 PUSH32 0x0 DUP2 JUMP JUMPDEST PUSH1 0x40 MLOAD PUSH1 0x1 PUSH1 0x1 PUSH1 0xA0 SHL SUB SWAP1 SWAP2 AND DUP2 MSTORE PUSH1 0x20 ADD PUSH2 0xD2 JUMP JUMPDEST PUSH2 0xC8 PUSH2 0x128 CALLDATASIZE PUSH1 0x4 PUSH2 0x926 JUMP JUMPDEST PUSH2 0x358 JUMP JUMPDEST PUSH2 0x135 PUSH2 0x4B3 JUMP JUMPDEST PUSH1 0x40 MLOAD PUSH2 0xD2 SWAP2 SWAP1 PUSH2 0x948 JUMP JUMPDEST PUSH2 0x155 PUSH2 0x150 CALLDATASIZE PUSH1 0x4 PUSH2 0xA1C JUMP JUMPDEST PUSH2 0x6D6 JUMP JUMPDEST PUSH1 0x40 MLOAD SWAP1 ISZERO ISZERO DUP2 MSTORE PUSH1 0x20 ADD PUSH2 0xD2 JUMP JUMPDEST PUSH2 0x102 PUSH32 0x0 DUP2 JUMP JUMPDEST PUSH1 0x0 PUSH2 0x197 CALLER PUSH2 0x358 JUMP JUMPDEST GT PUSH2 0x1A1 JUMPI PUSH1 0x0 DUP1 REVERT JUMPDEST PUSH1 0x40 DUP1 MLOAD PUSH1 0x80 DUP2 ADD DUP3 MSTORE DUP3 DUP2 MSTORE PUSH1 0x0 PUSH1 0x20 DUP1 DUP4 ADD DUP3 SWAP1 MSTORE SWAP3 DUP3 ADD DUP2 SWAP1 MSTORE CALLER PUSH1 0x60 DUP4 ADD MSTORE PUSH1 0x3 DUP1 SLOAD PUSH1 0x1 DUP2 ADD DUP3 SSTORE SWAP2 MSTORE DUP2 MLOAD DUP1 MLOAD SWAP3 SWAP4 PUSH1 0x4 SWAP1 SWAP3 MUL PUSH32 0xC2575A0E9E593C00F959F8C92F12DB2869C3395A3B0502D05E2516446F71F85B ADD SWAP3 PUSH2 0x20B SWAP3 DUP5 SWAP3 ADD SWAP1 PUSH2 0x75D JUMP JUMPDEST POP PUSH1 0x20 DUP3 ADD MLOAD PUSH1 0x1 DUP3 ADD SSTORE PUSH1 0x40 DUP3 ADD MLOAD PUSH1 0x2 DUP3 ADD SSTORE PUSH1 0x60 SWAP1 SWAP2 ADD MLOAD PUSH1 0x3 SWAP1 SWAP2 ADD DUP1 SLOAD PUSH32 0xFFFFFFFFFFFFFFFFFFFFFFFF0000000000000000000000000000000000000000 AND PUSH1 0x1 PUSH1 0x1 PUSH1 0xA0 SHL SUB SWAP1 SWAP3 AND SWAP2 SWAP1 SWAP2 OR SWAP1 SSTORE POP JUMP JUMPDEST PUSH2 0x26D DUP2 CALLER PUSH2 0x6D6 JUMP JUMPDEST PUSH2 0x276 JUMPI PUSH1 0x0 DUP1 REVERT JUMPDEST PUSH1 0x0 PUSH2 0x281 CALLER PUSH2 0x358 JUMP JUMPDEST SWAP1 POP DUP3 PUSH2 0x2C7 JUMPI DUP1 PUSH1 0x3 DUP4 DUP2 SLOAD DUP2 LT PUSH2 0x29C JUMPI PUSH2 0x29C PUSH2 0xA48 JUMP JUMPDEST SWAP1 PUSH1 0x0 MSTORE PUSH1 0x20 PUSH1 0x0 KECCAK256 SWAP1 PUSH1 0x4 MUL ADD PUSH1 0x2 ADD PUSH1 0x0 DUP3 DUP3 SLOAD PUSH2 0x2BC SWAP2 SWAP1 PUSH2 0xA74 JUMP JUMPDEST SWAP3 POP POP DUP2 SWAP1 SSTORE PUSH2 0x302 JUMP JUMPDEST DUP1 PUSH1 0x3 DUP4 DUP2 SLOAD DUP2 LT PUSH2 0x2DB JUMPI PUSH2 0x2DB PUSH2 0xA48 JUMP JUMPDEST SWAP1 PUSH1 0x0 MSTORE PUSH1 0x20 PUSH1 0x0 KECCAK256 SWAP1 PUSH1 0x4 MUL ADD PUSH1 0x1 ADD PUSH1 0x0 DUP3 DUP3 SLOAD PUSH2 0x2FB SWAP2 SWAP1 PUSH2 0xA74 JUMP JUMPDEST SWAP3 POP POP DUP2 SWAP1 SSTORE JUMPDEST POP POP CALLER PUSH1 0x0 SWAP1 DUP2 MSTORE PUSH1 0x4 PUSH1 0x20 SWAP1 DUP2 MSTORE PUSH1 0x40 DUP3 KECCAK256 DUP1 SLOAD PUSH1 0x1 DUP2 ADD DUP3 SSTORE SWAP1 DUP4 MSTORE SWAP2 KECCAK256 ADD SSTORE POP JUMP JUMPDEST PUSH1 0x4 PUSH1 0x20 MSTORE DUP2 PUSH1 0x0 MSTORE PUSH1 0x40 PUSH1 0x0 KECCAK256 DUP2 DUP2 SLOAD DUP2 LT PUSH2 0x343 JUMPI PUSH1 0x0 DUP1 REVERT JUMPDEST SWAP1 PUSH1 0x0 MSTORE PUSH1 0x20 PUSH1 0x0 KECCAK256 ADD PUSH1 0x0 SWAP2 POP SWAP2 POP POP SLOAD DUP2 JUMP JUMPDEST PUSH1 0x1 SLOAD PUSH1 0x40 MLOAD PUSH4 0x70A08231 PUSH1 0xE0 SHL DUP2 MSTORE PUSH1 0x1 PUSH1 0x1 PUSH1 0xA0 SHL SUB DUP4 DUP2 AND PUSH1 0x4 DUP4 ADD MSTORE PUSH1 0x0 SWAP3 SWAP2 PUSH32 0x0 SWAP1 SWAP2 AND SWAP1 PUSH4 0x70A08231 SWAP1 PUSH1 0x24 ADD PUSH1 0x20 PUSH1 0x40 MLOAD DUP1 DUP4 SUB DUP2 DUP7 GAS STATICCALL ISZERO DUP1 ISZERO PUSH2 0x3C7 JUMPI RETURNDATASIZE PUSH1 0x0 DUP1 RETURNDATACOPY RETURNDATASIZE PUSH1 0x0 REVERT JUMPDEST POP POP POP POP PUSH1 0x40 MLOAD RETURNDATASIZE PUSH1 0x1F NOT PUSH1 0x1F DUP3 ADD AND DUP3 ADD DUP1 PUSH1 0x40 MSTORE POP DUP2 ADD SWAP1 PUSH2 0x3EB SWAP2 SWAP1 PUSH2 0xA8C JUMP JUMPDEST PUSH2 0x3F5 SWAP2 SWAP1 PUSH2 0xAA5 JUMP JUMPDEST PUSH1 0x2 SLOAD PUSH1 0x40 MLOAD PUSH4 0x70A08231 PUSH1 0xE0 SHL DUP2 MSTORE PUSH1 0x1 PUSH1 0x1 PUSH1 0xA0 SHL SUB DUP6 DUP2 AND PUSH1 0x4 DUP4 ADD MSTORE PUSH8 0xDE0B6B3A7640000 SWAP3 SWAP2 PUSH32 0x0 SWAP1 SWAP2 AND SWAP1 PUSH4 0x70A08231 SWAP1 PUSH1 0x24 ADD PUSH1 0x20 PUSH1 0x40 MLOAD DUP1 DUP4 SUB DUP2 DUP7 GAS STATICCALL ISZERO DUP1 ISZERO PUSH2 0x46B JUMPI RETURNDATASIZE PUSH1 0x0 DUP1 RETURNDATACOPY RETURNDATASIZE PUSH1 0x0 REVERT JUMPDEST POP POP POP POP PUSH1 0x40 MLOAD RETURNDATASIZE PUSH1 0x1F NOT PUSH1 0x1F DUP3 ADD AND DUP3 ADD DUP1 PUSH1 0x40 MSTORE POP DUP2 ADD SWAP1 PUSH2 0x48F SWAP2 SWAP1 PUSH2 0xA8C JUMP JUMPDEST PUSH2 0x499 SWAP2 SWAP1 PUSH2 0xAA5 JUMP JUMPDEST PUSH2 0x4A3 SWAP2 SWAP1 PUSH2 0xAC4 JUMP JUMPDEST PUSH2 0x4AD SWAP2 SWAP1 PUSH2 0xA74 JUMP JUMPDEST SWAP3 SWAP2 POP POP JUMP JUMPDEST PUSH1 0x3 SLOAD PUSH1 0x60 SWAP1 PUSH1 0x0 SWAP1 PUSH8 0xFFFFFFFFFFFFFFFF DUP2 GT ISZERO PUSH2 0x4D4 JUMPI PUSH2 0x4D4 PUSH2 0x7F6 JUMP JUMPDEST PUSH1 0x40 MLOAD SWAP1 DUP1 DUP3 MSTORE DUP1 PUSH1 0x20 MUL PUSH1 0x20 ADD DUP3 ADD PUSH1 0x40 MSTORE DUP1 ISZERO PUSH2 0x539 JUMPI DUP2 PUSH1 0x20 ADD JUMPDEST PUSH2 0x526 PUSH1 0x40 MLOAD DUP1 PUSH1 0x80 ADD PUSH1 0x40 MSTORE DUP1 PUSH1 0x60 DUP2 MSTORE PUSH1 0x20 ADD PUSH1 0x0 DUP2 MSTORE PUSH1 0x20 ADD PUSH1 0x0 DUP2 MSTORE PUSH1 0x20 ADD PUSH1 0x0 PUSH1 0x1 PUSH1 0x1 PUSH1 0xA0 SHL SUB AND DUP2 MSTORE POP SWAP1 JUMP JUMPDEST DUP2 MSTORE PUSH1 0x20 ADD SWAP1 PUSH1 0x1 SWAP1 SUB SWAP1 DUP2 PUSH2 0x4F2 JUMPI SWAP1 POP JUMPDEST POP PUSH1 0x3 SLOAD SWAP1 SWAP2 POP PUSH1 0x0 SUB PUSH2 0x5AB JUMPI PUSH1 0x40 DUP1 MLOAD PUSH1 0x0 DUP1 DUP3 MSTORE PUSH1 0x20 DUP3 ADD SWAP1 SWAP3 MSTORE SWAP1 PUSH2 0x5A4 JUMP JUMPDEST PUSH2 0x591 PUSH1 0x40 MLOAD DUP1 PUSH1 0x80 ADD PUSH1 0x40 MSTORE DUP1 PUSH1 0x60 DUP2 MSTORE PUSH1 0x20 ADD PUSH1 0x0 DUP2 MSTORE PUSH1 0x20 ADD PUSH1 0x0 DUP2 MSTORE PUSH1 0x20 ADD PUSH1 0x0 PUSH1 0x1 PUSH1 0x1 PUSH1 0xA0 SHL SUB AND DUP2 MSTORE POP SWAP1 JUMP JUMPDEST DUP2 MSTORE PUSH1 0x20 ADD SWAP1 PUSH1 0x1 SWAP1 SUB SWAP1 DUP2 PUSH2 0x55D JUMPI SWAP1 POP JUMPDEST POP SWAP2 POP POP SWAP1 JUMP JUMPDEST PUSH1 0x0 JUMPDEST PUSH1 0x3 SLOAD DUP2 LT ISZERO PUSH2 0x6D0 JUMPI PUSH1 0x3 DUP2 DUP2 SLOAD DUP2 LT PUSH2 0x5CB JUMPI PUSH2 0x5CB PUSH2 0xA48 JUMP JUMPDEST SWAP1 PUSH1 0x0 MSTORE PUSH1 0x20 PUSH1 0x0 KECCAK256 SWAP1 PUSH1 0x4 MUL ADD PUSH1 0x40 MLOAD DUP1 PUSH1 0x80 ADD PUSH1 0x40 MSTORE SWAP1 DUP2 PUSH1 0x0 DUP3 ADD DUP1 SLOAD PUSH2 0x5F4 SWAP1 PUSH2 0xAE6 JUMP JUMPDEST DUP1 PUSH1 0x1F ADD PUSH1 0x20 DUP1 SWAP2 DIV MUL PUSH1 0x20 ADD PUSH1 0x40 MLOAD SWAP1 DUP2 ADD PUSH1 0x40 MSTORE DUP1 SWAP3 SWAP2 SWAP1 DUP2 DUP2 MSTORE PUSH1 0x20 ADD DUP3 DUP1 SLOAD PUSH2 0x620 SWAP1 PUSH2 0xAE6 JUMP JUMPDEST DUP1 ISZERO PUSH2 0x66D JUMPI DUP1 PUSH1 0x1F LT PUSH2 0x642 JUMPI PUSH2 0x100 DUP1 DUP4 SLOAD DIV MUL DUP4 MSTORE SWAP2 PUSH1 0x20 ADD SWAP2 PUSH2 0x66D JUMP JUMPDEST DUP3 ADD SWAP2 SWAP1 PUSH1 0x0 MSTORE PUSH1 0x20 PUSH1 0x0 KECCAK256 SWAP1 JUMPDEST DUP2 SLOAD DUP2 MSTORE SWAP1 PUSH1 0x1 ADD SWAP1 PUSH1 0x20 ADD DUP1 DUP4 GT PUSH2 0x650 JUMPI DUP3 SWAP1 SUB PUSH1 0x1F AND DUP3 ADD SWAP2 JUMPDEST POP POP POP SWAP2 DUP4 MSTORE POP POP PUSH1 0x1 DUP3 ADD SLOAD PUSH1 0x20 DUP3 ADD MSTORE PUSH1 0x2 DUP3 ADD SLOAD PUSH1 0x40 DUP3 ADD MSTORE PUSH1 0x3 SWAP1 SWAP2 ADD SLOAD PUSH1 0x1 PUSH1 0x1 PUSH1 0xA0 SHL SUB AND PUSH1 0x60 SWAP1 SWAP2 ADD MSTORE DUP3 MLOAD DUP4 SWAP1 DUP4 SWAP1 DUP2 LT PUSH2 0x6B2 JUMPI PUSH2 0x6B2 PUSH2 0xA48 JUMP JUMPDEST PUSH1 0x20 MUL PUSH1 0x20 ADD ADD DUP2 SWAP1 MSTORE POP DUP1 DUP1 PUSH2 0x6C8 SWAP1 PUSH2 0xB1A JUMP JUMPDEST SWAP2 POP POP PUSH2 0x5AE JUMP JUMPDEST POP SWAP2 SWAP1 POP JUMP JUMPDEST PUSH1 0x0 DUP1 JUMPDEST PUSH1 0x1 PUSH1 0x1 PUSH1 0xA0 SHL SUB DUP4 AND PUSH1 0x0 SWAP1 DUP2 MSTORE PUSH1 0x4 PUSH1 0x20 MSTORE PUSH1 0x40 SWAP1 KECCAK256 SLOAD DUP2 LT ISZERO PUSH2 0x753 JUMPI PUSH1 0x1 PUSH1 0x1 PUSH1 0xA0 SHL SUB DUP4 AND PUSH1 0x0 SWAP1 DUP2 MSTORE PUSH1 0x4 PUSH1 0x20 MSTORE PUSH1 0x40 SWAP1 KECCAK256 DUP1 SLOAD DUP6 SWAP2 SWAP1 DUP4 SWAP1 DUP2 LT PUSH2 0x727 JUMPI PUSH2 0x727 PUSH2 0xA48 JUMP JUMPDEST SWAP1 PUSH1 0x0 MSTORE PUSH1 0x20 PUSH1 0x0 KECCAK256 ADD SLOAD SUB PUSH2 0x741 JUMPI PUSH1 0x0 SWAP2 POP POP PUSH2 0x4AD JUMP JUMPDEST DUP1 PUSH2 0x74B DUP2 PUSH2 0xB1A JUMP JUMPDEST SWAP2 POP POP PUSH2 0x6DA JUMP JUMPDEST POP PUSH1 0x1 SWAP4 SWAP3 POP POP POP JUMP JUMPDEST DUP3 DUP1 SLOAD PUSH2 0x769 SWAP1 PUSH2 0xAE6 JUMP JUMPDEST SWAP1 PUSH1 0x0 MSTORE PUSH1 0x20 PUSH1 0x0 KECCAK256 SWAP1 PUSH1 0x1F ADD PUSH1 0x20 SWAP1 DIV DUP2 ADD SWAP3 DUP3 PUSH2 0x78B JUMPI PUSH1 0x0 DUP6 SSTORE PUSH2 0x7D1 JUMP JUMPDEST DUP3 PUSH1 0x1F LT PUSH2 0x7A4 JUMPI DUP1 MLOAD PUSH1 0xFF NOT AND DUP4 DUP1 ADD OR DUP6 SSTORE PUSH2 0x7D1 JUMP JUMPDEST DUP3 DUP1 ADD PUSH1 0x1 ADD DUP6 SSTORE DUP3 ISZERO PUSH2 0x7D1 JUMPI SWAP2 DUP3 ADD JUMPDEST DUP3 DUP2 GT ISZERO PUSH2 0x7D1 JUMPI DUP3 MLOAD DUP3 SSTORE SWAP2 PUSH1 0x20 ADD SWAP2 SWAP1 PUSH1 0x1 ADD SWAP1 PUSH2 0x7B6 JUMP JUMPDEST POP PUSH2 0x7DD SWAP3 SWAP2 POP PUSH2 0x7E1 JUMP JUMPDEST POP SWAP1 JUMP JUMPDEST JUMPDEST DUP1 DUP3 GT ISZERO PUSH2 0x7DD JUMPI PUSH1 0x0 DUP2 SSTORE PUSH1 0x1 ADD PUSH2 0x7E2 JUMP JUMPDEST PUSH4 0x4E487B71 PUSH1 0xE0 SHL PUSH1 0x0 MSTORE PUSH1 0x41 PUSH1 0x4 MSTORE PUSH1 0x24 PUSH1 0x0 REVERT JUMPDEST PUSH1 0x0 PUSH1 0x20 DUP3 DUP5 SUB SLT ISZERO PUSH2 0x81E JUMPI PUSH1 0x0 DUP1 REVERT JUMPDEST DUP2 CALLDATALOAD PUSH8 0xFFFFFFFFFFFFFFFF DUP1 DUP3 GT ISZERO PUSH2 0x836 JUMPI PUSH1 0x0 DUP1 REVERT JUMPDEST DUP2 DUP5 ADD SWAP2 POP DUP5 PUSH1 0x1F DUP4 ADD SLT PUSH2 0x84A JUMPI PUSH1 0x0 DUP1 REVERT JUMPDEST DUP2 CALLDATALOAD DUP2 DUP2 GT ISZERO PUSH2 0x85C JUMPI PUSH2 0x85C PUSH2 0x7F6 JUMP JUMPDEST PUSH1 0x40 MLOAD PUSH1 0x1F DUP3 ADD PUSH1 0x1F NOT SWAP1 DUP2 AND PUSH1 0x3F ADD AND DUP2 ADD SWAP1 DUP4 DUP3 GT DUP2 DUP4 LT OR ISZERO PUSH2 0x884 JUMPI PUSH2 0x884 PUSH2 0x7F6 JUMP JUMPDEST DUP2 PUSH1 0x40 MSTORE DUP3 DUP2 MSTORE DUP8 PUSH1 0x20 DUP5 DUP8 ADD ADD GT ISZERO PUSH2 0x89D JUMPI PUSH1 0x0 DUP1 REVERT JUMPDEST DUP3 PUSH1 0x20 DUP7 ADD PUSH1 0x20 DUP4 ADD CALLDATACOPY PUSH1 0x0 SWAP3 DUP2 ADD PUSH1 0x20 ADD SWAP3 SWAP1 SWAP3 MSTORE POP SWAP6 SWAP5 POP POP POP POP POP JUMP JUMPDEST PUSH1 0x0 DUP1 PUSH1 0x40 DUP4 DUP6 SUB SLT ISZERO PUSH2 0x8D0 JUMPI PUSH1 0x0 DUP1 REVERT JUMPDEST DUP3 CALLDATALOAD DUP1 ISZERO ISZERO DUP2 EQ PUSH2 0x8E0 JUMPI PUSH1 0x0 DUP1 REVERT JUMPDEST SWAP5 PUSH1 0x20 SWAP4 SWAP1 SWAP4 ADD CALLDATALOAD SWAP4 POP POP POP JUMP JUMPDEST DUP1 CALLDATALOAD PUSH1 0x1 PUSH1 0x1 PUSH1 0xA0 SHL SUB DUP2 AND DUP2 EQ PUSH2 0x905 JUMPI PUSH1 0x0 DUP1 REVERT JUMPDEST SWAP2 SWAP1 POP JUMP JUMPDEST PUSH1 0x0 DUP1 PUSH1 0x40 DUP4 DUP6 SUB SLT ISZERO PUSH2 0x91D JUMPI PUSH1 0x0 DUP1 REVERT JUMPDEST PUSH2 0x8E0 DUP4 PUSH2 0x8EE JUMP JUMPDEST PUSH1 0x0 PUSH1 0x20 DUP3 DUP5 SUB SLT ISZERO PUSH2 0x938 JUMPI PUSH1 0x0 DUP1 REVERT JUMPDEST PUSH2 0x941 DUP3 PUSH2 0x8EE JUMP JUMPDEST SWAP4 SWAP3 POP POP POP JUMP JUMPDEST PUSH1 0x0 PUSH1 0x20 DUP1 DUP4 ADD DUP2 DUP5 MSTORE DUP1 DUP6 MLOAD DUP1 DUP4 MSTORE PUSH1 0x40 SWAP3 POP DUP3 DUP7 ADD SWAP2 POP DUP3 DUP2 PUSH1 0x5 SHL DUP8 ADD ADD DUP5 DUP9 ADD PUSH1 0x0 DUP1 JUMPDEST DUP5 DUP2 LT ISZERO PUSH2 0xA0D JUMPI PUSH1 0x3F NOT DUP11 DUP6 SUB ADD DUP7 MSTORE DUP3 MLOAD PUSH1 0x80 DUP2 MLOAD DUP2 DUP8 MSTORE DUP1 MLOAD DUP1 DUP4 DUP10 ADD MSTORE DUP6 SWAP3 POP JUMPDEST DUP1 DUP4 LT ISZERO PUSH2 0x9B3 JUMPI DUP2 DUP4 ADD DUP13 ADD MLOAD DUP9 DUP5 ADD PUSH1 0xA0 ADD MSTORE SWAP2 DUP12 ADD SWAP2 PUSH2 0x995 JUMP JUMPDEST DUP1 DUP4 GT ISZERO PUSH2 0x9C4 JUMPI DUP6 PUSH1 0xA0 DUP3 DUP11 ADD ADD MSTORE JUMPDEST DUP12 DUP5 ADD MLOAD DUP9 DUP14 ADD MSTORE DUP11 DUP5 ADD MLOAD DUP12 DUP10 ADD MSTORE PUSH1 0x60 SWAP4 DUP5 ADD MLOAD PUSH1 0x1 PUSH1 0x1 PUSH1 0xA0 SHL SUB DUP2 AND DUP6 DUP11 ADD MSTORE SWAP4 SWAP3 POP SWAP9 DUP12 ADD SWAP9 PUSH1 0x1F ADD PUSH1 0x1F NOT AND SWAP7 SWAP1 SWAP7 ADD PUSH1 0xA0 ADD SWAP6 POP POP POP SWAP2 DUP8 ADD SWAP2 PUSH1 0x1 ADD PUSH2 0x970 JUMP JUMPDEST POP SWAP2 SWAP10 SWAP9 POP POP POP POP POP POP POP POP POP JUMP JUMPDEST PUSH1 0x0 DUP1 PUSH1 0x40 DUP4 DUP6 SUB SLT ISZERO PUSH2 0xA2F JUMPI PUSH1 0x0 DUP1 REVERT JUMPDEST DUP3 CALLDATALOAD SWAP2 POP PUSH2 0xA3F PUSH1 0x20 DUP5 ADD PUSH2 0x8EE JUMP JUMPDEST SWAP1 POP SWAP3 POP SWAP3 SWAP1 POP JUMP JUMPDEST PUSH4 0x4E487B71 PUSH1 0xE0 SHL PUSH1 0x0 MSTORE PUSH1 0x32 PUSH1 0x4 MSTORE PUSH1 0x24 PUSH1 0x0 REVERT JUMPDEST PUSH4 0x4E487B71 PUSH1 0xE0 SHL PUSH1 0x0 MSTORE PUSH1 0x11 PUSH1 0x4 MSTORE PUSH1 0x24 PUSH1 0x0 REVERT JUMPDEST PUSH1 0x0 DUP3 NOT DUP3 GT ISZERO PUSH2 0xA87 JUMPI PUSH2 0xA87 PUSH2 0xA5E JUMP JUMPDEST POP ADD SWAP1 JUMP JUMPDEST PUSH1 0x0 PUSH1 0x20 DUP3 DUP5 SUB SLT ISZERO PUSH2 0xA9E JUMPI PUSH1 0x0 DUP1 REVERT JUMPDEST POP MLOAD SWAP2 SWAP1 POP JUMP JUMPDEST PUSH1 0x0 DUP2 PUSH1 0x0 NOT DIV DUP4 GT DUP3 ISZERO ISZERO AND ISZERO PUSH2 0xABF JUMPI PUSH2 0xABF PUSH2 0xA5E JUMP JUMPDEST POP MUL SWAP1 JUMP JUMPDEST PUSH1 0x0 DUP3 PUSH2 0xAE1 JUMPI PUSH4 0x4E487B71 PUSH1 0xE0 SHL PUSH1 0x0 MSTORE PUSH1 0x12 PUSH1 0x4 MSTORE PUSH1 0x24 PUSH1 0x0 REVERT JUMPDEST POP DIV SWAP1 JUMP JUMPDEST PUSH1 0x1 DUP2 DUP2 SHR SWAP1 DUP3 AND DUP1 PUSH2 0xAFA JUMPI PUSH1 0x7F DUP3 AND SWAP2 POP JUMPDEST PUSH1 0x20 DUP3 LT DUP2 SUB PUSH2 0x6D0 JUMPI PUSH4 0x4E487B71 PUSH1 0xE0 SHL PUSH1 0x0 MSTORE PUSH1 0x22 PUSH1 0x4 MSTORE PUSH1 0x24 PUSH1 0x0 REVERT JUMPDEST PUSH1 0x0 PUSH1 0x1 DUP3 ADD PUSH2 0xB2C JUMPI PUSH2 0xB2C PUSH2 0xA5E JUMP JUMPDEST POP PUSH1 0x1 ADD SWAP1 JUMP INVALID LOG2 PUSH5 0x6970667358 0x22 SLT KECCAK256 EQ DUP16 MULMOD SLOAD SUB DUP1 0x22 0xE DUP7 0xE 0xA9 JUMPDEST SWAP2 PUSH31 0x9314BD5CC12E944D230D7F475A23EDE59ACF64736F6C634300080D00330000 "
    },
    "gasEstimates": {
      "creation": {
        "codeDepositCost": "584200",
        "executionCost": "infinite",
        "totalCost": "infinite"
      },
      "external": {
        "addProposal(string)": "infinite",
        "canVote(uint256,address)": "infinite",
        "castVote(bool,uint256)": "infinite",
        "getAllProposals()": "infinite",
        "getVotingPower(address)": "infinite",
        "hasVoted(address,uint256)": "4778",
        "nftCollection()": "infinite",
        "rewardsToken()": "infinite"
      }
    },
    "methodIdentifiers": {
      "addProposal(string)": "2fdae3c5",
      "canVote(uint256,address)": "cdb2867b",
      "castVote(bool,uint256)": "3f2fa030",
      "getAllProposals()": "cceb68f5",
      "getVotingPower(address)": "bb4d4436",
      "hasVoted(address,uint256)": "42545825",
      "nftCollection()": "6588103b",
      "rewardsToken()": "d1af0c7d"
    }
  },
  "storageLayout": {
    "storage": [
      {
        "astId": 753,
        "contract": "NftVoting.sol:FriendsLandVoting",
        "label": "_status",
        "offset": 0,
        "slot": "0",
        "type": "t_uint256"
      },
      {
        "astId": 506,
        "contract": "NftVoting.sol:FriendsLandVoting",
        "label": "votingPowerPerNFT",
        "offset": 0,
        "slot": "1",
        "type": "t_uint256"
      },
      {
        "astId": 509,
        "contract": "NftVoting.sol:FriendsLandVoting",
        "label": "votingPowerPerCoin",
        "offset": 0,
        "slot": "2",
        "type": "t_uint256"
      },
      {
        "astId": 540,
        "contract": "NftVoting.sol:FriendsLandVoting",
        "label": "allProposals",
        "offset": 0,
        "slot": "3",
        "type": "t_array(t_struct(Proposal)536_storage)dyn_storage"
      },
      {
        "astId": 545,
        "contract": "NftVoting.sol:FriendsLandVoting",
        "label": "hasVoted",
        "offset": 0,
        "slot": "4",
        "type": "t_mapping(t_address,t_array(t_uint256)dyn_storage)"
      }
    ],
    "types": {
      "t_address": {
        "encoding": "inplace",
        "label": "address",
        "numberOfBytes": "20"
      },
      "t_array(t_struct(Proposal)536_storage)dyn_storage": {
        "base": "t_struct(Proposal)536_storage",
        "encoding": "dynamic_array",
        "label": "struct FriendsLandVoting.Proposal[]",
        "numberOfBytes": "32"
      },
      "t_array(t_uint256)dyn_storage": {
        "base": "t_uint256",
        "encoding": "dynamic_array",
        "label": "uint256[]",
        "numberOfBytes": "32"
      },
      "t_mapping(t_address,t_array(t_uint256)dyn_storage)": {
        "encoding": "mapping",
        "key": "t_address",
        "label": "mapping(address => uint256[])",
        "numberOfBytes": "32",
        "value": "t_array(t_uint256)dyn_storage"
      },
      "t_string_storage": {
        "encoding": "bytes",
        "label": "string",
        "numberOfBytes": "32"
      },
      "t_struct(Proposal)536_storage": {
        "encoding": "inplace",
        "label": "struct FriendsLandVoting.Proposal",
        "members": [
          {
            "astId": 529,
            "contract": "NftVoting.sol:FriendsLandVoting",
            "label": "proposalText",
            "offset": 0,
            "slot": "0",
            "type": "t_string_storage"
          },
          {
            "astId": 531,
            "contract": "NftVoting.sol:FriendsLandVoting",
            "label": "yesVotes",
            "offset": 0,
            "slot": "1",
            "type": "t_uint256"
          },
          {
            "astId": 533,
            "contract": "NftVoting.sol:FriendsLandVoting",
            "label": "noVotes",
            "offset": 0,
            "slot": "2",
            "type": "t_uint256"
          },
          {
            "astId": 535,
            "contract": "NftVoting.sol:FriendsLandVoting",
            "label": "proposalCreator",
            "offset": 0,
            "slot": "3",
            "type": "t_address"
          }
        ],
        "numberOfBytes": "128"
      },
      "t_uint256": {
        "encoding": "inplace",
        "label": "uint256",
        "numberOfBytes": "32"
      }
    }
  },
  "userdoc": {
    "kind": "user",
    "methods": {},
    "version": 1
  }
}