{
  "abi": [
    {
      "inputs": [
        {
          "internalType": "contract IERC721",
          "name": "_nftCollection",
          "type": "address"
        },
        {
          "internalType": "contract IERC20",
          "name": "_rewardsToken",
          "type": "address"
        }
      ],
      "stateMutability": "nonpayable",
      "type": "constructor"
    },
    {
      "inputs": [
        {
          "internalType": "string",
          "name": "proposalText",
          "type": "string"
        }
      ],
      "name": "addProposal",
      "outputs": [],
      "stateMutability": "nonpayable",
      "type": "function"
    },
    {
      "inputs": [
        {
          "internalType": "uint256",
          "name": "proposalIndex",
          "type": "uint256"
        }
      ],
      "name": "canVote",
      "outputs": [
        {
          "internalType": "bool",
          "name": "",
          "type": "bool"
        }
      ],
      "stateMutability": "view",
      "type": "function"
    },
    {
      "inputs": [
        {
          "internalType": "bool",
          "name": "vote",
          "type": "bool"
        },
        {
          "internalType": "uint256",
          "name": "proposalIndex",
          "type": "uint256"
        }
      ],
      "name": "castVote",
      "outputs": [],
      "stateMutability": "nonpayable",
      "type": "function"
    },
    {
      "inputs": [],
      "name": "getAllProposals",
      "outputs": [
        {
          "components": [
            {
              "internalType": "string",
              "name": "proposalText",
              "type": "string"
            },
            {
              "internalType": "uint256",
              "name": "yesVotes",
              "type": "uint256"
            },
            {
              "internalType": "uint256",
              "name": "noVotes",
              "type": "uint256"
            },
            {
              "internalType": "address",
              "name": "proposalCreator",
              "type": "address"
            }
          ],
          "internalType": "struct FriendsLandVoting.Proposal[]",
          "name": "",
          "type": "tuple[]"
        }
      ],
      "stateMutability": "view",
      "type": "function"
    },
    {
      "inputs": [],
      "name": "getVotingPower",
      "outputs": [
        {
          "internalType": "uint256",
          "name": "",
          "type": "uint256"
        }
      ],
      "stateMutability": "view",
      "type": "function"
    },
    {
      "inputs": [
        {
          "internalType": "address",
          "name": "",
          "type": "address"
        },
        {
          "internalType": "uint256",
          "name": "",
          "type": "uint256"
        }
      ],
      "name": "hasVoted",
      "outputs": [
        {
          "internalType": "uint256",
          "name": "",
          "type": "uint256"
        }
      ],
      "stateMutability": "view",
      "type": "function"
    },
    {
      "inputs": [],
      "name": "nftCollection",
      "outputs": [
        {
          "internalType": "contract IERC721",
          "name": "",
          "type": "address"
        }
      ],
      "stateMutability": "view",
      "type": "function"
    },
    {
      "inputs": [],
      "name": "rewardsToken",
      "outputs": [
        {
          "internalType": "contract IERC20",
          "name": "",
          "type": "address"
        }
      ],
      "stateMutability": "view",
      "type": "function"
    }
  ],
  "devdoc": {
    "kind": "dev",
    "methods": {},
    "version": 1
  },
  "evm": {
    "assembly": "    /* \"NftVoting.sol\":311:2443  contract FriendsLandVoting is ReentrancyGuard{... */\n  mstore(0x40, 0xc0)\n    /* \"NftVoting.sol\":553:556  100 */\n  0x64\n    /* \"NftVoting.sol\":528:556  uint votingPowerPerNFT = 100 */\n  0x01\n  sstore\n    /* \"NftVoting.sol\":589:591  10 */\n  0x0a\n    /* \"NftVoting.sol\":563:591  uint votingPowerPerCoin = 10 */\n  0x02\n  sstore\n    /* \"NftVoting.sol\":687:833  constructor(IERC721 _nftCollection, IERC20 _rewardsToken) {... */\n  callvalue\n  dup1\n  iszero\n  tag_1\n  jumpi\n  0x00\n  dup1\n  revert\ntag_1:\n  pop\n  mload(0x40)\n  sub(codesize, bytecodeSize)\n  dup1\n  bytecodeSize\n  dup4\n  codecopy\n  dup2\n  add\n  0x40\n  dup2\n  swap1\n  mstore\n  tag_2\n  swap2\n  tag_3\n  jump\t// in\ntag_2:\n    /* \"@openzeppelin/contracts/security/ReentrancyGuard.sol\":1701:1702   */\n  0x01\n    /* \"@openzeppelin/contracts/security/ReentrancyGuard.sol\":1806:1813   */\n  0x00\n    /* \"@openzeppelin/contracts/security/ReentrancyGuard.sol\":1806:1828   */\n  sstore\n  sub(shl(0xa0, 0x01), 0x01)\n    /* \"NftVoting.sol\":756:786  nftCollection = _nftCollection */\n  swap2\n  dup3\n  and\n  0xa0\n  mstore\n    /* \"NftVoting.sol\":797:825  rewardsToken = _rewardsToken */\n  and\n  0x80\n  mstore\n    /* \"NftVoting.sol\":311:2443  contract FriendsLandVoting is ReentrancyGuard{... */\n  jump(tag_10)\n    /* \"#utility.yul\":14:154   */\ntag_9:\n  sub(shl(0xa0, 0x01), 0x01)\n    /* \"#utility.yul\":98:129   */\n  dup2\n  and\n    /* \"#utility.yul\":88:130   */\n  dup2\n  eq\n    /* \"#utility.yul\":78:148   */\n  tag_12\n  jumpi\n    /* \"#utility.yul\":144:145   */\n  0x00\n    /* \"#utility.yul\":141:142   */\n  dup1\n    /* \"#utility.yul\":134:146   */\n  revert\n    /* \"#utility.yul\":78:148   */\ntag_12:\n    /* \"#utility.yul\":14:154   */\n  pop\n  jump\t// out\n    /* \"#utility.yul\":159:592   */\ntag_3:\n    /* \"#utility.yul\":268:274   */\n  0x00\n    /* \"#utility.yul\":276:282   */\n  dup1\n    /* \"#utility.yul\":329:331   */\n  0x40\n    /* \"#utility.yul\":317:326   */\n  dup4\n    /* \"#utility.yul\":308:315   */\n  dup6\n    /* \"#utility.yul\":304:327   */\n  sub\n    /* \"#utility.yul\":300:332   */\n  slt\n    /* \"#utility.yul\":297:349   */\n  iszero\n  tag_14\n  jumpi\n    /* \"#utility.yul\":345:346   */\n  0x00\n    /* \"#utility.yul\":342:343   */\n  dup1\n    /* \"#utility.yul\":335:347   */\n  revert\n    /* \"#utility.yul\":297:349   */\ntag_14:\n    /* \"#utility.yul\":377:386   */\n  dup3\n    /* \"#utility.yul\":371:387   */\n  mload\n    /* \"#utility.yul\":396:436   */\n  tag_15\n    /* \"#utility.yul\":430:435   */\n  dup2\n    /* \"#utility.yul\":396:436   */\n  tag_9\n  jump\t// in\ntag_15:\n    /* \"#utility.yul\":505:507   */\n  0x20\n    /* \"#utility.yul\":490:508   */\n  dup5\n  add\n    /* \"#utility.yul\":484:509   */\n  mload\n    /* \"#utility.yul\":455:460   */\n  swap1\n  swap3\n  pop\n    /* \"#utility.yul\":518:560   */\n  tag_16\n    /* \"#utility.yul\":484:509   */\n  dup2\n    /* \"#utility.yul\":518:560   */\n  tag_9\n  jump\t// in\ntag_16:\n    /* \"#utility.yul\":579:586   */\n  dup1\n    /* \"#utility.yul\":569:586   */\n  swap2\n  pop\n  pop\n    /* \"#utility.yul\":159:592   */\n  swap3\n  pop\n  swap3\n  swap1\n  pop\n  jump\t// out\ntag_10:\n    /* \"NftVoting.sol\":311:2443  contract FriendsLandVoting is ReentrancyGuard{... */\n  mload(0x80)\n  mload(0xa0)\n  codecopy(0x00, dataOffset(sub_0), dataSize(sub_0))\n  0x00\n  assignImmutable(\"0x3b48f2d0209eb4dd60e62c1f7e596ae31bd20069addd815217072f5e9590f121\")\n  0x00\n  assignImmutable(\"0x10257b4b78eb1cc8f3bf37ee4ac776bf13f9a94a6698f944882b60d3d834a8aa\")\n  return(0x00, dataSize(sub_0))\nstop\n\nsub_0: assembly {\n        /* \"NftVoting.sol\":311:2443  contract FriendsLandVoting is ReentrancyGuard{... */\n      mstore(0x40, 0x80)\n      callvalue\n      dup1\n      iszero\n      tag_1\n      jumpi\n      0x00\n      dup1\n      revert\n    tag_1:\n      pop\n      jumpi(tag_2, lt(calldatasize, 0x04))\n      shr(0xe0, calldataload(0x00))\n      dup1\n      0x42545825\n      gt\n      tag_11\n      jumpi\n      dup1\n      0x42545825\n      eq\n      tag_7\n      jumpi\n      dup1\n      0x6588103b\n      eq\n      tag_8\n      jumpi\n      dup1\n      0xcceb68f5\n      eq\n      tag_9\n      jumpi\n      dup1\n      0xd1af0c7d\n      eq\n      tag_10\n      jumpi\n      0x00\n      dup1\n      revert\n    tag_11:\n      dup1\n      0x087f0270\n      eq\n      tag_3\n      jumpi\n      dup1\n      0x25746251\n      eq\n      tag_4\n      jumpi\n      dup1\n      0x2fdae3c5\n      eq\n      tag_5\n      jumpi\n      dup1\n      0x3f2fa030\n      eq\n      tag_6\n      jumpi\n    tag_2:\n      0x00\n      dup1\n      revert\n        /* \"NftVoting.sol\":1243:1444  function getVotingPower() public view returns(uint){... */\n    tag_3:\n      tag_12\n      tag_13\n      jump\t// in\n    tag_12:\n      mload(0x40)\n        /* \"#utility.yul\":160:185   */\n      swap1\n      dup2\n      mstore\n        /* \"#utility.yul\":148:150   */\n      0x20\n        /* \"#utility.yul\":133:151   */\n      add\n        /* \"NftVoting.sol\":1243:1444  function getVotingPower() public view returns(uint){... */\n    tag_14:\n      mload(0x40)\n      dup1\n      swap2\n      sub\n      swap1\n      return\n        /* \"NftVoting.sol\":1450:1722  function canVote(uint proposalIndex) public view returns(bool){... */\n    tag_4:\n      tag_16\n      tag_17\n      calldatasize\n      0x04\n      tag_18\n      jump\t// in\n    tag_17:\n      tag_19\n      jump\t// in\n    tag_16:\n      mload(0x40)\n        /* \"#utility.yul\":546:560   */\n      swap1\n      iszero\n        /* \"#utility.yul\":539:561   */\n      iszero\n        /* \"#utility.yul\":521:562   */\n      dup2\n      mstore\n        /* \"#utility.yul\":509:511   */\n      0x20\n        /* \"#utility.yul\":494:512   */\n      add\n        /* \"NftVoting.sol\":1450:1722  function canVote(uint proposalIndex) public view returns(bool){... */\n      tag_14\n        /* \"#utility.yul\":381:568   */\n      jump\n        /* \"NftVoting.sol\":1064:1237  function addProposal(string memory proposalText) public{... */\n    tag_5:\n      tag_22\n      tag_23\n      calldatasize\n      0x04\n      tag_24\n      jump\t// in\n    tag_23:\n      tag_25\n      jump\t// in\n    tag_22:\n      stop\n        /* \"NftVoting.sol\":1728:2052  function castVote(bool vote, uint proposalIndex) public{... */\n    tag_6:\n      tag_22\n      tag_27\n      calldatasize\n      0x04\n      tag_28\n      jump\t// in\n    tag_27:\n      tag_29\n      jump\t// in\n        /* \"NftVoting.sol\":1015:1057  mapping(address => uint[]) public hasVoted */\n    tag_7:\n      tag_12\n      tag_31\n      calldatasize\n      0x04\n      tag_32\n      jump\t// in\n    tag_31:\n      tag_33\n      jump\t// in\n        /* \"NftVoting.sol\":481:519  IERC721 public immutable nftCollection */\n    tag_8:\n      tag_35\n      immutable(\"0x3b48f2d0209eb4dd60e62c1f7e596ae31bd20069addd815217072f5e9590f121\")\n      dup2\n      jump\n    tag_35:\n      mload(0x40)\n      sub(shl(0xa0, 0x01), 0x01)\n        /* \"#utility.yul\":2540:2595   */\n      swap1\n      swap2\n      and\n        /* \"#utility.yul\":2522:2596   */\n      dup2\n      mstore\n        /* \"#utility.yul\":2510:2512   */\n      0x20\n        /* \"#utility.yul\":2495:2513   */\n      add\n        /* \"NftVoting.sol\":481:519  IERC721 public immutable nftCollection */\n      tag_14\n        /* \"#utility.yul\":2360:2602   */\n      jump\n        /* \"NftVoting.sol\":2058:2440  function getAllProposals() external view returns(Proposal[] memory){... */\n    tag_9:\n      tag_39\n      tag_40\n      jump\t// in\n    tag_39:\n      mload(0x40)\n      tag_14\n      swap2\n      swap1\n      tag_42\n      jump\t// in\n        /* \"NftVoting.sol\":438:474  IERC20 public immutable rewardsToken */\n    tag_10:\n      tag_35\n      immutable(\"0x10257b4b78eb1cc8f3bf37ee4ac776bf13f9a94a6698f944882b60d3d834a8aa\")\n      dup2\n      jump\n        /* \"NftVoting.sol\":1243:1444  function getVotingPower() public view returns(uint){... */\n    tag_13:\n        /* \"NftVoting.sol\":1419:1436  votingPowerPerNFT */\n      sload(0x01)\n        /* \"NftVoting.sol\":1381:1416  nftCollection.balanceOf(msg.sender) */\n      mload(0x40)\n      shl(0xe0, 0x70a08231)\n      dup2\n      mstore\n        /* \"NftVoting.sol\":1405:1415  msg.sender */\n      caller\n        /* \"NftVoting.sol\":1381:1416  nftCollection.balanceOf(msg.sender) */\n      0x04\n      dup3\n      add\n        /* \"#utility.yul\":2522:2596   */\n      mstore\n        /* \"NftVoting.sol\":1289:1293  uint */\n      0x00\n      swap2\n        /* \"NftVoting.sol\":1419:1436  votingPowerPerNFT */\n      swap1\n      sub(shl(0xa0, 0x01), 0x01)\n        /* \"NftVoting.sol\":1381:1394  nftCollection */\n      immutable(\"0x3b48f2d0209eb4dd60e62c1f7e596ae31bd20069addd815217072f5e9590f121\")\n        /* \"NftVoting.sol\":1381:1404  nftCollection.balanceOf */\n      and\n      swap1\n      0x70a08231\n      swap1\n        /* \"#utility.yul\":2495:2513   */\n      0x24\n      add\n        /* \"NftVoting.sol\":1381:1416  nftCollection.balanceOf(msg.sender) */\n      0x20\n      mload(0x40)\n      dup1\n      dup4\n      sub\n      dup2\n      dup7\n      gas\n      staticcall\n      iszero\n      dup1\n      iszero\n      tag_51\n      jumpi\n      returndatasize\n      0x00\n      dup1\n      returndatacopy\n      revert(0x00, returndatasize)\n    tag_51:\n      pop\n      pop\n      pop\n      pop\n      mload(0x40)\n      returndatasize\n      not(0x1f)\n      0x1f\n      dup3\n      add\n      and\n      dup3\n      add\n      dup1\n      0x40\n      mstore\n      pop\n      dup2\n      add\n      swap1\n      tag_52\n      swap2\n      swap1\n      tag_53\n      jump\t// in\n    tag_52:\n        /* \"NftVoting.sol\":1381:1436  nftCollection.balanceOf(msg.sender) * votingPowerPerNFT */\n      tag_54\n      swap2\n      swap1\n      tag_55\n      jump\t// in\n    tag_54:\n        /* \"NftVoting.sol\":1351:1369  votingPowerPerCoin */\n      sload(0x02)\n        /* \"NftVoting.sol\":1314:1348  rewardsToken.balanceOf(msg.sender) */\n      mload(0x40)\n      shl(0xe0, 0x70a08231)\n      dup2\n      mstore\n        /* \"NftVoting.sol\":1337:1347  msg.sender */\n      caller\n        /* \"NftVoting.sol\":1314:1348  rewardsToken.balanceOf(msg.sender) */\n      0x04\n      dup3\n      add\n        /* \"#utility.yul\":2522:2596   */\n      mstore\n        /* \"NftVoting.sol\":1371:1377  10**18 */\n      0x0de0b6b3a7640000\n      swap2\n        /* \"NftVoting.sol\":1351:1369  votingPowerPerCoin */\n      swap1\n      sub(shl(0xa0, 0x01), 0x01)\n        /* \"NftVoting.sol\":1314:1326  rewardsToken */\n      immutable(\"0x10257b4b78eb1cc8f3bf37ee4ac776bf13f9a94a6698f944882b60d3d834a8aa\")\n        /* \"NftVoting.sol\":1314:1336  rewardsToken.balanceOf */\n      and\n      swap1\n      0x70a08231\n      swap1\n        /* \"#utility.yul\":2495:2513   */\n      0x24\n      add\n        /* \"NftVoting.sol\":1314:1348  rewardsToken.balanceOf(msg.sender) */\n      0x20\n      mload(0x40)\n      dup1\n      dup4\n      sub\n      dup2\n      dup7\n      gas\n      staticcall\n      iszero\n      dup1\n      iszero\n      tag_58\n      jumpi\n      returndatasize\n      0x00\n      dup1\n      returndatacopy\n      revert(0x00, returndatasize)\n    tag_58:\n      pop\n      pop\n      pop\n      pop\n      mload(0x40)\n      returndatasize\n      not(0x1f)\n      0x1f\n      dup3\n      add\n      and\n      dup3\n      add\n      dup1\n      0x40\n      mstore\n      pop\n      dup2\n      add\n      swap1\n      tag_59\n      swap2\n      swap1\n      tag_53\n      jump\t// in\n    tag_59:\n        /* \"NftVoting.sol\":1314:1369  rewardsToken.balanceOf(msg.sender) * votingPowerPerCoin */\n      tag_60\n      swap2\n      swap1\n      tag_55\n      jump\t// in\n    tag_60:\n        /* \"NftVoting.sol\":1313:1377  (rewardsToken.balanceOf(msg.sender) * votingPowerPerCoin)/10**18 */\n      tag_61\n      swap2\n      swap1\n      tag_62\n      jump\t// in\n    tag_61:\n        /* \"NftVoting.sol\":1312:1436  ((rewardsToken.balanceOf(msg.sender) * votingPowerPerCoin)/10**18) + nftCollection.balanceOf(msg.sender) * votingPowerPerNFT */\n      tag_63\n      swap2\n      swap1\n      tag_64\n      jump\t// in\n    tag_63:\n        /* \"NftVoting.sol\":1305:1436  return ((rewardsToken.balanceOf(msg.sender) * votingPowerPerCoin)/10**18) + nftCollection.balanceOf(msg.sender) * votingPowerPerNFT */\n      swap1\n      pop\n        /* \"NftVoting.sol\":1243:1444  function getVotingPower() public view returns(uint){... */\n      swap1\n      jump\t// out\n        /* \"NftVoting.sol\":1450:1722  function canVote(uint proposalIndex) public view returns(bool){... */\n    tag_19:\n        /* \"NftVoting.sol\":1507:1511  bool */\n      0x00\n      dup1\n        /* \"NftVoting.sol\":1523:1693  for(uint i = 0; i < hasVoted[msg.sender].length; i++){... */\n    tag_66:\n        /* \"NftVoting.sol\":1552:1562  msg.sender */\n      caller\n        /* \"NftVoting.sol\":1543:1563  hasVoted[msg.sender] */\n      0x00\n      swap1\n      dup2\n      mstore\n        /* \"NftVoting.sol\":1543:1551  hasVoted */\n      0x04\n        /* \"NftVoting.sol\":1543:1563  hasVoted[msg.sender] */\n      0x20\n      mstore\n      0x40\n      swap1\n      keccak256\n        /* \"NftVoting.sol\":1543:1570  hasVoted[msg.sender].length */\n      sload\n        /* \"NftVoting.sol\":1539:1570  i < hasVoted[msg.sender].length */\n      dup2\n      lt\n        /* \"NftVoting.sol\":1523:1693  for(uint i = 0; i < hasVoted[msg.sender].length; i++){... */\n      iszero\n      tag_67\n      jumpi\n        /* \"NftVoting.sol\":1603:1613  msg.sender */\n      caller\n        /* \"NftVoting.sol\":1594:1614  hasVoted[msg.sender] */\n      0x00\n      swap1\n      dup2\n      mstore\n        /* \"NftVoting.sol\":1594:1602  hasVoted */\n      0x04\n        /* \"NftVoting.sol\":1594:1614  hasVoted[msg.sender] */\n      0x20\n      mstore\n      0x40\n      swap1\n      keccak256\n        /* \"NftVoting.sol\":1594:1617  hasVoted[msg.sender][i] */\n      dup1\n      sload\n        /* \"NftVoting.sol\":1621:1634  proposalIndex */\n      dup5\n      swap2\n        /* \"NftVoting.sol\":1594:1614  hasVoted[msg.sender] */\n      swap1\n        /* \"NftVoting.sol\":1615:1616  i */\n      dup4\n      swap1\n        /* \"NftVoting.sol\":1594:1617  hasVoted[msg.sender][i] */\n      dup2\n      lt\n      tag_70\n      jumpi\n      tag_70\n      tag_71\n      jump\t// in\n    tag_70:\n      swap1\n      0x00\n      mstore\n      keccak256(0x00, 0x20)\n      add\n      sload\n        /* \"NftVoting.sol\":1594:1634  hasVoted[msg.sender][i] == proposalIndex */\n      sub\n        /* \"NftVoting.sol\":1591:1682  if(hasVoted[msg.sender][i] == proposalIndex){... */\n      tag_73\n      jumpi\n      pop\n        /* \"NftVoting.sol\":1661:1666  false */\n      0x00\n      swap3\n        /* \"NftVoting.sol\":1450:1722  function canVote(uint proposalIndex) public view returns(bool){... */\n      swap2\n      pop\n      pop\n      jump\t// out\n        /* \"NftVoting.sol\":1591:1682  if(hasVoted[msg.sender][i] == proposalIndex){... */\n    tag_73:\n        /* \"NftVoting.sol\":1572:1575  i++ */\n      dup1\n      tag_74\n      dup2\n      tag_75\n      jump\t// in\n    tag_74:\n      swap2\n      pop\n      pop\n        /* \"NftVoting.sol\":1523:1693  for(uint i = 0; i < hasVoted[msg.sender].length; i++){... */\n      jump(tag_66)\n    tag_67:\n      pop\n        /* \"NftVoting.sol\":1710:1714  true */\n      0x01\n      swap3\n        /* \"NftVoting.sol\":1450:1722  function canVote(uint proposalIndex) public view returns(bool){... */\n      swap2\n      pop\n      pop\n      jump\t// out\n        /* \"NftVoting.sol\":1064:1237  function addProposal(string memory proposalText) public{... */\n    tag_25:\n        /* \"NftVoting.sol\":1157:1158  0 */\n      0x00\n        /* \"NftVoting.sol\":1138:1154  getVotingPower() */\n      tag_77\n        /* \"NftVoting.sol\":1138:1152  getVotingPower */\n      tag_13\n        /* \"NftVoting.sol\":1138:1154  getVotingPower() */\n      jump\t// in\n    tag_77:\n        /* \"NftVoting.sol\":1138:1158  getVotingPower() > 0 */\n      gt\n        /* \"NftVoting.sol\":1130:1159  require(getVotingPower() > 0) */\n      tag_78\n      jumpi\n      0x00\n      dup1\n      revert\n    tag_78:\n        /* \"NftVoting.sol\":1188:1228  Proposal(proposalText, 0, 0, msg.sender) */\n      0x40\n      dup1\n      mload\n      0x80\n      dup2\n      add\n      dup3\n      mstore\n      dup3\n      dup2\n      mstore\n      0x00\n      0x20\n      dup1\n      dup4\n      add\n      dup3\n      swap1\n      mstore\n      swap3\n      dup3\n      add\n      dup2\n      swap1\n      mstore\n        /* \"NftVoting.sol\":1217:1227  msg.sender */\n      caller\n        /* \"NftVoting.sol\":1188:1228  Proposal(proposalText, 0, 0, msg.sender) */\n      0x60\n      dup4\n      add\n      mstore\n        /* \"NftVoting.sol\":1170:1182  allProposals */\n      0x03\n        /* \"NftVoting.sol\":1170:1229  allProposals.push(Proposal(proposalText, 0, 0, msg.sender)) */\n      dup1\n      sload\n      0x01\n      dup2\n      add\n      dup3\n      sstore\n      swap2\n      mstore\n      dup2\n      mload\n      dup1\n      mload\n        /* \"NftVoting.sol\":1188:1228  Proposal(proposalText, 0, 0, msg.sender) */\n      swap3\n      swap4\n        /* \"NftVoting.sol\":1170:1229  allProposals.push(Proposal(proposalText, 0, 0, msg.sender)) */\n      0x04\n      swap1\n      swap3\n      mul\n      0xc2575a0e9e593c00f959f8c92f12db2869c3395a3b0502d05e2516446f71f85b\n      add\n      swap3\n      tag_80\n      swap3\n      dup5\n      swap3\n      add\n      swap1\n      tag_81\n      jump\t// in\n    tag_80:\n      pop\n      0x20\n      dup3\n      add\n      mload\n      0x01\n      dup3\n      add\n      sstore\n      0x40\n      dup3\n      add\n      mload\n      0x02\n      dup3\n      add\n      sstore\n      0x60\n      swap1\n      swap2\n      add\n      mload\n      0x03\n      swap1\n      swap2\n      add\n      dup1\n      sload\n      0xffffffffffffffffffffffff0000000000000000000000000000000000000000\n      and\n      sub(shl(0xa0, 0x01), 0x01)\n      swap1\n      swap3\n      and\n      swap2\n      swap1\n      swap2\n      or\n      swap1\n      sstore\n      pop\n        /* \"NftVoting.sol\":1064:1237  function addProposal(string memory proposalText) public{... */\n      jump\t// out\n        /* \"NftVoting.sol\":1728:2052  function castVote(bool vote, uint proposalIndex) public{... */\n    tag_29:\n        /* \"NftVoting.sol\":1802:1824  canVote(proposalIndex) */\n      tag_83\n        /* \"NftVoting.sol\":1810:1823  proposalIndex */\n      dup2\n        /* \"NftVoting.sol\":1802:1809  canVote */\n      tag_19\n        /* \"NftVoting.sol\":1802:1824  canVote(proposalIndex) */\n      jump\t// in\n    tag_83:\n        /* \"NftVoting.sol\":1794:1825  require(canVote(proposalIndex)) */\n      tag_84\n      jumpi\n      0x00\n      dup1\n      revert\n    tag_84:\n        /* \"NftVoting.sol\":1836:1852  uint votingPower */\n      0x00\n        /* \"NftVoting.sol\":1855:1871  getVotingPower() */\n      tag_85\n        /* \"NftVoting.sol\":1855:1869  getVotingPower */\n      tag_13\n        /* \"NftVoting.sol\":1855:1871  getVotingPower() */\n      jump\t// in\n    tag_85:\n        /* \"NftVoting.sol\":1836:1871  uint votingPower = getVotingPower() */\n      swap1\n      pop\n        /* \"NftVoting.sol\":1882:1886  vote */\n      dup3\n        /* \"NftVoting.sol\":1882:1993  vote ? allProposals[proposalIndex].yesVotes += votingPower : allProposals[proposalIndex].noVotes += votingPower */\n      tag_86\n      jumpi\n        /* \"NftVoting.sol\":1982:1993  votingPower */\n      dup1\n        /* \"NftVoting.sol\":1943:1955  allProposals */\n      0x03\n        /* \"NftVoting.sol\":1956:1969  proposalIndex */\n      dup4\n        /* \"NftVoting.sol\":1943:1970  allProposals[proposalIndex] */\n      dup2\n      sload\n      dup2\n      lt\n      tag_88\n      jumpi\n      tag_88\n      tag_71\n      jump\t// in\n    tag_88:\n      swap1\n      0x00\n      mstore\n      keccak256(0x00, 0x20)\n      swap1\n      0x04\n      mul\n      add\n        /* \"NftVoting.sol\":1943:1978  allProposals[proposalIndex].noVotes */\n      0x02\n      add\n      0x00\n        /* \"NftVoting.sol\":1943:1993  allProposals[proposalIndex].noVotes += votingPower */\n      dup3\n      dup3\n      sload\n      tag_90\n      swap2\n      swap1\n      tag_64\n      jump\t// in\n    tag_90:\n      swap3\n      pop\n      pop\n      dup2\n      swap1\n      sstore\n        /* \"NftVoting.sol\":1882:1993  vote ? allProposals[proposalIndex].yesVotes += votingPower : allProposals[proposalIndex].noVotes += votingPower */\n      jump(tag_91)\n    tag_86:\n        /* \"NftVoting.sol\":1929:1940  votingPower */\n      dup1\n        /* \"NftVoting.sol\":1889:1901  allProposals */\n      0x03\n        /* \"NftVoting.sol\":1902:1915  proposalIndex */\n      dup4\n        /* \"NftVoting.sol\":1889:1916  allProposals[proposalIndex] */\n      dup2\n      sload\n      dup2\n      lt\n      tag_93\n      jumpi\n      tag_93\n      tag_71\n      jump\t// in\n    tag_93:\n      swap1\n      0x00\n      mstore\n      keccak256(0x00, 0x20)\n      swap1\n      0x04\n      mul\n      add\n        /* \"NftVoting.sol\":1889:1925  allProposals[proposalIndex].yesVotes */\n      0x01\n      add\n      0x00\n        /* \"NftVoting.sol\":1889:1940  allProposals[proposalIndex].yesVotes += votingPower */\n      dup3\n      dup3\n      sload\n      tag_95\n      swap2\n      swap1\n      tag_64\n      jump\t// in\n    tag_95:\n      swap3\n      pop\n      pop\n      dup2\n      swap1\n      sstore\n        /* \"NftVoting.sol\":1882:1993  vote ? allProposals[proposalIndex].yesVotes += votingPower : allProposals[proposalIndex].noVotes += votingPower */\n    tag_91:\n      pop\n      pop\n        /* \"NftVoting.sol\":2013:2023  msg.sender */\n      caller\n        /* \"NftVoting.sol\":2004:2024  hasVoted[msg.sender] */\n      0x00\n      swap1\n      dup2\n      mstore\n        /* \"NftVoting.sol\":2004:2012  hasVoted */\n      0x04\n        /* \"NftVoting.sol\":2004:2024  hasVoted[msg.sender] */\n      0x20\n      swap1\n      dup2\n      mstore\n      0x40\n      dup3\n      keccak256\n        /* \"NftVoting.sol\":2004:2044  hasVoted[msg.sender].push(proposalIndex) */\n      dup1\n      sload\n      0x01\n      dup2\n      add\n      dup3\n      sstore\n      swap1\n      dup4\n      mstore\n      swap2\n      keccak256\n      add\n      sstore\n      pop\n        /* \"NftVoting.sol\":1728:2052  function castVote(bool vote, uint proposalIndex) public{... */\n      jump\t// out\n        /* \"NftVoting.sol\":1015:1057  mapping(address => uint[]) public hasVoted */\n    tag_33:\n      mstore(0x20, 0x04)\n      dup2\n      0x00\n      mstore\n      keccak256(0x00, 0x40)\n      dup2\n      dup2\n      sload\n      dup2\n      lt\n      tag_97\n      jumpi\n      0x00\n      dup1\n      revert\n    tag_97:\n      swap1\n      0x00\n      mstore\n      keccak256(0x00, 0x20)\n      add\n      0x00\n      swap2\n      pop\n      swap2\n      pop\n      pop\n      sload\n      dup2\n      jump\t// out\n        /* \"NftVoting.sol\":2058:2440  function getAllProposals() external view returns(Proposal[] memory){... */\n    tag_40:\n        /* \"NftVoting.sol\":2182:2194  allProposals */\n      0x03\n        /* \"NftVoting.sol\":2182:2201  allProposals.length */\n      sload\n        /* \"NftVoting.sol\":2107:2124  Proposal[] memory */\n      0x60\n      swap1\n        /* \"NftVoting.sol\":2136:2164  Proposal[] memory _proposals */\n      0x00\n      swap1\n        /* \"NftVoting.sol\":2167:2202  new Proposal[](allProposals.length) */\n      0xffffffffffffffff\n      dup2\n      gt\n      iszero\n      tag_101\n      jumpi\n      tag_101\n      tag_102\n      jump\t// in\n    tag_101:\n      mload(0x40)\n      swap1\n      dup1\n      dup3\n      mstore\n      dup1\n      0x20\n      mul\n      0x20\n      add\n      dup3\n      add\n      0x40\n      mstore\n      dup1\n      iszero\n      tag_103\n      jumpi\n      dup2\n      0x20\n      add\n    tag_104:\n      tag_105\n      mload(0x40)\n      dup1\n      0x80\n      add\n      0x40\n      mstore\n      dup1\n      0x60\n      dup2\n      mstore\n      0x20\n      add\n      0x00\n      dup2\n      mstore\n      0x20\n      add\n      0x00\n      dup2\n      mstore\n      0x20\n      add\n      and(sub(shl(0xa0, 0x01), 0x01), 0x00)\n      dup2\n      mstore\n      pop\n      swap1\n      jump\n    tag_105:\n      dup2\n      mstore\n      0x20\n      add\n      swap1\n      0x01\n      swap1\n      sub\n      swap1\n      dup2\n      tag_104\n      jumpi\n      swap1\n      pop\n    tag_103:\n      pop\n        /* \"NftVoting.sol\":2216:2228  allProposals */\n      0x03\n        /* \"NftVoting.sol\":2216:2235  allProposals.length */\n      sload\n        /* \"NftVoting.sol\":2136:2202  Proposal[] memory _proposals = new Proposal[](allProposals.length) */\n      swap1\n      swap2\n      pop\n        /* \"NftVoting.sol\":2239:2240  0 */\n      0x00\n        /* \"NftVoting.sol\":2216:2240  allProposals.length == 0 */\n      sub\n        /* \"NftVoting.sol\":2213:2292  if(allProposals.length == 0){... */\n      tag_107\n      jumpi\n        /* \"NftVoting.sol\":2263:2280  new Proposal[](0) */\n      0x40\n      dup1\n      mload\n        /* \"NftVoting.sol\":2278:2279  0 */\n      0x00\n        /* \"NftVoting.sol\":2263:2280  new Proposal[](0) */\n      dup1\n      dup3\n      mstore\n      0x20\n      dup3\n      add\n      swap1\n      swap3\n      mstore\n      swap1\n      jump(tag_110)\n    tag_111:\n      tag_112\n      mload(0x40)\n      dup1\n      0x80\n      add\n      0x40\n      mstore\n      dup1\n      0x60\n      dup2\n      mstore\n      0x20\n      add\n      0x00\n      dup2\n      mstore\n      0x20\n      add\n      0x00\n      dup2\n      mstore\n      0x20\n      add\n      and(sub(shl(0xa0, 0x01), 0x01), 0x00)\n      dup2\n      mstore\n      pop\n      swap1\n      jump\n    tag_112:\n      dup2\n      mstore\n      0x20\n      add\n      swap1\n      0x01\n      swap1\n      sub\n      swap1\n      dup2\n      tag_111\n      jumpi\n      swap1\n      pop\n    tag_110:\n      pop\n        /* \"NftVoting.sol\":2256:2280  return new Proposal[](0) */\n      swap2\n      pop\n      pop\n        /* \"NftVoting.sol\":2058:2440  function getAllProposals() external view returns(Proposal[] memory){... */\n      swap1\n      jump\t// out\n        /* \"NftVoting.sol\":2213:2292  if(allProposals.length == 0){... */\n    tag_107:\n        /* \"NftVoting.sol\":2306:2312  uint i */\n      0x00\n        /* \"NftVoting.sol\":2302:2405  for(uint i = 0; i < allProposals.length; i++){... */\n    tag_113:\n        /* \"NftVoting.sol\":2322:2334  allProposals */\n      0x03\n        /* \"NftVoting.sol\":2322:2341  allProposals.length */\n      sload\n        /* \"NftVoting.sol\":2318:2341  i < allProposals.length */\n      dup2\n      lt\n        /* \"NftVoting.sol\":2302:2405  for(uint i = 0; i < allProposals.length; i++){... */\n      iszero\n      tag_114\n      jumpi\n        /* \"NftVoting.sol\":2378:2390  allProposals */\n      0x03\n        /* \"NftVoting.sol\":2391:2392  i */\n      dup2\n        /* \"NftVoting.sol\":2378:2393  allProposals[i] */\n      dup2\n      sload\n      dup2\n      lt\n      tag_117\n      jumpi\n      tag_117\n      tag_71\n      jump\t// in\n    tag_117:\n      swap1\n      0x00\n      mstore\n      keccak256(0x00, 0x20)\n      swap1\n      0x04\n      mul\n      add\n        /* \"NftVoting.sol\":2362:2393  _proposals[i] = allProposals[i] */\n      mload(0x40)\n      dup1\n      0x80\n      add\n      0x40\n      mstore\n      swap1\n      dup2\n      0x00\n      dup3\n      add\n      dup1\n      sload\n      tag_119\n      swap1\n      tag_120\n      jump\t// in\n    tag_119:\n      dup1\n      0x1f\n      add\n      0x20\n      dup1\n      swap2\n      div\n      mul\n      0x20\n      add\n      mload(0x40)\n      swap1\n      dup2\n      add\n      0x40\n      mstore\n      dup1\n      swap3\n      swap2\n      swap1\n      dup2\n      dup2\n      mstore\n      0x20\n      add\n      dup3\n      dup1\n      sload\n      tag_121\n      swap1\n      tag_120\n      jump\t// in\n    tag_121:\n      dup1\n      iszero\n      tag_122\n      jumpi\n      dup1\n      0x1f\n      lt\n      tag_123\n      jumpi\n      0x0100\n      dup1\n      dup4\n      sload\n      div\n      mul\n      dup4\n      mstore\n      swap2\n      0x20\n      add\n      swap2\n      jump(tag_122)\n    tag_123:\n      dup3\n      add\n      swap2\n      swap1\n      0x00\n      mstore\n      keccak256(0x00, 0x20)\n      swap1\n    tag_124:\n      dup2\n      sload\n      dup2\n      mstore\n      swap1\n      0x01\n      add\n      swap1\n      0x20\n      add\n      dup1\n      dup4\n      gt\n      tag_124\n      jumpi\n      dup3\n      swap1\n      sub\n      0x1f\n      and\n      dup3\n      add\n      swap2\n    tag_122:\n      pop\n      pop\n      pop\n      swap2\n      dup4\n      mstore\n      pop\n      pop\n      0x01\n      dup3\n      add\n      sload\n      0x20\n      dup3\n      add\n      mstore\n      0x02\n      dup3\n      add\n      sload\n      0x40\n      dup3\n      add\n      mstore\n      0x03\n      swap1\n      swap2\n      add\n      sload\n      sub(shl(0xa0, 0x01), 0x01)\n      and\n      0x60\n      swap1\n      swap2\n      add\n      mstore\n        /* \"NftVoting.sol\":2362:2375  _proposals[i] */\n      dup3\n      mload\n        /* \"NftVoting.sol\":2362:2372  _proposals */\n      dup4\n      swap1\n        /* \"NftVoting.sol\":2373:2374  i */\n      dup4\n      swap1\n        /* \"NftVoting.sol\":2362:2375  _proposals[i] */\n      dup2\n      lt\n      tag_126\n      jumpi\n      tag_126\n      tag_71\n      jump\t// in\n    tag_126:\n      0x20\n      mul\n      0x20\n      add\n      add\n        /* \"NftVoting.sol\":2362:2393  _proposals[i] = allProposals[i] */\n      dup2\n      swap1\n      mstore\n      pop\n        /* \"NftVoting.sol\":2343:2346  i++ */\n      dup1\n      dup1\n      tag_127\n      swap1\n      tag_75\n      jump\t// in\n    tag_127:\n      swap2\n      pop\n      pop\n        /* \"NftVoting.sol\":2302:2405  for(uint i = 0; i < allProposals.length; i++){... */\n      jump(tag_113)\n    tag_114:\n      pop\n        /* \"NftVoting.sol\":2422:2432  _proposals */\n      swap2\n        /* \"NftVoting.sol\":2058:2440  function getAllProposals() external view returns(Proposal[] memory){... */\n      swap1\n      pop\n      jump\t// out\n    tag_81:\n      dup3\n      dup1\n      sload\n      tag_128\n      swap1\n      tag_120\n      jump\t// in\n    tag_128:\n      swap1\n      0x00\n      mstore\n      keccak256(0x00, 0x20)\n      swap1\n      0x1f\n      add\n      0x20\n      swap1\n      div\n      dup2\n      add\n      swap3\n      dup3\n      tag_130\n      jumpi\n      0x00\n      dup6\n      sstore\n      jump(tag_133)\n    tag_130:\n      dup3\n      0x1f\n      lt\n      tag_131\n      jumpi\n      dup1\n      mload\n      not(0xff)\n      and\n      dup4\n      dup1\n      add\n      or\n      dup6\n      sstore\n      jump(tag_133)\n    tag_131:\n      dup3\n      dup1\n      add\n      0x01\n      add\n      dup6\n      sstore\n      dup3\n      iszero\n      tag_133\n      jumpi\n      swap2\n      dup3\n      add\n    tag_132:\n      dup3\n      dup2\n      gt\n      iszero\n      tag_133\n      jumpi\n      dup3\n      mload\n      dup3\n      sstore\n      swap2\n      0x20\n      add\n      swap2\n      swap1\n      0x01\n      add\n      swap1\n      jump(tag_132)\n    tag_133:\n      pop\n      tag_134\n      swap3\n      swap2\n      pop\n      tag_135\n      jump\t// in\n    tag_134:\n      pop\n      swap1\n      jump\t// out\n    tag_135:\n    tag_136:\n      dup1\n      dup3\n      gt\n      iszero\n      tag_134\n      jumpi\n      0x00\n      dup2\n      sstore\n      0x01\n      add\n      jump(tag_136)\n        /* \"#utility.yul\":196:376   */\n    tag_18:\n        /* \"#utility.yul\":255:261   */\n      0x00\n        /* \"#utility.yul\":308:310   */\n      0x20\n        /* \"#utility.yul\":296:305   */\n      dup3\n        /* \"#utility.yul\":287:294   */\n      dup5\n        /* \"#utility.yul\":283:306   */\n      sub\n        /* \"#utility.yul\":279:311   */\n      slt\n        /* \"#utility.yul\":276:328   */\n      iszero\n      tag_143\n      jumpi\n        /* \"#utility.yul\":324:325   */\n      0x00\n        /* \"#utility.yul\":321:322   */\n      dup1\n        /* \"#utility.yul\":314:326   */\n      revert\n        /* \"#utility.yul\":276:328   */\n    tag_143:\n      pop\n        /* \"#utility.yul\":347:370   */\n      calldataload\n      swap2\n        /* \"#utility.yul\":196:376   */\n      swap1\n      pop\n      jump\t// out\n        /* \"#utility.yul\":573:700   */\n    tag_102:\n        /* \"#utility.yul\":634:644   */\n      0x4e487b71\n        /* \"#utility.yul\":629:632   */\n      0xe0\n        /* \"#utility.yul\":625:645   */\n      shl\n        /* \"#utility.yul\":622:623   */\n      0x00\n        /* \"#utility.yul\":615:646   */\n      mstore\n        /* \"#utility.yul\":665:669   */\n      0x41\n        /* \"#utility.yul\":662:663   */\n      0x04\n        /* \"#utility.yul\":655:670   */\n      mstore\n        /* \"#utility.yul\":689:693   */\n      0x24\n        /* \"#utility.yul\":686:687   */\n      0x00\n        /* \"#utility.yul\":679:694   */\n      revert\n        /* \"#utility.yul\":705:1627   */\n    tag_24:\n        /* \"#utility.yul\":774:780   */\n      0x00\n        /* \"#utility.yul\":827:829   */\n      0x20\n        /* \"#utility.yul\":815:824   */\n      dup3\n        /* \"#utility.yul\":806:813   */\n      dup5\n        /* \"#utility.yul\":802:825   */\n      sub\n        /* \"#utility.yul\":798:830   */\n      slt\n        /* \"#utility.yul\":795:847   */\n      iszero\n      tag_147\n      jumpi\n        /* \"#utility.yul\":843:844   */\n      0x00\n        /* \"#utility.yul\":840:841   */\n      dup1\n        /* \"#utility.yul\":833:845   */\n      revert\n        /* \"#utility.yul\":795:847   */\n    tag_147:\n        /* \"#utility.yul\":883:892   */\n      dup2\n        /* \"#utility.yul\":870:893   */\n      calldataload\n        /* \"#utility.yul\":912:930   */\n      0xffffffffffffffff\n        /* \"#utility.yul\":953:955   */\n      dup1\n        /* \"#utility.yul\":945:951   */\n      dup3\n        /* \"#utility.yul\":942:956   */\n      gt\n        /* \"#utility.yul\":939:973   */\n      iszero\n      tag_148\n      jumpi\n        /* \"#utility.yul\":969:970   */\n      0x00\n        /* \"#utility.yul\":966:967   */\n      dup1\n        /* \"#utility.yul\":959:971   */\n      revert\n        /* \"#utility.yul\":939:973   */\n    tag_148:\n        /* \"#utility.yul\":1007:1013   */\n      dup2\n        /* \"#utility.yul\":996:1005   */\n      dup5\n        /* \"#utility.yul\":992:1014   */\n      add\n        /* \"#utility.yul\":982:1014   */\n      swap2\n      pop\n        /* \"#utility.yul\":1052:1059   */\n      dup5\n        /* \"#utility.yul\":1045:1049   */\n      0x1f\n        /* \"#utility.yul\":1041:1043   */\n      dup4\n        /* \"#utility.yul\":1037:1050   */\n      add\n        /* \"#utility.yul\":1033:1060   */\n      slt\n        /* \"#utility.yul\":1023:1078   */\n      tag_149\n      jumpi\n        /* \"#utility.yul\":1074:1075   */\n      0x00\n        /* \"#utility.yul\":1071:1072   */\n      dup1\n        /* \"#utility.yul\":1064:1076   */\n      revert\n        /* \"#utility.yul\":1023:1078   */\n    tag_149:\n        /* \"#utility.yul\":1110:1112   */\n      dup2\n        /* \"#utility.yul\":1097:1113   */\n      calldataload\n        /* \"#utility.yul\":1132:1134   */\n      dup2\n        /* \"#utility.yul\":1128:1130   */\n      dup2\n        /* \"#utility.yul\":1125:1135   */\n      gt\n        /* \"#utility.yul\":1122:1158   */\n      iszero\n      tag_151\n      jumpi\n        /* \"#utility.yul\":1138:1156   */\n      tag_151\n      tag_102\n      jump\t// in\n    tag_151:\n        /* \"#utility.yul\":1213:1215   */\n      0x40\n        /* \"#utility.yul\":1207:1216   */\n      mload\n        /* \"#utility.yul\":1181:1183   */\n      0x1f\n        /* \"#utility.yul\":1267:1280   */\n      dup3\n      add\n      not(0x1f)\n        /* \"#utility.yul\":1263:1285   */\n      swap1\n      dup2\n      and\n        /* \"#utility.yul\":1287:1289   */\n      0x3f\n        /* \"#utility.yul\":1259:1290   */\n      add\n        /* \"#utility.yul\":1255:1295   */\n      and\n        /* \"#utility.yul\":1243:1296   */\n      dup2\n      add\n      swap1\n        /* \"#utility.yul\":1311:1329   */\n      dup4\n      dup3\n      gt\n        /* \"#utility.yul\":1331:1353   */\n      dup2\n      dup4\n      lt\n        /* \"#utility.yul\":1308:1354   */\n      or\n        /* \"#utility.yul\":1305:1377   */\n      iszero\n      tag_153\n      jumpi\n        /* \"#utility.yul\":1357:1375   */\n      tag_153\n      tag_102\n      jump\t// in\n    tag_153:\n        /* \"#utility.yul\":1397:1407   */\n      dup2\n        /* \"#utility.yul\":1393:1395   */\n      0x40\n        /* \"#utility.yul\":1386:1408   */\n      mstore\n        /* \"#utility.yul\":1432:1434   */\n      dup3\n        /* \"#utility.yul\":1424:1430   */\n      dup2\n        /* \"#utility.yul\":1417:1435   */\n      mstore\n        /* \"#utility.yul\":1472:1479   */\n      dup8\n        /* \"#utility.yul\":1467:1469   */\n      0x20\n        /* \"#utility.yul\":1462:1464   */\n      dup5\n        /* \"#utility.yul\":1458:1460   */\n      dup8\n        /* \"#utility.yul\":1454:1465   */\n      add\n        /* \"#utility.yul\":1450:1470   */\n      add\n        /* \"#utility.yul\":1447:1480   */\n      gt\n        /* \"#utility.yul\":1444:1497   */\n      iszero\n      tag_154\n      jumpi\n        /* \"#utility.yul\":1493:1494   */\n      0x00\n        /* \"#utility.yul\":1490:1491   */\n      dup1\n        /* \"#utility.yul\":1483:1495   */\n      revert\n        /* \"#utility.yul\":1444:1497   */\n    tag_154:\n        /* \"#utility.yul\":1549:1551   */\n      dup3\n        /* \"#utility.yul\":1544:1546   */\n      0x20\n        /* \"#utility.yul\":1540:1542   */\n      dup7\n        /* \"#utility.yul\":1536:1547   */\n      add\n        /* \"#utility.yul\":1531:1533   */\n      0x20\n        /* \"#utility.yul\":1523:1529   */\n      dup4\n        /* \"#utility.yul\":1519:1534   */\n      add\n        /* \"#utility.yul\":1506:1552   */\n      calldatacopy\n        /* \"#utility.yul\":1594:1595   */\n      0x00\n        /* \"#utility.yul\":1572:1587   */\n      swap3\n      dup2\n      add\n        /* \"#utility.yul\":1589:1591   */\n      0x20\n        /* \"#utility.yul\":1568:1592   */\n      add\n        /* \"#utility.yul\":1561:1596   */\n      swap3\n      swap1\n      swap3\n      mstore\n      pop\n        /* \"#utility.yul\":1576:1582   */\n      swap6\n        /* \"#utility.yul\":705:1627   */\n      swap5\n      pop\n      pop\n      pop\n      pop\n      pop\n      jump\t// out\n        /* \"#utility.yul\":1632:1973   */\n    tag_28:\n        /* \"#utility.yul\":1697:1703   */\n      0x00\n        /* \"#utility.yul\":1705:1711   */\n      dup1\n        /* \"#utility.yul\":1758:1760   */\n      0x40\n        /* \"#utility.yul\":1746:1755   */\n      dup4\n        /* \"#utility.yul\":1737:1744   */\n      dup6\n        /* \"#utility.yul\":1733:1756   */\n      sub\n        /* \"#utility.yul\":1729:1761   */\n      slt\n        /* \"#utility.yul\":1726:1778   */\n      iszero\n      tag_156\n      jumpi\n        /* \"#utility.yul\":1774:1775   */\n      0x00\n        /* \"#utility.yul\":1771:1772   */\n      dup1\n        /* \"#utility.yul\":1764:1776   */\n      revert\n        /* \"#utility.yul\":1726:1778   */\n    tag_156:\n        /* \"#utility.yul\":1813:1822   */\n      dup3\n        /* \"#utility.yul\":1800:1823   */\n      calldataload\n        /* \"#utility.yul\":1866:1871   */\n      dup1\n        /* \"#utility.yul\":1859:1872   */\n      iszero\n        /* \"#utility.yul\":1852:1873   */\n      iszero\n        /* \"#utility.yul\":1845:1850   */\n      dup2\n        /* \"#utility.yul\":1842:1874   */\n      eq\n        /* \"#utility.yul\":1832:1892   */\n      tag_157\n      jumpi\n        /* \"#utility.yul\":1888:1889   */\n      0x00\n        /* \"#utility.yul\":1885:1886   */\n      dup1\n        /* \"#utility.yul\":1878:1890   */\n      revert\n        /* \"#utility.yul\":1832:1892   */\n    tag_157:\n        /* \"#utility.yul\":1911:1916   */\n      swap5\n        /* \"#utility.yul\":1963:1965   */\n      0x20\n        /* \"#utility.yul\":1948:1966   */\n      swap4\n      swap1\n      swap4\n      add\n        /* \"#utility.yul\":1935:1967   */\n      calldataload\n      swap4\n      pop\n      pop\n      pop\n        /* \"#utility.yul\":1632:1973   */\n      jump\t// out\n        /* \"#utility.yul\":1978:2355   */\n    tag_32:\n        /* \"#utility.yul\":2046:2052   */\n      0x00\n        /* \"#utility.yul\":2054:2060   */\n      dup1\n        /* \"#utility.yul\":2107:2109   */\n      0x40\n        /* \"#utility.yul\":2095:2104   */\n      dup4\n        /* \"#utility.yul\":2086:2093   */\n      dup6\n        /* \"#utility.yul\":2082:2105   */\n      sub\n        /* \"#utility.yul\":2078:2110   */\n      slt\n        /* \"#utility.yul\":2075:2127   */\n      iszero\n      tag_159\n      jumpi\n        /* \"#utility.yul\":2123:2124   */\n      0x00\n        /* \"#utility.yul\":2120:2121   */\n      dup1\n        /* \"#utility.yul\":2113:2125   */\n      revert\n        /* \"#utility.yul\":2075:2127   */\n    tag_159:\n        /* \"#utility.yul\":2162:2171   */\n      dup3\n        /* \"#utility.yul\":2149:2172   */\n      calldataload\n      sub(shl(0xa0, 0x01), 0x01)\n        /* \"#utility.yul\":2205:2210   */\n      dup2\n        /* \"#utility.yul\":2201:2255   */\n      and\n        /* \"#utility.yul\":2194:2199   */\n      dup2\n        /* \"#utility.yul\":2191:2256   */\n      eq\n        /* \"#utility.yul\":2181:2274   */\n      tag_157\n      jumpi\n        /* \"#utility.yul\":2270:2271   */\n      0x00\n        /* \"#utility.yul\":2267:2268   */\n      dup1\n        /* \"#utility.yul\":2260:2272   */\n      revert\n        /* \"#utility.yul\":2739:4446   */\n    tag_42:\n        /* \"#utility.yul\":2931:2935   */\n      0x00\n        /* \"#utility.yul\":2960:2962   */\n      0x20\n        /* \"#utility.yul\":3000:3002   */\n      dup1\n        /* \"#utility.yul\":2989:2998   */\n      dup4\n        /* \"#utility.yul\":2985:3003   */\n      add\n        /* \"#utility.yul\":3030:3032   */\n      dup2\n        /* \"#utility.yul\":3019:3028   */\n      dup5\n        /* \"#utility.yul\":3012:3033   */\n      mstore\n        /* \"#utility.yul\":3053:3059   */\n      dup1\n        /* \"#utility.yul\":3088:3094   */\n      dup6\n        /* \"#utility.yul\":3082:3095   */\n      mload\n        /* \"#utility.yul\":3119:3125   */\n      dup1\n        /* \"#utility.yul\":3111:3117   */\n      dup4\n        /* \"#utility.yul\":3104:3126   */\n      mstore\n        /* \"#utility.yul\":3145:3147   */\n      0x40\n        /* \"#utility.yul\":3135:3147   */\n      swap3\n      pop\n        /* \"#utility.yul\":3178:3180   */\n      dup3\n        /* \"#utility.yul\":3167:3176   */\n      dup7\n        /* \"#utility.yul\":3163:3181   */\n      add\n        /* \"#utility.yul\":3156:3181   */\n      swap2\n      pop\n        /* \"#utility.yul\":3240:3242   */\n      dup3\n        /* \"#utility.yul\":3230:3236   */\n      dup2\n        /* \"#utility.yul\":3227:3228   */\n      0x05\n        /* \"#utility.yul\":3223:3237   */\n      shl\n        /* \"#utility.yul\":3212:3221   */\n      dup8\n        /* \"#utility.yul\":3208:3238   */\n      add\n        /* \"#utility.yul\":3204:3243   */\n      add\n        /* \"#utility.yul\":3278:3280   */\n      dup5\n        /* \"#utility.yul\":3270:3276   */\n      dup9\n        /* \"#utility.yul\":3266:3281   */\n      add\n        /* \"#utility.yul\":3299:3300   */\n      0x00\n        /* \"#utility.yul\":3320:3321   */\n      dup1\n        /* \"#utility.yul\":3330:4417   */\n    tag_164:\n        /* \"#utility.yul\":3346:3352   */\n      dup5\n        /* \"#utility.yul\":3341:3344   */\n      dup2\n        /* \"#utility.yul\":3338:3353   */\n      lt\n        /* \"#utility.yul\":3330:4417   */\n      iszero\n      tag_166\n      jumpi\n        /* \"#utility.yul\":3443:3445   */\n      0x3f\n        /* \"#utility.yul\":3439:3446   */\n      not\n        /* \"#utility.yul\":3427:3436   */\n      dup11\n        /* \"#utility.yul\":3419:3425   */\n      dup6\n        /* \"#utility.yul\":3415:3437   */\n      sub\n        /* \"#utility.yul\":3411:3447   */\n      add\n        /* \"#utility.yul\":3406:3409   */\n      dup7\n        /* \"#utility.yul\":3399:3448   */\n      mstore\n        /* \"#utility.yul\":3477:3483   */\n      dup3\n        /* \"#utility.yul\":3471:3484   */\n      mload\n        /* \"#utility.yul\":3507:3511   */\n      0x80\n        /* \"#utility.yul\":3550:3552   */\n      dup2\n        /* \"#utility.yul\":3544:3553   */\n      mload\n        /* \"#utility.yul\":3581:3583   */\n      dup2\n        /* \"#utility.yul\":3573:3579   */\n      dup8\n        /* \"#utility.yul\":3566:3584   */\n      mstore\n        /* \"#utility.yul\":3619:3631   */\n      dup1\n        /* \"#utility.yul\":3613:3632   */\n      mload\n        /* \"#utility.yul\":3669:3677   */\n      dup1\n        /* \"#utility.yul\":3664:3666   */\n      dup4\n        /* \"#utility.yul\":3656:3662   */\n      dup10\n        /* \"#utility.yul\":3652:3667   */\n      add\n        /* \"#utility.yul\":3645:3678   */\n      mstore\n        /* \"#utility.yul\":3702:3703   */\n      dup6\n        /* \"#utility.yul\":3691:3703   */\n      swap3\n      pop\n        /* \"#utility.yul\":3716:3884   */\n    tag_167:\n        /* \"#utility.yul\":3732:3740   */\n      dup1\n        /* \"#utility.yul\":3727:3730   */\n      dup4\n        /* \"#utility.yul\":3724:3741   */\n      lt\n        /* \"#utility.yul\":3716:3884   */\n      iszero\n      tag_169\n      jumpi\n        /* \"#utility.yul\":3841:3863   */\n      dup2\n      dup4\n      add\n        /* \"#utility.yul\":3837:3868   */\n      dup13\n      add\n        /* \"#utility.yul\":3831:3869   */\n      mload\n        /* \"#utility.yul\":3807:3823   */\n      dup9\n      dup5\n      add\n        /* \"#utility.yul\":3825:3828   */\n      0xa0\n        /* \"#utility.yul\":3803:3829   */\n      add\n        /* \"#utility.yul\":3796:3870   */\n      mstore\n        /* \"#utility.yul\":3751:3763   */\n      swap2\n      dup12\n      add\n      swap2\n        /* \"#utility.yul\":3716:3884   */\n      jump(tag_167)\n    tag_169:\n        /* \"#utility.yul\":3908:3916   */\n      dup1\n        /* \"#utility.yul\":3903:3906   */\n      dup4\n        /* \"#utility.yul\":3900:3917   */\n      gt\n        /* \"#utility.yul\":3897:4004   */\n      iszero\n      tag_170\n      jumpi\n        /* \"#utility.yul\":3988:3989   */\n      dup6\n        /* \"#utility.yul\":3982:3985   */\n      0xa0\n        /* \"#utility.yul\":3971:3979   */\n      dup3\n        /* \"#utility.yul\":3963:3969   */\n      dup11\n        /* \"#utility.yul\":3959:3980   */\n      add\n        /* \"#utility.yul\":3955:3986   */\n      add\n        /* \"#utility.yul\":3948:3990   */\n      mstore\n        /* \"#utility.yul\":3897:4004   */\n    tag_170:\n        /* \"#utility.yul\":4047:4058   */\n      dup12\n      dup5\n      add\n        /* \"#utility.yul\":4041:4059   */\n      mload\n        /* \"#utility.yul\":4024:4039   */\n      dup9\n      dup14\n      add\n        /* \"#utility.yul\":4017:4060   */\n      mstore\n        /* \"#utility.yul\":4103:4114   */\n      dup11\n      dup5\n      add\n        /* \"#utility.yul\":4097:4115   */\n      mload\n        /* \"#utility.yul\":4080:4095   */\n      dup12\n      dup10\n      add\n        /* \"#utility.yul\":4073:4116   */\n      mstore\n        /* \"#utility.yul\":4139:4143   */\n      0x60\n        /* \"#utility.yul\":4184:4195   */\n      swap4\n      dup5\n      add\n        /* \"#utility.yul\":4178:4196   */\n      mload\n      sub(shl(0xa0, 0x01), 0x01)\n        /* \"#utility.yul\":2673:2727   */\n      dup2\n      and\n        /* \"#utility.yul\":4244:4259   */\n      dup6\n      dup11\n      add\n        /* \"#utility.yul\":2661:2728   */\n      mstore\n        /* \"#utility.yul\":4178:4196   */\n      swap4\n        /* \"#utility.yul\":4139:4143   */\n      swap3\n      pop\n        /* \"#utility.yul\":4395:4407   */\n      swap9\n      dup12\n      add\n      swap9\n        /* \"#utility.yul\":4326:4328   */\n      0x1f\n        /* \"#utility.yul\":4303:4320   */\n      add\n      not(0x1f)\n        /* \"#utility.yul\":4299:4330   */\n      and\n        /* \"#utility.yul\":4287:4331   */\n      swap7\n      swap1\n      swap7\n      add\n        /* \"#utility.yul\":4333:4336   */\n      0xa0\n        /* \"#utility.yul\":4283:4337   */\n      add\n      swap6\n      pop\n      pop\n      pop\n        /* \"#utility.yul\":4360:4375   */\n      swap2\n      dup8\n      add\n      swap2\n        /* \"#utility.yul\":3372:3373   */\n      0x01\n        /* \"#utility.yul\":3363:3374   */\n      add\n        /* \"#utility.yul\":3330:4417   */\n      jump(tag_164)\n    tag_166:\n      pop\n        /* \"#utility.yul\":4434:4440   */\n      swap2\n      swap10\n        /* \"#utility.yul\":2739:4446   */\n      swap9\n      pop\n      pop\n      pop\n      pop\n      pop\n      pop\n      pop\n      pop\n      pop\n      jump\t// out\n        /* \"#utility.yul\":4927:5111   */\n    tag_53:\n        /* \"#utility.yul\":4997:5003   */\n      0x00\n        /* \"#utility.yul\":5050:5052   */\n      0x20\n        /* \"#utility.yul\":5038:5047   */\n      dup3\n        /* \"#utility.yul\":5029:5036   */\n      dup5\n        /* \"#utility.yul\":5025:5048   */\n      sub\n        /* \"#utility.yul\":5021:5053   */\n      slt\n        /* \"#utility.yul\":5018:5070   */\n      iszero\n      tag_175\n      jumpi\n        /* \"#utility.yul\":5066:5067   */\n      0x00\n        /* \"#utility.yul\":5063:5064   */\n      dup1\n        /* \"#utility.yul\":5056:5068   */\n      revert\n        /* \"#utility.yul\":5018:5070   */\n    tag_175:\n      pop\n        /* \"#utility.yul\":5089:5105   */\n      mload\n      swap2\n        /* \"#utility.yul\":4927:5111   */\n      swap1\n      pop\n      jump\t// out\n        /* \"#utility.yul\":5116:5243   */\n    tag_139:\n        /* \"#utility.yul\":5177:5187   */\n      0x4e487b71\n        /* \"#utility.yul\":5172:5175   */\n      0xe0\n        /* \"#utility.yul\":5168:5188   */\n      shl\n        /* \"#utility.yul\":5165:5166   */\n      0x00\n        /* \"#utility.yul\":5158:5189   */\n      mstore\n        /* \"#utility.yul\":5208:5212   */\n      0x11\n        /* \"#utility.yul\":5205:5206   */\n      0x04\n        /* \"#utility.yul\":5198:5213   */\n      mstore\n        /* \"#utility.yul\":5232:5236   */\n      0x24\n        /* \"#utility.yul\":5229:5230   */\n      0x00\n        /* \"#utility.yul\":5222:5237   */\n      revert\n        /* \"#utility.yul\":5248:5416   */\n    tag_55:\n        /* \"#utility.yul\":5288:5295   */\n      0x00\n        /* \"#utility.yul\":5354:5355   */\n      dup2\n        /* \"#utility.yul\":5350:5351   */\n      0x00\n        /* \"#utility.yul\":5346:5352   */\n      not\n        /* \"#utility.yul\":5342:5356   */\n      div\n        /* \"#utility.yul\":5339:5340   */\n      dup4\n        /* \"#utility.yul\":5336:5357   */\n      gt\n        /* \"#utility.yul\":5331:5332   */\n      dup3\n        /* \"#utility.yul\":5324:5333   */\n      iszero\n        /* \"#utility.yul\":5317:5334   */\n      iszero\n        /* \"#utility.yul\":5313:5358   */\n      and\n        /* \"#utility.yul\":5310:5381   */\n      iszero\n      tag_179\n      jumpi\n        /* \"#utility.yul\":5361:5379   */\n      tag_179\n      tag_139\n      jump\t// in\n    tag_179:\n      pop\n        /* \"#utility.yul\":5401:5410   */\n      mul\n      swap1\n        /* \"#utility.yul\":5248:5416   */\n      jump\t// out\n        /* \"#utility.yul\":5421:5638   */\n    tag_62:\n        /* \"#utility.yul\":5461:5462   */\n      0x00\n        /* \"#utility.yul\":5487:5488   */\n      dup3\n        /* \"#utility.yul\":5477:5609   */\n      tag_181\n      jumpi\n        /* \"#utility.yul\":5531:5541   */\n      0x4e487b71\n        /* \"#utility.yul\":5526:5529   */\n      0xe0\n        /* \"#utility.yul\":5522:5542   */\n      shl\n        /* \"#utility.yul\":5519:5520   */\n      0x00\n        /* \"#utility.yul\":5512:5543   */\n      mstore\n        /* \"#utility.yul\":5566:5570   */\n      0x12\n        /* \"#utility.yul\":5563:5564   */\n      0x04\n        /* \"#utility.yul\":5556:5571   */\n      mstore\n        /* \"#utility.yul\":5594:5598   */\n      0x24\n        /* \"#utility.yul\":5591:5592   */\n      0x00\n        /* \"#utility.yul\":5584:5599   */\n      revert\n        /* \"#utility.yul\":5477:5609   */\n    tag_181:\n      pop\n        /* \"#utility.yul\":5623:5632   */\n      div\n      swap1\n        /* \"#utility.yul\":5421:5638   */\n      jump\t// out\n        /* \"#utility.yul\":5643:5771   */\n    tag_64:\n        /* \"#utility.yul\":5683:5686   */\n      0x00\n        /* \"#utility.yul\":5714:5715   */\n      dup3\n        /* \"#utility.yul\":5710:5716   */\n      not\n        /* \"#utility.yul\":5707:5708   */\n      dup3\n        /* \"#utility.yul\":5704:5717   */\n      gt\n        /* \"#utility.yul\":5701:5740   */\n      iszero\n      tag_184\n      jumpi\n        /* \"#utility.yul\":5720:5738   */\n      tag_184\n      tag_139\n      jump\t// in\n    tag_184:\n      pop\n        /* \"#utility.yul\":5756:5765   */\n      add\n      swap1\n        /* \"#utility.yul\":5643:5771   */\n      jump\t// out\n        /* \"#utility.yul\":5776:5903   */\n    tag_71:\n        /* \"#utility.yul\":5837:5847   */\n      0x4e487b71\n        /* \"#utility.yul\":5832:5835   */\n      0xe0\n        /* \"#utility.yul\":5828:5848   */\n      shl\n        /* \"#utility.yul\":5825:5826   */\n      0x00\n        /* \"#utility.yul\":5818:5849   */\n      mstore\n        /* \"#utility.yul\":5868:5872   */\n      0x32\n        /* \"#utility.yul\":5865:5866   */\n      0x04\n        /* \"#utility.yul\":5858:5873   */\n      mstore\n        /* \"#utility.yul\":5892:5896   */\n      0x24\n        /* \"#utility.yul\":5889:5890   */\n      0x00\n        /* \"#utility.yul\":5882:5897   */\n      revert\n        /* \"#utility.yul\":5908:6043   */\n    tag_75:\n        /* \"#utility.yul\":5947:5950   */\n      0x00\n        /* \"#utility.yul\":5968:5985   */\n      0x01\n      dup3\n      add\n        /* \"#utility.yul\":5965:6008   */\n      tag_188\n      jumpi\n        /* \"#utility.yul\":5988:6006   */\n      tag_188\n      tag_139\n      jump\t// in\n    tag_188:\n      pop\n        /* \"#utility.yul\":6035:6036   */\n      0x01\n        /* \"#utility.yul\":6024:6037   */\n      add\n      swap1\n        /* \"#utility.yul\":5908:6043   */\n      jump\t// out\n        /* \"#utility.yul\":6048:6428   */\n    tag_120:\n        /* \"#utility.yul\":6127:6128   */\n      0x01\n        /* \"#utility.yul\":6123:6135   */\n      dup2\n      dup2\n      shr\n      swap1\n        /* \"#utility.yul\":6170:6182   */\n      dup3\n      and\n      dup1\n        /* \"#utility.yul\":6191:6252   */\n      tag_190\n      jumpi\n        /* \"#utility.yul\":6245:6249   */\n      0x7f\n        /* \"#utility.yul\":6237:6243   */\n      dup3\n        /* \"#utility.yul\":6233:6250   */\n      and\n        /* \"#utility.yul\":6223:6250   */\n      swap2\n      pop\n        /* \"#utility.yul\":6191:6252   */\n    tag_190:\n        /* \"#utility.yul\":6298:6300   */\n      0x20\n        /* \"#utility.yul\":6290:6296   */\n      dup3\n        /* \"#utility.yul\":6287:6301   */\n      lt\n        /* \"#utility.yul\":6267:6285   */\n      dup2\n        /* \"#utility.yul\":6264:6302   */\n      sub\n        /* \"#utility.yul\":6261:6422   */\n      tag_114\n      jumpi\n        /* \"#utility.yul\":6344:6354   */\n      0x4e487b71\n        /* \"#utility.yul\":6339:6342   */\n      0xe0\n        /* \"#utility.yul\":6335:6355   */\n      shl\n        /* \"#utility.yul\":6332:6333   */\n      0x00\n        /* \"#utility.yul\":6325:6356   */\n      mstore\n        /* \"#utility.yul\":6379:6383   */\n      0x22\n        /* \"#utility.yul\":6376:6377   */\n      0x04\n        /* \"#utility.yul\":6369:6384   */\n      mstore\n        /* \"#utility.yul\":6407:6411   */\n      0x24\n        /* \"#utility.yul\":6404:6405   */\n      0x00\n        /* \"#utility.yul\":6397:6412   */\n      revert\n\n    auxdata: 0xa26469706673582212204edf77c4acf060cefccbe778a5a77c72557a6baab0fd5cf32b3bda75a2fd7da464736f6c634300080d0033\n}\n",
    "bytecode": {
      "linkReferences": {},
      "object": "60c06040526064600155600a60025534801561001a57600080fd5b50604051610bd5380380610bd58339810160408190526100399161006d565b60016000556001600160a01b0391821660a052166080526100a7565b6001600160a01b038116811461006a57600080fd5b50565b6000806040838503121561008057600080fd5b825161008b81610055565b602084015190925061009c81610055565b809150509250929050565b60805160a051610afb6100da6000396000818161010b01526101a501526000818161015f01526102450152610afb6000f3fe608060405234801561001057600080fd5b50600436106100885760003560e01c8063425458251161005b57806342545825146100f35780636588103b14610106578063cceb68f514610145578063d1af0c7d1461015a57600080fd5b8063087f02701461008d57806325746251146100a85780632fdae3c5146100cb5780633f2fa030146100e0575b600080fd5b610095610181565b6040519081526020015b60405180910390f35b6100bb6100b63660046107cb565b6102d3565b604051901515815260200161009f565b6100de6100d93660046107fa565b610346565b005b6100de6100ee3660046108ab565b61041c565b6100956101013660046108dc565b6104de565b61012d7f000000000000000000000000000000000000000000000000000000000000000081565b6040516001600160a01b03909116815260200161009f565b61014d61050f565b60405161009f9190610906565b61012d7f000000000000000000000000000000000000000000000000000000000000000081565b6001546040516370a0823160e01b8152336004820152600091906001600160a01b037f000000000000000000000000000000000000000000000000000000000000000016906370a0823190602401602060405180830381865afa1580156101ec573d6000803e3d6000fd5b505050506040513d601f19601f8201168201806040525081019061021091906109da565b61021a9190610a09565b6002546040516370a0823160e01b8152336004820152670de0b6b3a764000091906001600160a01b037f000000000000000000000000000000000000000000000000000000000000000016906370a0823190602401602060405180830381865afa15801561028c573d6000803e3d6000fd5b505050506040513d601f19601f820116820180604052508101906102b091906109da565b6102ba9190610a09565b6102c49190610a28565b6102ce9190610a4a565b905090565b6000805b3360009081526004602052604090205481101561033d5733600090815260046020526040902080548491908390811061031257610312610a62565b90600052602060002001540361032b5750600092915050565b8061033581610a78565b9150506102d7565b50600192915050565b6000610350610181565b1161035a57600080fd5b604080516080810182528281526000602080830182905292820181905233606083015260038054600181018255915281518051929360049092027fc2575a0e9e593c00f959f8c92f12db2869c3395a3b0502d05e2516446f71f85b01926103c49284920190610732565b506020820151600182015560408201516002820155606090910151600390910180547fffffffffffffffffffffffff0000000000000000000000000000000000000000166001600160a01b0390921691909117905550565b610425816102d3565b61042e57600080fd5b6000610438610181565b90508261047e57806003838154811061045357610453610a62565b906000526020600020906004020160020160008282546104739190610a4a565b9250508190556104b9565b806003838154811061049257610492610a62565b906000526020600020906004020160010160008282546104b29190610a4a565b9250508190555b5050336000908152600460209081526040822080546001810182559083529120015550565b600460205281600052604060002081815481106104fa57600080fd5b90600052602060002001600091509150505481565b60035460609060009067ffffffffffffffff811115610530576105306107e4565b60405190808252806020026020018201604052801561059557816020015b610582604051806080016040528060608152602001600081526020016000815260200160006001600160a01b031681525090565b81526020019060019003908161054e5790505b50600354909150600003610607576040805160008082526020820190925290610600565b6105ed604051806080016040528060608152602001600081526020016000815260200160006001600160a01b031681525090565b8152602001906001900390816105b95790505b5091505090565b60005b60035481101561072c576003818154811061062757610627610a62565b906000526020600020906004020160405180608001604052908160008201805461065090610a91565b80601f016020809104026020016040519081016040528092919081815260200182805461067c90610a91565b80156106c95780601f1061069e576101008083540402835291602001916106c9565b820191906000526020600020905b8154815290600101906020018083116106ac57829003601f168201915b505050918352505060018201546020820152600282015460408201526003909101546001600160a01b0316606090910152825183908390811061070e5761070e610a62565b6020026020010181905250808061072490610a78565b91505061060a565b50919050565b82805461073e90610a91565b90600052602060002090601f01602090048101928261076057600085556107a6565b82601f1061077957805160ff19168380011785556107a6565b828001600101855582156107a6579182015b828111156107a657825182559160200191906001019061078b565b506107b29291506107b6565b5090565b5b808211156107b257600081556001016107b7565b6000602082840312156107dd57600080fd5b5035919050565b634e487b7160e01b600052604160045260246000fd5b60006020828403121561080c57600080fd5b813567ffffffffffffffff8082111561082457600080fd5b818401915084601f83011261083857600080fd5b81358181111561084a5761084a6107e4565b604051601f8201601f19908116603f01168101908382118183101715610872576108726107e4565b8160405282815287602084870101111561088b57600080fd5b826020860160208301376000928101602001929092525095945050505050565b600080604083850312156108be57600080fd5b823580151581146108ce57600080fd5b946020939093013593505050565b600080604083850312156108ef57600080fd5b82356001600160a01b03811681146108ce57600080fd5b60006020808301818452808551808352604092508286019150828160051b8701018488016000805b848110156109cb57603f198a8503018652825160808151818752805180838901528592505b80831015610971578183018c015188840160a00152918b0191610953565b80831115610982578560a0828a0101525b8b840151888d01528a8401518b8901526060938401516001600160a01b038116858a0152939250988b0198601f01601f19169690960160a001955050509187019160010161092e565b50919998505050505050505050565b6000602082840312156109ec57600080fd5b5051919050565b634e487b7160e01b600052601160045260246000fd5b6000816000190483118215151615610a2357610a236109f3565b500290565b600082610a4557634e487b7160e01b600052601260045260246000fd5b500490565b60008219821115610a5d57610a5d6109f3565b500190565b634e487b7160e01b600052603260045260246000fd5b600060018201610a8a57610a8a6109f3565b5060010190565b600181811c90821680610aa557607f821691505b60208210810361072c57634e487b7160e01b600052602260045260246000fdfea26469706673582212204edf77c4acf060cefccbe778a5a77c72557a6baab0fd5cf32b3bda75a2fd7da464736f6c634300080d0033",
      "opcodes": "PUSH1 0xC0 PUSH1 0x40 MSTORE PUSH1 0x64 PUSH1 0x1 SSTORE PUSH1 0xA PUSH1 0x2 SSTORE CALLVALUE DUP1 ISZERO PUSH2 0x1A JUMPI PUSH1 0x0 DUP1 REVERT JUMPDEST POP PUSH1 0x40 MLOAD PUSH2 0xBD5 CODESIZE SUB DUP1 PUSH2 0xBD5 DUP4 CODECOPY DUP2 ADD PUSH1 0x40 DUP2 SWAP1 MSTORE PUSH2 0x39 SWAP2 PUSH2 0x6D JUMP JUMPDEST PUSH1 0x1 PUSH1 0x0 SSTORE PUSH1 0x1 PUSH1 0x1 PUSH1 0xA0 SHL SUB SWAP2 DUP3 AND PUSH1 0xA0 MSTORE AND PUSH1 0x80 MSTORE PUSH2 0xA7 JUMP JUMPDEST PUSH1 0x1 PUSH1 0x1 PUSH1 0xA0 SHL SUB DUP2 AND DUP2 EQ PUSH2 0x6A JUMPI PUSH1 0x0 DUP1 REVERT JUMPDEST POP JUMP JUMPDEST PUSH1 0x0 DUP1 PUSH1 0x40 DUP4 DUP6 SUB SLT ISZERO PUSH2 0x80 JUMPI PUSH1 0x0 DUP1 REVERT JUMPDEST DUP3 MLOAD PUSH2 0x8B DUP2 PUSH2 0x55 JUMP JUMPDEST PUSH1 0x20 DUP5 ADD MLOAD SWAP1 SWAP3 POP PUSH2 0x9C DUP2 PUSH2 0x55 JUMP JUMPDEST DUP1 SWAP2 POP POP SWAP3 POP SWAP3 SWAP1 POP JUMP JUMPDEST PUSH1 0x80 MLOAD PUSH1 0xA0 MLOAD PUSH2 0xAFB PUSH2 0xDA PUSH1 0x0 CODECOPY PUSH1 0x0 DUP2 DUP2 PUSH2 0x10B ADD MSTORE PUSH2 0x1A5 ADD MSTORE PUSH1 0x0 DUP2 DUP2 PUSH2 0x15F ADD MSTORE PUSH2 0x245 ADD MSTORE PUSH2 0xAFB PUSH1 0x0 RETURN INVALID PUSH1 0x80 PUSH1 0x40 MSTORE CALLVALUE DUP1 ISZERO PUSH2 0x10 JUMPI PUSH1 0x0 DUP1 REVERT JUMPDEST POP PUSH1 0x4 CALLDATASIZE LT PUSH2 0x88 JUMPI PUSH1 0x0 CALLDATALOAD PUSH1 0xE0 SHR DUP1 PUSH4 0x42545825 GT PUSH2 0x5B JUMPI DUP1 PUSH4 0x42545825 EQ PUSH2 0xF3 JUMPI DUP1 PUSH4 0x6588103B EQ PUSH2 0x106 JUMPI DUP1 PUSH4 0xCCEB68F5 EQ PUSH2 0x145 JUMPI DUP1 PUSH4 0xD1AF0C7D EQ PUSH2 0x15A JUMPI PUSH1 0x0 DUP1 REVERT JUMPDEST DUP1 PUSH4 0x87F0270 EQ PUSH2 0x8D JUMPI DUP1 PUSH4 0x25746251 EQ PUSH2 0xA8 JUMPI DUP1 PUSH4 0x2FDAE3C5 EQ PUSH2 0xCB JUMPI DUP1 PUSH4 0x3F2FA030 EQ PUSH2 0xE0 JUMPI JUMPDEST PUSH1 0x0 DUP1 REVERT JUMPDEST PUSH2 0x95 PUSH2 0x181 JUMP JUMPDEST PUSH1 0x40 MLOAD SWAP1 DUP2 MSTORE PUSH1 0x20 ADD JUMPDEST PUSH1 0x40 MLOAD DUP1 SWAP2 SUB SWAP1 RETURN JUMPDEST PUSH2 0xBB PUSH2 0xB6 CALLDATASIZE PUSH1 0x4 PUSH2 0x7CB JUMP JUMPDEST PUSH2 0x2D3 JUMP JUMPDEST PUSH1 0x40 MLOAD SWAP1 ISZERO ISZERO DUP2 MSTORE PUSH1 0x20 ADD PUSH2 0x9F JUMP JUMPDEST PUSH2 0xDE PUSH2 0xD9 CALLDATASIZE PUSH1 0x4 PUSH2 0x7FA JUMP JUMPDEST PUSH2 0x346 JUMP JUMPDEST STOP JUMPDEST PUSH2 0xDE PUSH2 0xEE CALLDATASIZE PUSH1 0x4 PUSH2 0x8AB JUMP JUMPDEST PUSH2 0x41C JUMP JUMPDEST PUSH2 0x95 PUSH2 0x101 CALLDATASIZE PUSH1 0x4 PUSH2 0x8DC JUMP JUMPDEST PUSH2 0x4DE JUMP JUMPDEST PUSH2 0x12D PUSH32 0x0 DUP2 JUMP JUMPDEST PUSH1 0x40 MLOAD PUSH1 0x1 PUSH1 0x1 PUSH1 0xA0 SHL SUB SWAP1 SWAP2 AND DUP2 MSTORE PUSH1 0x20 ADD PUSH2 0x9F JUMP JUMPDEST PUSH2 0x14D PUSH2 0x50F JUMP JUMPDEST PUSH1 0x40 MLOAD PUSH2 0x9F SWAP2 SWAP1 PUSH2 0x906 JUMP JUMPDEST PUSH2 0x12D PUSH32 0x0 DUP2 JUMP JUMPDEST PUSH1 0x1 SLOAD PUSH1 0x40 MLOAD PUSH4 0x70A08231 PUSH1 0xE0 SHL DUP2 MSTORE CALLER PUSH1 0x4 DUP3 ADD MSTORE PUSH1 0x0 SWAP2 SWAP1 PUSH1 0x1 PUSH1 0x1 PUSH1 0xA0 SHL SUB PUSH32 0x0 AND SWAP1 PUSH4 0x70A08231 SWAP1 PUSH1 0x24 ADD PUSH1 0x20 PUSH1 0x40 MLOAD DUP1 DUP4 SUB DUP2 DUP7 GAS STATICCALL ISZERO DUP1 ISZERO PUSH2 0x1EC JUMPI RETURNDATASIZE PUSH1 0x0 DUP1 RETURNDATACOPY RETURNDATASIZE PUSH1 0x0 REVERT JUMPDEST POP POP POP POP PUSH1 0x40 MLOAD RETURNDATASIZE PUSH1 0x1F NOT PUSH1 0x1F DUP3 ADD AND DUP3 ADD DUP1 PUSH1 0x40 MSTORE POP DUP2 ADD SWAP1 PUSH2 0x210 SWAP2 SWAP1 PUSH2 0x9DA JUMP JUMPDEST PUSH2 0x21A SWAP2 SWAP1 PUSH2 0xA09 JUMP JUMPDEST PUSH1 0x2 SLOAD PUSH1 0x40 MLOAD PUSH4 0x70A08231 PUSH1 0xE0 SHL DUP2 MSTORE CALLER PUSH1 0x4 DUP3 ADD MSTORE PUSH8 0xDE0B6B3A7640000 SWAP2 SWAP1 PUSH1 0x1 PUSH1 0x1 PUSH1 0xA0 SHL SUB PUSH32 0x0 AND SWAP1 PUSH4 0x70A08231 SWAP1 PUSH1 0x24 ADD PUSH1 0x20 PUSH1 0x40 MLOAD DUP1 DUP4 SUB DUP2 DUP7 GAS STATICCALL ISZERO DUP1 ISZERO PUSH2 0x28C JUMPI RETURNDATASIZE PUSH1 0x0 DUP1 RETURNDATACOPY RETURNDATASIZE PUSH1 0x0 REVERT JUMPDEST POP POP POP POP PUSH1 0x40 MLOAD RETURNDATASIZE PUSH1 0x1F NOT PUSH1 0x1F DUP3 ADD AND DUP3 ADD DUP1 PUSH1 0x40 MSTORE POP DUP2 ADD SWAP1 PUSH2 0x2B0 SWAP2 SWAP1 PUSH2 0x9DA JUMP JUMPDEST PUSH2 0x2BA SWAP2 SWAP1 PUSH2 0xA09 JUMP JUMPDEST PUSH2 0x2C4 SWAP2 SWAP1 PUSH2 0xA28 JUMP JUMPDEST PUSH2 0x2CE SWAP2 SWAP1 PUSH2 0xA4A JUMP JUMPDEST SWAP1 POP SWAP1 JUMP JUMPDEST PUSH1 0x0 DUP1 JUMPDEST CALLER PUSH1 0x0 SWAP1 DUP2 MSTORE PUSH1 0x4 PUSH1 0x20 MSTORE PUSH1 0x40 SWAP1 KECCAK256 SLOAD DUP2 LT ISZERO PUSH2 0x33D JUMPI CALLER PUSH1 0x0 SWAP1 DUP2 MSTORE PUSH1 0x4 PUSH1 0x20 MSTORE PUSH1 0x40 SWAP1 KECCAK256 DUP1 SLOAD DUP5 SWAP2 SWAP1 DUP4 SWAP1 DUP2 LT PUSH2 0x312 JUMPI PUSH2 0x312 PUSH2 0xA62 JUMP JUMPDEST SWAP1 PUSH1 0x0 MSTORE PUSH1 0x20 PUSH1 0x0 KECCAK256 ADD SLOAD SUB PUSH2 0x32B JUMPI POP PUSH1 0x0 SWAP3 SWAP2 POP POP JUMP JUMPDEST DUP1 PUSH2 0x335 DUP2 PUSH2 0xA78 JUMP JUMPDEST SWAP2 POP POP PUSH2 0x2D7 JUMP JUMPDEST POP PUSH1 0x1 SWAP3 SWAP2 POP POP JUMP JUMPDEST PUSH1 0x0 PUSH2 0x350 PUSH2 0x181 JUMP JUMPDEST GT PUSH2 0x35A JUMPI PUSH1 0x0 DUP1 REVERT JUMPDEST PUSH1 0x40 DUP1 MLOAD PUSH1 0x80 DUP2 ADD DUP3 MSTORE DUP3 DUP2 MSTORE PUSH1 0x0 PUSH1 0x20 DUP1 DUP4 ADD DUP3 SWAP1 MSTORE SWAP3 DUP3 ADD DUP2 SWAP1 MSTORE CALLER PUSH1 0x60 DUP4 ADD MSTORE PUSH1 0x3 DUP1 SLOAD PUSH1 0x1 DUP2 ADD DUP3 SSTORE SWAP2 MSTORE DUP2 MLOAD DUP1 MLOAD SWAP3 SWAP4 PUSH1 0x4 SWAP1 SWAP3 MUL PUSH32 0xC2575A0E9E593C00F959F8C92F12DB2869C3395A3B0502D05E2516446F71F85B ADD SWAP3 PUSH2 0x3C4 SWAP3 DUP5 SWAP3 ADD SWAP1 PUSH2 0x732 JUMP JUMPDEST POP PUSH1 0x20 DUP3 ADD MLOAD PUSH1 0x1 DUP3 ADD SSTORE PUSH1 0x40 DUP3 ADD MLOAD PUSH1 0x2 DUP3 ADD SSTORE PUSH1 0x60 SWAP1 SWAP2 ADD MLOAD PUSH1 0x3 SWAP1 SWAP2 ADD DUP1 SLOAD PUSH32 0xFFFFFFFFFFFFFFFFFFFFFFFF0000000000000000000000000000000000000000 AND PUSH1 0x1 PUSH1 0x1 PUSH1 0xA0 SHL SUB SWAP1 SWAP3 AND SWAP2 SWAP1 SWAP2 OR SWAP1 SSTORE POP JUMP JUMPDEST PUSH2 0x425 DUP2 PUSH2 0x2D3 JUMP JUMPDEST PUSH2 0x42E JUMPI PUSH1 0x0 DUP1 REVERT JUMPDEST PUSH1 0x0 PUSH2 0x438 PUSH2 0x181 JUMP JUMPDEST SWAP1 POP DUP3 PUSH2 0x47E JUMPI DUP1 PUSH1 0x3 DUP4 DUP2 SLOAD DUP2 LT PUSH2 0x453 JUMPI PUSH2 0x453 PUSH2 0xA62 JUMP JUMPDEST SWAP1 PUSH1 0x0 MSTORE PUSH1 0x20 PUSH1 0x0 KECCAK256 SWAP1 PUSH1 0x4 MUL ADD PUSH1 0x2 ADD PUSH1 0x0 DUP3 DUP3 SLOAD PUSH2 0x473 SWAP2 SWAP1 PUSH2 0xA4A JUMP JUMPDEST SWAP3 POP POP DUP2 SWAP1 SSTORE PUSH2 0x4B9 JUMP JUMPDEST DUP1 PUSH1 0x3 DUP4 DUP2 SLOAD DUP2 LT PUSH2 0x492 JUMPI PUSH2 0x492 PUSH2 0xA62 JUMP JUMPDEST SWAP1 PUSH1 0x0 MSTORE PUSH1 0x20 PUSH1 0x0 KECCAK256 SWAP1 PUSH1 0x4 MUL ADD PUSH1 0x1 ADD PUSH1 0x0 DUP3 DUP3 SLOAD PUSH2 0x4B2 SWAP2 SWAP1 PUSH2 0xA4A JUMP JUMPDEST SWAP3 POP POP DUP2 SWAP1 SSTORE JUMPDEST POP POP CALLER PUSH1 0x0 SWAP1 DUP2 MSTORE PUSH1 0x4 PUSH1 0x20 SWAP1 DUP2 MSTORE PUSH1 0x40 DUP3 KECCAK256 DUP1 SLOAD PUSH1 0x1 DUP2 ADD DUP3 SSTORE SWAP1 DUP4 MSTORE SWAP2 KECCAK256 ADD SSTORE POP JUMP JUMPDEST PUSH1 0x4 PUSH1 0x20 MSTORE DUP2 PUSH1 0x0 MSTORE PUSH1 0x40 PUSH1 0x0 KECCAK256 DUP2 DUP2 SLOAD DUP2 LT PUSH2 0x4FA JUMPI PUSH1 0x0 DUP1 REVERT JUMPDEST SWAP1 PUSH1 0x0 MSTORE PUSH1 0x20 PUSH1 0x0 KECCAK256 ADD PUSH1 0x0 SWAP2 POP SWAP2 POP POP SLOAD DUP2 JUMP JUMPDEST PUSH1 0x3 SLOAD PUSH1 0x60 SWAP1 PUSH1 0x0 SWAP1 PUSH8 0xFFFFFFFFFFFFFFFF DUP2 GT ISZERO PUSH2 0x530 JUMPI PUSH2 0x530 PUSH2 0x7E4 JUMP JUMPDEST PUSH1 0x40 MLOAD SWAP1 DUP1 DUP3 MSTORE DUP1 PUSH1 0x20 MUL PUSH1 0x20 ADD DUP3 ADD PUSH1 0x40 MSTORE DUP1 ISZERO PUSH2 0x595 JUMPI DUP2 PUSH1 0x20 ADD JUMPDEST PUSH2 0x582 PUSH1 0x40 MLOAD DUP1 PUSH1 0x80 ADD PUSH1 0x40 MSTORE DUP1 PUSH1 0x60 DUP2 MSTORE PUSH1 0x20 ADD PUSH1 0x0 DUP2 MSTORE PUSH1 0x20 ADD PUSH1 0x0 DUP2 MSTORE PUSH1 0x20 ADD PUSH1 0x0 PUSH1 0x1 PUSH1 0x1 PUSH1 0xA0 SHL SUB AND DUP2 MSTORE POP SWAP1 JUMP JUMPDEST DUP2 MSTORE PUSH1 0x20 ADD SWAP1 PUSH1 0x1 SWAP1 SUB SWAP1 DUP2 PUSH2 0x54E JUMPI SWAP1 POP JUMPDEST POP PUSH1 0x3 SLOAD SWAP1 SWAP2 POP PUSH1 0x0 SUB PUSH2 0x607 JUMPI PUSH1 0x40 DUP1 MLOAD PUSH1 0x0 DUP1 DUP3 MSTORE PUSH1 0x20 DUP3 ADD SWAP1 SWAP3 MSTORE SWAP1 PUSH2 0x600 JUMP JUMPDEST PUSH2 0x5ED PUSH1 0x40 MLOAD DUP1 PUSH1 0x80 ADD PUSH1 0x40 MSTORE DUP1 PUSH1 0x60 DUP2 MSTORE PUSH1 0x20 ADD PUSH1 0x0 DUP2 MSTORE PUSH1 0x20 ADD PUSH1 0x0 DUP2 MSTORE PUSH1 0x20 ADD PUSH1 0x0 PUSH1 0x1 PUSH1 0x1 PUSH1 0xA0 SHL SUB AND DUP2 MSTORE POP SWAP1 JUMP JUMPDEST DUP2 MSTORE PUSH1 0x20 ADD SWAP1 PUSH1 0x1 SWAP1 SUB SWAP1 DUP2 PUSH2 0x5B9 JUMPI SWAP1 POP JUMPDEST POP SWAP2 POP POP SWAP1 JUMP JUMPDEST PUSH1 0x0 JUMPDEST PUSH1 0x3 SLOAD DUP2 LT ISZERO PUSH2 0x72C JUMPI PUSH1 0x3 DUP2 DUP2 SLOAD DUP2 LT PUSH2 0x627 JUMPI PUSH2 0x627 PUSH2 0xA62 JUMP JUMPDEST SWAP1 PUSH1 0x0 MSTORE PUSH1 0x20 PUSH1 0x0 KECCAK256 SWAP1 PUSH1 0x4 MUL ADD PUSH1 0x40 MLOAD DUP1 PUSH1 0x80 ADD PUSH1 0x40 MSTORE SWAP1 DUP2 PUSH1 0x0 DUP3 ADD DUP1 SLOAD PUSH2 0x650 SWAP1 PUSH2 0xA91 JUMP JUMPDEST DUP1 PUSH1 0x1F ADD PUSH1 0x20 DUP1 SWAP2 DIV MUL PUSH1 0x20 ADD PUSH1 0x40 MLOAD SWAP1 DUP2 ADD PUSH1 0x40 MSTORE DUP1 SWAP3 SWAP2 SWAP1 DUP2 DUP2 MSTORE PUSH1 0x20 ADD DUP3 DUP1 SLOAD PUSH2 0x67C SWAP1 PUSH2 0xA91 JUMP JUMPDEST DUP1 ISZERO PUSH2 0x6C9 JUMPI DUP1 PUSH1 0x1F LT PUSH2 0x69E JUMPI PUSH2 0x100 DUP1 DUP4 SLOAD DIV MUL DUP4 MSTORE SWAP2 PUSH1 0x20 ADD SWAP2 PUSH2 0x6C9 JUMP JUMPDEST DUP3 ADD SWAP2 SWAP1 PUSH1 0x0 MSTORE PUSH1 0x20 PUSH1 0x0 KECCAK256 SWAP1 JUMPDEST DUP2 SLOAD DUP2 MSTORE SWAP1 PUSH1 0x1 ADD SWAP1 PUSH1 0x20 ADD DUP1 DUP4 GT PUSH2 0x6AC JUMPI DUP3 SWAP1 SUB PUSH1 0x1F AND DUP3 ADD SWAP2 JUMPDEST POP POP POP SWAP2 DUP4 MSTORE POP POP PUSH1 0x1 DUP3 ADD SLOAD PUSH1 0x20 DUP3 ADD MSTORE PUSH1 0x2 DUP3 ADD SLOAD PUSH1 0x40 DUP3 ADD MSTORE PUSH1 0x3 SWAP1 SWAP2 ADD SLOAD PUSH1 0x1 PUSH1 0x1 PUSH1 0xA0 SHL SUB AND PUSH1 0x60 SWAP1 SWAP2 ADD MSTORE DUP3 MLOAD DUP4 SWAP1 DUP4 SWAP1 DUP2 LT PUSH2 0x70E JUMPI PUSH2 0x70E PUSH2 0xA62 JUMP JUMPDEST PUSH1 0x20 MUL PUSH1 0x20 ADD ADD DUP2 SWAP1 MSTORE POP DUP1 DUP1 PUSH2 0x724 SWAP1 PUSH2 0xA78 JUMP JUMPDEST SWAP2 POP POP PUSH2 0x60A JUMP JUMPDEST POP SWAP2 SWAP1 POP JUMP JUMPDEST DUP3 DUP1 SLOAD PUSH2 0x73E SWAP1 PUSH2 0xA91 JUMP JUMPDEST SWAP1 PUSH1 0x0 MSTORE PUSH1 0x20 PUSH1 0x0 KECCAK256 SWAP1 PUSH1 0x1F ADD PUSH1 0x20 SWAP1 DIV DUP2 ADD SWAP3 DUP3 PUSH2 0x760 JUMPI PUSH1 0x0 DUP6 SSTORE PUSH2 0x7A6 JUMP JUMPDEST DUP3 PUSH1 0x1F LT PUSH2 0x779 JUMPI DUP1 MLOAD PUSH1 0xFF NOT AND DUP4 DUP1 ADD OR DUP6 SSTORE PUSH2 0x7A6 JUMP JUMPDEST DUP3 DUP1 ADD PUSH1 0x1 ADD DUP6 SSTORE DUP3 ISZERO PUSH2 0x7A6 JUMPI SWAP2 DUP3 ADD JUMPDEST DUP3 DUP2 GT ISZERO PUSH2 0x7A6 JUMPI DUP3 MLOAD DUP3 SSTORE SWAP2 PUSH1 0x20 ADD SWAP2 SWAP1 PUSH1 0x1 ADD SWAP1 PUSH2 0x78B JUMP JUMPDEST POP PUSH2 0x7B2 SWAP3 SWAP2 POP PUSH2 0x7B6 JUMP JUMPDEST POP SWAP1 JUMP JUMPDEST JUMPDEST DUP1 DUP3 GT ISZERO PUSH2 0x7B2 JUMPI PUSH1 0x0 DUP2 SSTORE PUSH1 0x1 ADD PUSH2 0x7B7 JUMP JUMPDEST PUSH1 0x0 PUSH1 0x20 DUP3 DUP5 SUB SLT ISZERO PUSH2 0x7DD JUMPI PUSH1 0x0 DUP1 REVERT JUMPDEST POP CALLDATALOAD SWAP2 SWAP1 POP JUMP JUMPDEST PUSH4 0x4E487B71 PUSH1 0xE0 SHL PUSH1 0x0 MSTORE PUSH1 0x41 PUSH1 0x4 MSTORE PUSH1 0x24 PUSH1 0x0 REVERT JUMPDEST PUSH1 0x0 PUSH1 0x20 DUP3 DUP5 SUB SLT ISZERO PUSH2 0x80C JUMPI PUSH1 0x0 DUP1 REVERT JUMPDEST DUP2 CALLDATALOAD PUSH8 0xFFFFFFFFFFFFFFFF DUP1 DUP3 GT ISZERO PUSH2 0x824 JUMPI PUSH1 0x0 DUP1 REVERT JUMPDEST DUP2 DUP5 ADD SWAP2 POP DUP5 PUSH1 0x1F DUP4 ADD SLT PUSH2 0x838 JUMPI PUSH1 0x0 DUP1 REVERT JUMPDEST DUP2 CALLDATALOAD DUP2 DUP2 GT ISZERO PUSH2 0x84A JUMPI PUSH2 0x84A PUSH2 0x7E4 JUMP JUMPDEST PUSH1 0x40 MLOAD PUSH1 0x1F DUP3 ADD PUSH1 0x1F NOT SWAP1 DUP2 AND PUSH1 0x3F ADD AND DUP2 ADD SWAP1 DUP4 DUP3 GT DUP2 DUP4 LT OR ISZERO PUSH2 0x872 JUMPI PUSH2 0x872 PUSH2 0x7E4 JUMP JUMPDEST DUP2 PUSH1 0x40 MSTORE DUP3 DUP2 MSTORE DUP8 PUSH1 0x20 DUP5 DUP8 ADD ADD GT ISZERO PUSH2 0x88B JUMPI PUSH1 0x0 DUP1 REVERT JUMPDEST DUP3 PUSH1 0x20 DUP7 ADD PUSH1 0x20 DUP4 ADD CALLDATACOPY PUSH1 0x0 SWAP3 DUP2 ADD PUSH1 0x20 ADD SWAP3 SWAP1 SWAP3 MSTORE POP SWAP6 SWAP5 POP POP POP POP POP JUMP JUMPDEST PUSH1 0x0 DUP1 PUSH1 0x40 DUP4 DUP6 SUB SLT ISZERO PUSH2 0x8BE JUMPI PUSH1 0x0 DUP1 REVERT JUMPDEST DUP3 CALLDATALOAD DUP1 ISZERO ISZERO DUP2 EQ PUSH2 0x8CE JUMPI PUSH1 0x0 DUP1 REVERT JUMPDEST SWAP5 PUSH1 0x20 SWAP4 SWAP1 SWAP4 ADD CALLDATALOAD SWAP4 POP POP POP JUMP JUMPDEST PUSH1 0x0 DUP1 PUSH1 0x40 DUP4 DUP6 SUB SLT ISZERO PUSH2 0x8EF JUMPI PUSH1 0x0 DUP1 REVERT JUMPDEST DUP3 CALLDATALOAD PUSH1 0x1 PUSH1 0x1 PUSH1 0xA0 SHL SUB DUP2 AND DUP2 EQ PUSH2 0x8CE JUMPI PUSH1 0x0 DUP1 REVERT JUMPDEST PUSH1 0x0 PUSH1 0x20 DUP1 DUP4 ADD DUP2 DUP5 MSTORE DUP1 DUP6 MLOAD DUP1 DUP4 MSTORE PUSH1 0x40 SWAP3 POP DUP3 DUP7 ADD SWAP2 POP DUP3 DUP2 PUSH1 0x5 SHL DUP8 ADD ADD DUP5 DUP9 ADD PUSH1 0x0 DUP1 JUMPDEST DUP5 DUP2 LT ISZERO PUSH2 0x9CB JUMPI PUSH1 0x3F NOT DUP11 DUP6 SUB ADD DUP7 MSTORE DUP3 MLOAD PUSH1 0x80 DUP2 MLOAD DUP2 DUP8 MSTORE DUP1 MLOAD DUP1 DUP4 DUP10 ADD MSTORE DUP6 SWAP3 POP JUMPDEST DUP1 DUP4 LT ISZERO PUSH2 0x971 JUMPI DUP2 DUP4 ADD DUP13 ADD MLOAD DUP9 DUP5 ADD PUSH1 0xA0 ADD MSTORE SWAP2 DUP12 ADD SWAP2 PUSH2 0x953 JUMP JUMPDEST DUP1 DUP4 GT ISZERO PUSH2 0x982 JUMPI DUP6 PUSH1 0xA0 DUP3 DUP11 ADD ADD MSTORE JUMPDEST DUP12 DUP5 ADD MLOAD DUP9 DUP14 ADD MSTORE DUP11 DUP5 ADD MLOAD DUP12 DUP10 ADD MSTORE PUSH1 0x60 SWAP4 DUP5 ADD MLOAD PUSH1 0x1 PUSH1 0x1 PUSH1 0xA0 SHL SUB DUP2 AND DUP6 DUP11 ADD MSTORE SWAP4 SWAP3 POP SWAP9 DUP12 ADD SWAP9 PUSH1 0x1F ADD PUSH1 0x1F NOT AND SWAP7 SWAP1 SWAP7 ADD PUSH1 0xA0 ADD SWAP6 POP POP POP SWAP2 DUP8 ADD SWAP2 PUSH1 0x1 ADD PUSH2 0x92E JUMP JUMPDEST POP SWAP2 SWAP10 SWAP9 POP POP POP POP POP POP POP POP POP JUMP JUMPDEST PUSH1 0x0 PUSH1 0x20 DUP3 DUP5 SUB SLT ISZERO PUSH2 0x9EC JUMPI PUSH1 0x0 DUP1 REVERT JUMPDEST POP MLOAD SWAP2 SWAP1 POP JUMP JUMPDEST PUSH4 0x4E487B71 PUSH1 0xE0 SHL PUSH1 0x0 MSTORE PUSH1 0x11 PUSH1 0x4 MSTORE PUSH1 0x24 PUSH1 0x0 REVERT JUMPDEST PUSH1 0x0 DUP2 PUSH1 0x0 NOT DIV DUP4 GT DUP3 ISZERO ISZERO AND ISZERO PUSH2 0xA23 JUMPI PUSH2 0xA23 PUSH2 0x9F3 JUMP JUMPDEST POP MUL SWAP1 JUMP JUMPDEST PUSH1 0x0 DUP3 PUSH2 0xA45 JUMPI PUSH4 0x4E487B71 PUSH1 0xE0 SHL PUSH1 0x0 MSTORE PUSH1 0x12 PUSH1 0x4 MSTORE PUSH1 0x24 PUSH1 0x0 REVERT JUMPDEST POP DIV SWAP1 JUMP JUMPDEST PUSH1 0x0 DUP3 NOT DUP3 GT ISZERO PUSH2 0xA5D JUMPI PUSH2 0xA5D PUSH2 0x9F3 JUMP JUMPDEST POP ADD SWAP1 JUMP JUMPDEST PUSH4 0x4E487B71 PUSH1 0xE0 SHL PUSH1 0x0 MSTORE PUSH1 0x32 PUSH1 0x4 MSTORE PUSH1 0x24 PUSH1 0x0 REVERT JUMPDEST PUSH1 0x0 PUSH1 0x1 DUP3 ADD PUSH2 0xA8A JUMPI PUSH2 0xA8A PUSH2 0x9F3 JUMP JUMPDEST POP PUSH1 0x1 ADD SWAP1 JUMP JUMPDEST PUSH1 0x1 DUP2 DUP2 SHR SWAP1 DUP3 AND DUP1 PUSH2 0xAA5 JUMPI PUSH1 0x7F DUP3 AND SWAP2 POP JUMPDEST PUSH1 0x20 DUP3 LT DUP2 SUB PUSH2 0x72C JUMPI PUSH4 0x4E487B71 PUSH1 0xE0 SHL PUSH1 0x0 MSTORE PUSH1 0x22 PUSH1 0x4 MSTORE PUSH1 0x24 PUSH1 0x0 REVERT INVALID LOG2 PUSH5 0x6970667358 0x22 SLT KECCAK256 0x4E 0xDF PUSH24 0xC4ACF060CEFCCBE778A5A77C72557A6BAAB0FD5CF32B3BDA PUSH22 0xA2FD7DA464736F6C634300080D003300000000000000 "
    },
    "gasEstimates": {
      "creation": {
        "codeDepositCost": "562200",
        "executionCost": "infinite",
        "totalCost": "infinite"
      },
      "external": {
        "addProposal(string)": "infinite",
        "canVote(uint256)": "infinite",
        "castVote(bool,uint256)": "infinite",
        "getAllProposals()": "infinite",
        "getVotingPower()": "infinite",
        "hasVoted(address,uint256)": "4698",
        "nftCollection()": "infinite",
        "rewardsToken()": "infinite"
      }
    },
    "methodIdentifiers": {
      "addProposal(string)": "2fdae3c5",
      "canVote(uint256)": "25746251",
      "castVote(bool,uint256)": "3f2fa030",
      "getAllProposals()": "cceb68f5",
      "getVotingPower()": "087f0270",
      "hasVoted(address,uint256)": "42545825",
      "nftCollection()": "6588103b",
      "rewardsToken()": "d1af0c7d"
    }
  },
  "storageLayout": {
    "storage": [
      {
        "astId": 747,
        "contract": "NftVoting.sol:FriendsLandVoting",
        "label": "_status",
        "offset": 0,
        "slot": "0",
        "type": "t_uint256"
      },
      {
        "astId": 506,
        "contract": "NftVoting.sol:FriendsLandVoting",
        "label": "votingPowerPerNFT",
        "offset": 0,
        "slot": "1",
        "type": "t_uint256"
      },
      {
        "astId": 509,
        "contract": "NftVoting.sol:FriendsLandVoting",
        "label": "votingPowerPerCoin",
        "offset": 0,
        "slot": "2",
        "type": "t_uint256"
      },
      {
        "astId": 540,
        "contract": "NftVoting.sol:FriendsLandVoting",
        "label": "allProposals",
        "offset": 0,
        "slot": "3",
        "type": "t_array(t_struct(Proposal)536_storage)dyn_storage"
      },
      {
        "astId": 545,
        "contract": "NftVoting.sol:FriendsLandVoting",
        "label": "hasVoted",
        "offset": 0,
        "slot": "4",
        "type": "t_mapping(t_address,t_array(t_uint256)dyn_storage)"
      }
    ],
    "types": {
      "t_address": {
        "encoding": "inplace",
        "label": "address",
        "numberOfBytes": "20"
      },
      "t_array(t_struct(Proposal)536_storage)dyn_storage": {
        "base": "t_struct(Proposal)536_storage",
        "encoding": "dynamic_array",
        "label": "struct FriendsLandVoting.Proposal[]",
        "numberOfBytes": "32"
      },
      "t_array(t_uint256)dyn_storage": {
        "base": "t_uint256",
        "encoding": "dynamic_array",
        "label": "uint256[]",
        "numberOfBytes": "32"
      },
      "t_mapping(t_address,t_array(t_uint256)dyn_storage)": {
        "encoding": "mapping",
        "key": "t_address",
        "label": "mapping(address => uint256[])",
        "numberOfBytes": "32",
        "value": "t_array(t_uint256)dyn_storage"
      },
      "t_string_storage": {
        "encoding": "bytes",
        "label": "string",
        "numberOfBytes": "32"
      },
      "t_struct(Proposal)536_storage": {
        "encoding": "inplace",
        "label": "struct FriendsLandVoting.Proposal",
        "members": [
          {
            "astId": 529,
            "contract": "NftVoting.sol:FriendsLandVoting",
            "label": "proposalText",
            "offset": 0,
            "slot": "0",
            "type": "t_string_storage"
          },
          {
            "astId": 531,
            "contract": "NftVoting.sol:FriendsLandVoting",
            "label": "yesVotes",
            "offset": 0,
            "slot": "1",
            "type": "t_uint256"
          },
          {
            "astId": 533,
            "contract": "NftVoting.sol:FriendsLandVoting",
            "label": "noVotes",
            "offset": 0,
            "slot": "2",
            "type": "t_uint256"
          },
          {
            "astId": 535,
            "contract": "NftVoting.sol:FriendsLandVoting",
            "label": "proposalCreator",
            "offset": 0,
            "slot": "3",
            "type": "t_address"
          }
        ],
        "numberOfBytes": "128"
      },
      "t_uint256": {
        "encoding": "inplace",
        "label": "uint256",
        "numberOfBytes": "32"
      }
    }
  },
  "userdoc": {
    "kind": "user",
    "methods": {},
    "version": 1
  }
}